:020000040800F2
:100000000050002081090008C5090008C509000842
:10001000C5090008C5090008C5090008000000005E
:10002000000000000000000000000000C5090008FA
:10003000C509000800000000C5090008C50900083E
:10004000C5090008C5090008C5090008C509000858
:10005000C5090008C5090008C5090008C509000848
:10006000C5090008C5090008C5090008C509000838
:10007000C5090008C5090008C5090008C509000828
:10008000C5090008C5090008C5090008C509000818
:10009000C5090008C5090008C5090008C509000808
:1000A000C5090008C5090008C5090008C5090008F8
:1000B000C5090008C5090008C5090008C5090008E8
:1000C000C5090008C5090008C5090008C5090008D8
:1000D000C5090008C5090008C5090008C5090008C8
:1000E000C5090008C5090008C5090008000000008E
:1000F0000000000000000000000000000000000000
:0C01000000000000000000005FF808F1A3
:10010C000348044B834202D0034B03B1184770479A
:10011C0000000020000000200000000005480649F7
:10012C000B1AD90F01EBA301491002D0034B03B1F9
:10013C00184770470000002000000020000000005D
:10014C0010B5064C237843B9FFF7DAFF044B13B113
:10015C000448AFF300800123237010BD0000002081
:10016C00000000000C01000808B5044B1BB1044949
:10017C000448AFF30080BDE80840CFE70000000062
:10018C00040000200C010008374B82B01A6842F0C2
:10019C0001021A605968354A0A405A601A6822F0FE
:1001AC00847222F480321A601A6822F480221A6057
:1001BC005A6822F4FE025A604FF41F029A60002221
:1001CC00009201921A6842F480321A601A6802F4A2
:1001DC0000320192009A01320092019A1AB9009AE7
:1001EC00B2F5A06FF2D11A6812F4003218BF0122D6
:1001FC000192019A012A30D11D4A116841F0100177
:10020C001160116821F003011160116841F00201C5
:10021C0011605A685A605A685A605A6842F480628F
:10022C005A605A6822F47C125A605A6842F4E812F6
:10023C005A601A6842F080721A601A689201FCD5F2
:10024C005A6822F003025A605A6842F002025A605D
:10025C005A6802F00C02082AFAD14FF00062054BE2
:10026C009A6002B0704700BF001002400000FFF817
:10027C000020024000ED00E0034B044A5A6002F1FA
:10028C0088325A60704700BF002002402301674546
:10029C00024A136943F08003136170470020024047
:1002AC00084BDA68D10709D4DA68520708D4DB683E
:1002BC0013F0100F14BF0320042070470120704767
:1002CC00022070470020024010B50446FFF7E8FFFB
:1002DC00012806D10CB9052010BDFFF7E1FF013C48
:1002EC00F6E7002C08BF0520F6E7000038B50546F8
:1002FC004FF43020FFF7E8FF042813D10A4C4FF4D9
:10030C003020236943F0020323616561236943F0C4
:10031C0040032361FFF7D8FF236923F00203DB04BA
:10032C00DB0C236138BD00BF0020024070B50546D0
:10033C004FF400500E46FFF7C7FF04280FD1084CAE
:10034C004FF40050236943F0010323612E80FFF723
:10035C00BBFF236923F00103DB04DB0C236170BDBD
:10036C00002002402DE9F041CB780F88DA0648BF17
:10037C008A7803F00F0548BF15430A78D2B10021E3
:10038C004FF0010C4FF00F0E02680CFA01F636EA32
:10039C0007040BD18C000EFA04F822EA080205FAC5
:1003AC0004F4282B42EA040225D1466101310829C4
:1003BC00EBD10260FF2F1CD900214FF0010C4FF044
:1003CC000F0E426801F108040CFA04F434EA070633
:1003DC000BD18E000EFA06F822EA080205FA06F690
:1003EC00282B42EA06020AD1446101310829E9D1DD
:1003FC004260BDE8F081482B08BF0661D6E7482B68
:10040C0008BF0461F1E78368194214BF0120002082
:10041C0070470AB10161704741617047044B9A699A
:10042C0011B110439861704722EA0000FAE700BF4F
:10043C000010024008B500F09FF900F0E9F900F057
:10044C0049FA0121204A084600F066F901210220F0
:10045C001E4A00F061F91E4D00F0F0F901281D4C08
:10046C0028700DD1638801336380A3880233A38085
:10047C00E3880333E38023890433238100F056FAA5
:10048C002B78022B01D100F067FA22880423062175
:10049C00012000F051F9628804230121032000F0AF
:1004AC004BF9A28804230621032000F045F904230C
:1004BC00E2881846012100F03FF904230621184672
:1004CC00228900F039F9C7E76C0A0008720A0008A3
:1004DC001C0000201E0000204823002258434FF02F
:1004EC00E02358619A6105221A611A69D203FCD57E
:1004FC0004221A617047014608B501B908BD4FF4D2
:10050C007A70FFF7E9FF0139F7E7000073B50121B5
:10051C000820FFF783FF4FF4807641F203434FF43A
:10052C0000750D4C01A92046ADF80630ADF80460FD
:10053C00FFF718FF204601A9ADF80450FFF712FF92
:10054C00314620460122FFF764FF0122294620464E
:10055C00FFF75FFF02B070BD000C014010B50D4CF1
:10056C00012220464FF40071FFF753FF2046012271
:10057C004FF48071FFF74DFF204600224FF40071BD
:10058C00FFF747FF2046BDE8104000224FF4807172
:10059C00FFF73FBF000C014010B50A4C002220466B
:1005AC004FF40071FFF735FF204601224FF48071A4
:1005BC00FFF72FFF2046BDE8104001224FF40071D9
:1005CC00FFF727BF000C014070B5054600248026BC
:1005DC0046FA04F32B4214BF012200224FF400719F
:1005EC000F48FFF716FF01224FF480710C48FFF7FC
:1005FC0010FF013400224FF480710948FFF709FF06
:10060C00082CE5D101224FF480710548FFF701FF5A
:10061C00BDE8704000224FF480710148FFF7F9BE2D
:10062C00000C014010B50446FFF798FF7820FFF747
:10063C00CBFF0020FFF7C8FF2046FFF7C5FFBDE842
:10064C001040FFF7A9BF10B50446FFF787FF7820CD
:10065C00FFF7BAFF4020FFF7B7FF2046FFF7B4FFC4
:10066C00BDE81040FFF798BF10B50C4640F0B00045
:10067C00FFF7D8FF200940F01000FFF7D3FF04F07C
:10068C000F00BDE81040FFF7CDBF38B500250021A5
:10069C00E8B2FFF7E9FF80240020013CFFF7D3FF0D
:1006AC0014F0FF04F8D10135082DF0D138BD00004D
:1006BC002DE9F84317464FF00809441E4D1E6400FF
:1006CC00ED00E4B2EDB229462046FFF7CDFF114E06
:1006DC0007F18053203B06EB0318203F18F8010B61
:1006EC0009F1FF39FFF7AFFF19F0FF09F6D1601CD4
:1006FC002946C0B2FFF7B8FF082406EB07160836E8
:10070C0016F8010B013CFFF79EFF14F0FF04F7D124
:10071C00BDE8F883780A0008F8B506460F4615467A
:10072C0000242A5D02B9F8BDE1193046C9B2013482
:10073C00FFF7BEFFE4B2F4E72DE9F04107460D46A2
:10074C0090465E1E731C14D1BDE8F0812401013B60
:10075C00FCD2B8FBF4F404F00F02092A29463846FF
:10076C0094BF303237320135FFF7A2FFEDB2013EB4
:10077C00E8E733460124EAE708B5FFF7C7FEAE20E9
:10078C00FFF750FFD520FFF74DFF8020FFF74AFF02
:10079C00A820FFF747FF3F20FFF744FFD320FFF7C8
:1007AC0041FF0020FFF73EFF4020FFF73BFFA12059
:1007BC00FFF738FFC820FFF735FFDA20FFF732FFCD
:1007CC001220FFF72FFF8120FFF72CFFCF20FFF720
:1007DC0029FFD920FFF726FFF120FFF723FFDB20AD
:1007EC00FFF720FF3020FFF71DFFA420FFF71AFFB3
:1007FC00A620FFF717FF8D20FFF714FF1420FFF73B
:10080C0011FFAF20FFF70EFFBDE80840FFF73DBF1B
:10081C0007B501210820FFF701FE40F60203ADF8F1
:10082C00043044F60303044801A9ADF80630FFF781
:10083C0099FD03B05DF804FB000C014010B50221DA
:10084C001548FFF7E0FD20BB1420FFF754FE124CB7
:10085C0002212046FFF7D7FD0028F9D01420FFF71E
:10086C004AFE01244FF400610B48FFF7CCFD70B930
:10087C001420FFF740FE084C4FF400612046FFF7B0
:10088C00C2FD0028F8D01420FFF735FE02242046C4
:10089C0010BD0024E6E700BF000C0140008880B2C8
:1008AC00704710B50446FFF7E7FC2046FFF71EFD26
:1008BC00BDE81040FFF7ECBC38B504460D46FFF719
:1008CC00DBFC29462046FFF731FDBDE83840FFF739
:1008DC00DFBC000070B51148FFF7E0FF4AF2A554E9
:1008EC00A0420FD00D48FFF7DCFF21460B48FFF765
:1008FC00E3FF0B4C0B4D204600210234FFF7DCFFCD
:10090C00AC42F8D1084D054C064E2046FFF7C6FF09
:10091C000234B44225F8020BF7D170BD00FC00087C
:10092C0002FC0008000001081E00002070B50748FA
:10093C00FFF7B7FF064D054C064E204635F8021B57
:10094C000234FFF7B9FFB442F7D170BD00FC0008C8
:10095C001E0000200000010808B540F2FE32002104
:10096C00034800F02BF8BDE80840FFF7DFBF00BFDD
:10097C0020000020002103E00A4B5B584350043157
:10098C0009480A4B42189A42F6D3094A02E000235E
:10099C0042F8043B074B9A42F9D3FFF7F5FBFFF7FC
:1009AC0049FD70478810000800000020000000205E
:1009BC000000002020040020FEE70000830730B573
:1009CC0048D0541E002A3FD00346CAB201E0013C75
:1009DC003AD303F8012B9D07F9D1032C2DD9CDB2B5
:1009EC0045EA05250F2C45EA054536D9A4F1100238
:1009FC0022F00F0C03F1200EE6444FEA121C03F117
:100A0C00100242E9045542E9025510327245F8D100
:100A1C000CF1010214F00C0F03EB021204F00F0C9A
:100A2C0013D0ACF1040323F003030433134442F852
:100A3C00045B9342FBD10CF003042CB1CAB21C44EE
:100A4C0003F8012B9C42FBD130BD64461346002CAD
:100A5C00F4D1F9E703461446BFE71A46A446E0E78B
:100A6C00466C61673A00446174613A000000000012
:100A7C00000000000000000000000000000000F872
:100A8C0000000000000000333000000000100C06D5
:100A9C00100C0600000000000000000040C0784070
:100AAC00C0784000043F04043F040400007088FC3C
:100ABC0008300000001820FF211E0000F008F00094
:100ACC00E018000000211C031E211E0000F0088805
:100ADC00700000001E2123241927211010160E006F
:100AEC00000000000000000000000000000000E01A
:100AFC00180402000000000718204000000204182F
:100B0C00E00000000040201807000000404080F08A
:100B1C00804040000202010F01020200000000F0C0
:100B2C00000000000101011F010101000000000094
:100B3C000000000080B07000000000000000000009
:100B4C000000000000010101010101010000000092
:100B5C000000000000303000000000000000000029
:100B6C0080601804006018060100000000E0100806
:100B7C000810E000000F102020100F00001010F8DB
:100B8C00000000000020203F20200000007008081A
:100B9C00088870000030282422213000003008889A
:100BAC00884830000018202020110E000000C020C2
:100BBC0010F8000000070424243F240000F80888E3
:100BCC00880808000019212020110E0000E0108870
:100BDC0088180000000F112020110E0000380808A2
:100BEC00C83808000000003F0000000000708808B2
:100BFC0008887000001C222121221C0000E0100833
:100C0C000810E0000000312222110F00000000C08B
:100C1C00C000000000000030300000000000008028
:100C2C000000000000008060000000000000804018
:100C3C002010080000010204081020004040404031
:100C4C004040400004040404040404000008102084
:100C5C0040800000002010080402010000704808C9
:100C6C000808F0000000003036010000C030C82831
:100C7C00E810E0000718272423140B000000C038EC
:100C8C00E0000000203C23020227382008F8888866
:100C9C0088700000203F202020110E00C030080872
:100CAC0008083800071820202010080008F8080849
:100CBC000810E000203F202020100F0008F8888842
:100CCC00E8081000203F20202320180008F888880E
:100CDC00E8081000203F200003000000C030080886
:100CEC000838000007182020221E020008F808000F
:100CFC000008F808203F210101213F20000808F8D6
:100D0C00080800000020203F2020000000000808F8
:100D1C00F8080800C08080807F00000008F888C0B8
:100D2C0028180800203F20012638200008F8080069
:100D3C0000000000203F20202020300008F8F800A0
:100D4C00F8F80800203F003F003F200008F830C0B2
:100D5C000008F808203F200007183F00E0100808A2
:100D6C000810E0000F10202020100F0008F80808D1
:100D7C000808F000203F210101010000E0100808E4
:100D8C000810E0000F18242438504F0008F8888809
:100D9C0088887000203F2000030C302000708808E9
:100DAC00080838000038202121221C00180808F8F7
:100DBC00080818000000203F2000000008F8080078
:100DCC000008F808001F202020201F000878880049
:100DDC0000C83808000007380E010000F80800F8B9
:100DEC000008F800033C0700073C03000818688063
:100DFC008068180820302C03032C30200838C800D9
:100E0C00C83808000000203F200000001008080827
:100E1C00C83808002038262120201800000000FEC9
:100E2C00020202000000007F40404000000C30C075
:100E3C0000000000000000010638C00000020202A1
:100E4C00FE000000004040407F0000000000040253
:100E5C00020204000000000000000000000000007E
:100E6C00000000008080808080808080000202046E
:100E7C000000000000000000000000000000808066
:100E8C00808000000019242222223F2008F80080D4
:100E9C0080000000003F112020110E000000008097
:100EAC0080800000000E1120202011000000008026
:100EBC008088F800000E112020103F200000808058
:100ECC0080800000001F222222221300008080F06C
:100EDC00888888180020203F202000000000808097
:100EEC0080808000006B94949493600008F80080DC
:100EFC0080800000203F210000203F200080989837
:100F0C00000000000020203F202000000000008096
:100F1C009898000000C08080807F000008F80000D6
:100F2C0080808000203F24022D302000000808F82B
:100F3C00000000000020203F2020000080808080E6
:100F4C0080808000203F20003F20003F8080008078
:100F5C0080800000203F210000203F200000808086
:100F6C0080800000001F202020201F008080008037
:100F7C008000000080FFA12020110E0000000080E6
:100F8C0080808000000E112020A0FF8080808000D7
:100F9C008080800020203F21200001000000808004
:100FAC00808080000033242424241900008080E0F9
:100FBC00808000000000001F2020000080800000C6
:100FCC0000808000001F202020103F2080808000A7
:100FDC000080808000010E300806010080800080B7
:100FEC00008080800F300C030C300F0000808000DC
:100FFC00808080000020312E0E3120008080800007
:10100C000080808080818E701806010000808080B6
:10101C00808080000021302C222130000000000054
:10102C00807C020200000000003F404000000000F5
:10103C00FF00000000000000FF0000000002027C26
:10104C00800000000040403F00000000000601014D
:10105C00020204040000000000000000F8B500BF0C
:10106C00F8BC08BC9E467047F8B500BFF8BC08BC7D
:04107C009E467047D5
:0410800075010008EE
:041084004D01000812
:040000050800098165
:00000001FF
