:020000040800F2
:100000000050002091090008D5090008D509000812
:10001000D5090008D5090008D5090008000000002E
:10002000000000000000000000000000D5090008EA
:10003000D509000800000000D5090008D50900080E
:10004000D5090008D5090008D5090008D509000818
:10005000D5090008D5090008D5090008D509000808
:10006000D5090008D5090008D5090008D5090008F8
:10007000D5090008D5090008D5090008D5090008E8
:10008000D5090008D5090008D5090008D5090008D8
:10009000D5090008D5090008D5090008D5090008C8
:1000A000D5090008D5090008D5090008D5090008B8
:1000B000D5090008D5090008D5090008D5090008A8
:1000C000D5090008D5090008D5090008D509000898
:1000D000D5090008D5090008D5090008D509000888
:1000E000D5090008D5090008D5090008000000005E
:1000F0000000000000000000000000000000000000
:0C01000000000000000000005FF808F1A3
:10010C000348044B834202D0034B03B1184770479A
:10011C00D4000020D400002000000000054806494F
:10012C000B1AD90F01EBA301491002D0034B03B1F9
:10013C0018477047D4000020D400002000000000B5
:10014C0010B5064C237843B9FFF7DAFF044B13B113
:10015C000448AFF300800123237010BDD4000020AD
:10016C00000000000C01000808B5044B1BB1044949
:10017C000448AFF30080BDE80840CFE70000000062
:10018C00D80000200C010008374B82B01A6842F0EE
:10019C0001021A605968354A0A405A601A6822F0FE
:1001AC00847222F480321A601A6822F480221A6057
:1001BC005A6822F4FE025A604FF41F029A60002221
:1001CC00009201921A6842F480321A601A6802F4A2
:1001DC0000320192009A01320092019A1AB9009AE7
:1001EC00B2F5A06FF2D11A6812F4003218BF0122D6
:1001FC000192019A012A30D11D4A116841F0100177
:10020C001160116821F003011160116841F00201C5
:10021C0011605A685A605A685A605A6842F480628F
:10022C005A605A6822F47C125A605A6842F4E812F6
:10023C005A601A6842F080721A601A689201FCD5F2
:10024C005A6822F003025A605A6842F002025A605D
:10025C005A6802F00C02082AFAD14FF00062054BE2
:10026C009A6002B0704700BF001002400000FFF817
:10027C000020024000ED00E0002382B00193044B0B
:10028C000193019B18440190019B196002B07047C7
:10029C00006C0040002382B00193054B0193019B3D
:1002AC0018440190019B188880B202B0704700BFBF
:1002BC00006C00402DE9F041CB780F88DA0648BF7E
:1002CC008A7803F00F0548BF15430A78D2B1002194
:1002DC004FF0010C4FF00F0E02680CFA01F636EAE3
:1002EC0007040BD18C000EFA04F822EA080205FA76
:1002FC0004F4282B42EA040225D146610131082975
:10030C00EBD10260FF2F1CD900214FF0010C4FF0F4
:10031C000F0E426801F108040CFA04F434EA0706E3
:10032C000BD18E000EFA06F822EA080205FA06F640
:10033C00282B42EA06020AD1446101310829E9D18D
:10034C004260BDE8F081482B08BF0661D6E7482B18
:10035C0008BF0461F1E70AB1016170474161704760
:10036C00014B1862704700BF00000E420022084B80
:10037C00012883F8202083F8202002D0042803D001
:10038C00704783F820007047052283F820207047BF
:10039C0000100240024A136A03431362704700BF05
:1003AC0000100240014BC3F83C047047000042426D
:1003BC00044B9A6911B110439861704722EA00000E
:1003CC00FAE700BF00100240044BDA6911B1104388
:1003DC00D861704722EA0000FAE700BF0010024023
:1003EC004209012A074B07D11B6800F01F0023FAB2
:1003FC0000F000F001007047022A0CBF1B6A5B6A18
:10040C00F3E700BF00100240034A93889BB243F00D
:10041C0010039380704700BF00280040034A938864
:10042C0023F010031B041B0C938070470028004022
:10043C00034A938B108B9BB243EA0040704700BF7A
:10044C000028004008B5FFF7DFFF044B020C80B218
:10045C001A839883BDE80840FFF7E0BF00280040EE
:10046C0008B5FFF7D1FF054BC0F3034280B21A81E8
:10047C009881BDE80840FFF7D1BF00BF00280040BD
:10048C00044A138A908A1B0403F4702380B2184325
:10049C00704700BF00280040024A93889B06FCD599
:1004AC00704700BF00280040054A938823F00803DA
:1004BC001B041B0C938093881B07FCD5704700BF53
:1004CC000028004008B500F092F900F0FDF9012178
:1004DC00254A084600F058F901210220234A00F071
:1004EC0053F901210320224A00F04EF90121042086
:1004FC00204A00F049F9204C00F024FA2288042309
:10050C000621012000F050F9628802230B21012002
:10051C0000F04AF9A28802230E21012000F044F9D0
:10052C000223E2881846062100F03EF902232289B4
:10053C001846092100F038F9022362890C2118466B
:10054C0000F032F9FFF774FF0A230246062103205C
:10055C0000F02AF9FFF794FF0A2302460621042033
:10056C0000F022F9C7E700BF4C4900085C490008BD
:10057C006A490008704900080000002073B5012189
:10058C000820FFF715FF4FF4807641F203434FF438
:10059C0000750D4C01A92046ADF80630ADF804608D
:1005AC00FFF788FE204601A9ADF80450FFF782FE44
:1005BC00314620460122FFF7CEFE01222946204675
:1005CC00FFF7C9FE02B070BD000C014010B50D4C18
:1005DC00012220464FF40071FFF7BDFE2046012298
:1005EC004FF48071FFF7B7FE204600224FF40071E4
:1005FC00FFF7B1FE2046BDE8104000224FF4807199
:10060C00FFF7A9BE000C014010B50A4C0022204691
:10061C004FF40071FFF79FFE204601224FF48071CA
:10062C00FFF799FE2046BDE8104001224FF40071FF
:10063C00FFF791BE000C014070B5054600248026E2
:10064C0046FA04F32B4214BF012200224FF400712E
:10065C000F48FFF780FE01224FF480710C48FFF722
:10066C007AFE013400224FF480710948FFF773FEC3
:10067C00082CE5D101224FF480710548FFF76BFE81
:10068C00BDE8704000224FF480710148FFF763BE53
:10069C00000C014010B50446FFF798FF7820FFF7D7
:1006AC00CBFF0020FFF7C8FF2046FFF7C5FFBDE8D2
:1006BC001040FFF7A9BF10B50446FFF787FF78205D
:1006CC00FFF7BAFF4020FFF7B7FF2046FFF7B4FF54
:1006DC00BDE81040FFF798BF10B50C4640F0B000D5
:1006EC00FFF7D8FF200940F01000FFF7D3FF04F00C
:1006FC000F00BDE81040FFF7CDBF38B50025002135
:10070C00E8B2FFF7E9FF80240020013CFFF7D3FF9C
:10071C0014F0FF04F8D10135082DF0D138BD0000DC
:10072C002DE9F84317464FF00809441E4D1E64008E
:10073C00ED00E4B2EDB229462046FFF7CDFF114E95
:10074C0007F18053203B06EB0318203F18F8010BF0
:10075C0009F1FF39FFF7AFFF19F0FF09F6D1601C63
:10076C002946C0B2FFF7B8FF082406EB0716083677
:10077C0016F8010B013CFFF79EFF14F0FF04F7D1B4
:10078C00BDE8F88376490008F8B506460F461546CD
:10079C0000242A5D02B9F8BDE1193046C9B2013412
:1007AC00FFF7BEFFE4B2F4E72DE9F84307460D4628
:1007BC0090464FF00A095E1E731C15D1BDE8F883F4
:1007CC0009FB04F4013BFBD2B8FBF4F4B4FBF9F2E3
:1007DC0009FB1244303429463846E2B20135FFF7A2
:1007EC009FFFEDB2013EE7E733460124EAE708B587
:1007FC00FFF7C4FEAE20FFF74DFFD520FFF74AFFF1
:10080C008020FFF747FFA820FFF744FF3F20FFF7AA
:10081C0041FFD320FFF73EFF0020FFF73BFF4020B6
:10082C00FFF738FFA120FFF735FFC820FFF732FF95
:10083C00DA20FFF72FFF1220FFF72CFF8120FFF7A4
:10084C0029FFCF20FFF726FFD920FFF723FFF12048
:10085C00FFF720FFDB20FFF71DFF3020FFF71AFF0B
:10086C00A420FFF717FFA620FFF714FF8D20FFF73A
:10087C0011FF1420FFF70EFFAF20FFF70BFFBDE8B1
:10088C000840FFF73ABF000000B50E4B8BB01A883A
:10089C0001A8A2F26C7206925A88013A05929A88C3
:1008AC000492DA8803921A895B890292019300F010
:1008BC0031FBA0F5E140FFF7C5FDFFF7EDFD0BB0F7
:1008CC005DF804FB0000002010B501214FF08050B2
:1008DC00FFF77AFD01214FF00060FFF775FD012055
:1008EC00FFF73EFD0420FFF7D5FC4AF2A5539842D2
:1008FC0022D00120FFF73AFD4120FFF771FD0128BE
:10090C000446F9D14FF48070FFF744FD2046FFF701
:10091C0049FDFFF7C9FDFFF7BFFD47F6FF70FFF775
:10092C009FFDFFF7B9FDFFF7AFFFBDE810404AF29E
:10093C00A5510420FFF7A0BCFFF7B6FDBDE81040A1
:10094C00FFF7AABDF7B5FFF773FD002300F5E140F3
:10095C0000906846019300F039F802694169084B30
:10096C0001F26C710132D0E90045D0E902671980BF
:10097C005A809F80DE801D815C8103B0F0BD00BF7A
:10098C0000000020002103E00A4B5B584350043167
:10099C0009480A4B42189A42F6D3094A02E000234E
:1009AC0042F8043B074B9A42F9D3FFF7EDFBFFF7F4
:1009BC0089FD70470053000800000020D40000207F
:1009CC00D400002028010020FEE7000038B50B4BB6
:1009DC0004461D68E96B21B12046BDE8384000F0A3
:1009EC0013B8242000F032F90146E8630028F3D153
:1009FC0002463221024B034800F0C0FF0C000020DD
:100A0C006C4F0008844F00082DE9F0410C46074656
:100A1C0001F060F821460646384601F05FF843695C
:100A2C000446990703F26C7809D1814A814B02FB89
:100A3C00083302F18042013AB2EBB30F33D37C4A54
:100A4C007C4B02FB08337C4AB2EB331F2CBF0125D5
:100A5C00002505EB45052D01784B1D4400F0D8FD14
:100A6C0000F0DAFD764B1B6843B3736843451CD129
:100A7C003368002B40F09D80D7E90023D6E90801AC
:100A8C00824273EB010180F2A180B06CF16C824266
:100A9C0073EB0107B4BF0127002782428B41276209
:100AAC000DDA326D0CE03025D6E7404600F0E4FC60
:100ABC000028DDD14FF0FF33236200E02362B26ADD
:100ACC004FF461665F4BD01783FB02131344C0EBEA
:100ADC00E3210B4606FB11215B4880FB01204218E9
:100AEC00C817C0EB62106268121AC0EB0010A1EBC1
:100AFC0080012068411AA0683B29A0EB0303C4E9DC
:100B0C000012A3604EDD01323C39C4E900123B2ACD
:100B1C0041DD01333C3AC4E90123172B1EDDD4E936
:100B2C0006210132062AC8BF00220131E161A2610F
:100B3C00183BD4E903210132C4E9023255F82130C3
:100B4C009A4206DDD21A0B29E26001F1010340D072
:100B5C00236100F05FFD2046BDE8F081002BF8DA40
:100B6C00D4E90621013A48BF0622A261E2680139A4
:100B7C001833013AC4E90232E161002AE9D1236950
:100B8C00013B30D423619B00EB58E36000F042FD45
:100B9C002046BDE8F081002ABFDA013B3C32C4E9B3
:100BAC000123BAE70029B2DA013A3C31C4E9001258
:100BBC00ADE7D7E90023D6E90801824273EB0101C6
:100BCC000EDBD6E9120182428B4109DA0123236242
:100BDC0067E700226369E2610133C4E90423B8E7E3
:100BEC00002323626BE70B226369591E03F26B73BC
:100BFC00C4E904219A070ED10D490E4A01FB0322C8
:100C0C0001F180410139B1EBB20F04D240F26D1207
:100C1C002C23E261B8E7074A054901FB0323064A86
:100C2C00B2EB331F2CBF0122002202F5B672EFE7A4
:100C3C00295C8FC250B81E050AD7A30018500008B3
:100C4C0018010020C5B3A29189888888024B0146FF
:100C5C00186800F0A3BB00BF0C000020024B01463B
:100C6C00186800F035BB00BF0C000020830730B5BE
:100C7C0048D0541E002A3FD00346CAB201E0013CC2
:100C8C003AD303F8012B9D07F9D1032C2DD9CDB202
:100C9C0045EA05250F2C45EA054536D9A4F1100285
:100CAC0022F00F0C03F1200EE6444FEA121C03F164
:100CBC00100242E9045542E9025510327245F8D14E
:100CCC000CF1010214F00C0F03EB021204F00F0CE8
:100CDC0013D0ACF1040323F003030433134442F8A0
:100CEC00045B9342FBD10CF003042CB1CAB21C443C
:100CFC0003F8012B9C42FBD130BD64461346002CFB
:100D0C00F4D1F9E703461446BFE71A46A446E0E7D8
:100D1C002DE9F041016804463B2982B000F2CF80F6
:100D2C0041683B2900F2B980A168172900F2A38021
:100D3C0021690B2900F28D8063699A073FD17048B5
:100D4C00704A714D00FB0326B5EBB60F71D2E36808
:100D5C004FF01D0C002B6D4837DC694E694D6A4F06
:100D6C00DFF8ACE107E001290CBF624650F8212006
:100D7C001344002B1EDC0139F5D261694A1E12F0B6
:100D8C00030F626162D106FB0252B7EBB20FC0F0E7
:100D9C00A88001F26B7106FB0151BEEB311F34BF11
:100DAC004FF01C0C4FF01D0C1F221344002B4FF066
:100DBC000B01E0DDC4E9033102B0BDE8F0814FF076
:100DCC001C0CE3685148002BC7DD00254C4F4D4EE1
:100DDC00DFF834E1DFF838810131022900EB8102C0
:100DEC0018D052F8042C9A42A3EB0203E4DA0C2933
:100DFC00C4E90331F0D1616925614A1C12F0030F7B
:100E0C0062610ED04FF01C0C00210131022900EB65
:100E1C008102E6D19C45A3EB0C03CDDAC4E9033186
:100E2C00DAE707FB0262BEEBB20F5DD24FF01D0C8E
:100E3C00EAE703F26C7300FB0323354AB2EB331F72
:100E4C0034BF4FF01C0C4FF01D0CBAE74FF01C0CCC
:100E5C00AAE70C22684600F0B7FDDDE900216369C2
:100E6C00002913446361BDBF0C3103F1FF33C4E9A6
:100E7C000413216161E71822684600F0A5FDDDE945
:100E8C000012E368002A0B44E360BDBF183203F183
:100E9C00FF33C4E90223A2604AE73C22684600F013
:100EAC0093FDDDE90023A168002B1144A160BDBFB7
:100EBC003C3301F1FF31C4E90131636035E73C2279
:100ECC00684600F081FDDDE900236168002B1144C8
:100EDC006160BDBF3C3301F1FF31C4E900312360D7
:100EEC001FE74FF01D0C5FE701F26D7207FB02620A
:100EFC00B8EB321F34BF4FF01C0C4FF01D0C83E7C6
:100F0C00295C8FC250B81E05285C8F02B84F0008B0
:100F1C000AD7A3002DE9F04F89B0054600F0DAFDA1
:100F2C004FF4616780462846FFF7F2FE6B6829692B
:100F3C00A14A2E68C3EB031306EB830602EB810276
:100F4C00EB68146BA868013B012907FB00661C4485
:100F5C006F6902DDB80700F0D18044F6206207F516
:100F6C001C5310339342EC6100F29A81462F00F32C
:100F7C00A48043D0452F00F01281452340F26D1917
:100F8C008E488F49DFF83CC2DFF83CE214E000FBEE
:100F9C00031ABCEBBA0F03F26C72C0F0EA8000FBD0
:100FAC000212BEEB321F34BF4A464FF4B772013BFC
:100FBC00BB42A4EB020408D09A07E8D040F26D12B1
:100FCC00013BBB42A4EB0204F6D1BB0740F0E78027
:100FDC007A497B4A7B4B01FB0720B3EBB00FC0F087
:100FEC00E18007F26C7001FB0022774940F26D132F
:100FFC00B1EB321F28BF4FF4B773E41A734B4FEAAF
:10100C00E679C4FB036900F003FB00F005FB704BB1
:10101C00D3F800A0BAF1000F00F08E802B6A68693B
:10102C009A460493D8F80430BAF1010F00F26C70B0
:10103C00A8BF4FF0010A834202D000F01DFA60B342
:10104C00D8F85020D8F8203000929B1A0293D8E997
:10105C00093C63EBE2730393D8E91230B3EB0C0158
:10106C00059060EBEC708E4683467645DE46069125
:10107C0079EB0E0E4FEAE2710790019160464FEA50
:10108C00EC7148DBDDF814B09B1A4FEAE27E6BEB97
:10109C000E0E9E4279EB0E033DDABAF1010F4BD1E5
:1010AC00D8F85000C31700900193009B4FF0010A31
:1010BC00F618019B49EB030944E0462340F26D19F5
:1010CC003E48DFF800C1DFF800E112E000FB03F15D
:1010DC00BCEBB10F03F26C721AD300FB02F2BEEB45
:1010EC00321F34BF4A464FF4B7720133BB4214442B
:1010FC0084D09907EAD040F26D12F6E72F4A304BB4
:10110C00304902FB0730B1EBB00F35D2013424E784
:10111C004FF4B772E9E7D8F800A0029BBAF1000FC0
:10112C0034D09E42039B79EB03033EDA049B002BE5
:10113C005BDC4FF0000A02E0D8F82800C117361823
:10114C0049EB010900F066FA224B043483FB0423BB
:10115C001A19E317C3EBA203C3EBC303E31A48BF8B
:10116C000733C5F820A0AB613046494609B0BDE84D
:10117C00F08F4FF4B7721AE707F26C7102FB013370
:10118C00114AB2EB331FFFF4E8AEBFE79E42039B5C
:10119C0079EB030320DB049B002B86D15FE040F24C
:1011AC006D132AE74FF4B77327E7069B9E42079B04
:1011BC0079EB0303BADAEEE7B84F0008295C8FC26B
:1011CC0050B81E05285C8F020AD7A300805101007D
:1011DC001801002093244992069B9E42079B79EBB1
:1011EC000303049B38DB002BA9DD4FF0000AA2EBB4
:1011FC000C022B68961949EBE2791A442A602846AE
:10120C00D5F80CB0FFF784FDEA68B2EB0B023FF4A3
:10121C0044AF012A40DD4FF0FF32EB691444D31880
:10122C0022D4BA0740D12649264A274801FB072C6D
:10123C00B0EBBC0F3ED307F26C7701FB07272349B9
:10124C0040F26D12B1EB371F28BF4FF4B7729342C7
:10125C00A8BF9B1AEB6120E7002B7FF426AF4FF061
:10126C00010AACEB0202C4E77B1E99071FD114499B
:10127C00144A154801FB0323B0EBB30F1DD307F23F
:10128C006B7701FB0722114940F26D13B1EB321F52
:10129C0038BF4FF4B673DDE7901CD8BF0122BCE712
:1012AC004FF0FF36B1465FE740F26D12CFE74FF4D7
:1012BC00B673CFE74FF4B772C9E740F26D13C9E7C5
:1012CC00295C8FC250B81E05285C8F020AD7A30078
:1012DC00002952D038B551F8043C0C1F002BB8BF74
:1012EC00E418054600F0E4FC2B4A1368002B45D0AB
:1012FC00A3420CD921686018834228D06360284629
:10130C001460BDE8384000F0D5BCA3420FD81A4693
:10131C005B68002BF9D11168501884421DD034D36E
:10132C00636054602846BDE8384000F0C3BC1168C7
:10133C005018A04215D028D8216860188342EFD1EC
:10134C0018685B680144C4E900135460EAE7186844
:10135C005B680144C4E90013D1E7236819441160A8
:10136C00E0E720680144501883421160DAD1D3E9D8
:10137C0000030144C2E90013D4E7704728466360B8
:10138C001460BDE8384000F095BC0C2328462B6057
:10139C00BDE8384000F08EBCF0000020F8B5CD1C44
:1013AC0025F0030508350C2D38BF0C25002D0646FD
:1013BC0023DBA94221D8264F00F07AFC3A6822B3ED
:1013CC00144603E063682246FBB11C4623685B1B92
:1013DC00F8D40B2B15D8636894420CBF3B60536058
:1013EC00304600F067FC04F10B00231D20F00700D1
:1013FC00C21A01D01B1AA350F8BD0C230020336075
:10140C00F8BD23601C442560EAE77968D1B1294610
:10141C00304600F01FF8431C01460CD0C41C24F0CD
:10142C000304A04205D03046611A00F013F80130D5
:10143C0001D02560D4E70C233046336000F03AFC31
:10144C000020F8BD304600F005F87860DFE700BFFB
:10145C00F0000020002238B5064D044608462A60EC
:10146C0003F056FA431C00D038BD2B68002BFBD080
:10147C00236038BD1C0100202DE9F04F83B00746D6
:10148C0000F028FB40F2B1739F4240F3AB806FF445
:10149C00F66340F26D124FF4C8784FF0640C864638
:1014AC00FB1857489B10A7F2B27402FB043480FB64
:1014BC000732FD17A7F26D71C5EBE216C5EB62158D
:1014CC0008FB16760CFB157580FB018CC917A1EB7C
:1014DC006C1121446FF4C864B6FA86F273463C1959
:1014EC00A0FB0404520902EB42021201DFF8148142
:1014FC00CEF8047001EBD414019207F003010EF145
:10150C0050071A7A4A2A23D0442A31D15A6904EB5B
:10151C00020C9A69986A08FB0C2202441A62D217D0
:10152C005A6228339F42ECD1DEF82000DEF84810D6
:10153C00DEF84C30DEF82420884272EB0303B4BF93
:10154C00012300230120CEF8003003B0BDE8F08F5A
:10155C005869021931B92DB13B28C8BF013202F1CB
:10156C00FF3CD6E7002EFAD13B28C8BF0132F6E784
:10157C0000293BD0DDF804A0234A9244DA68012A02
:10158C003BDDA4464FEA820BABF10809D144AAF12A
:10159C00040252F8040F91458444FAD1ABF1040BC8
:1015AC00DA441A4A0CF1040082FB009202EB0009A7
:1015BC00C217C2EBA902C2EBC202821A5869B0EB85
:1015CC0002091A6948BF09F10709013ADAF8000063
:1015DC00C2EBC2024A44824202DB073A8242FCDA84
:1015EC00944496E7002003B0BDE8F08F019A002DDB
:1015FC000CBF92464FF0300ABEE7A446D1E700BFBD
:10160C001F85EB518051010018500008932449921A
:10161C00704700BF704700BF014B186800F010B84E
:10162C000C00002008B5FFF7F3FF044B186800F01E
:10163C0007F8BDE80840FFF7EDBF00BF0C00002025
:10164C002DE9F04F8BB0044600F044FABA49054638
:10165C00204600F037FA0646002800F00481B74F08
:10166C00396829B100F042FF002800F0E1803968A8
:10167C000846FFF7F3FA304601F074F801462046AD
:10168C000131FFF78BFE386010B1314601F00CF8D8
:10169C003378AB4A3A2B08BF01363046A94908AB20
:1016AC0000F086FE002840F3C380089BF418F35C1E
:1016BC002D2B00F0C0804FF001092B2B08BF4C44A0
:1016CC004FF0000808AB06AF0DF1160620469E49F8
:1016DC00039301930297009605AAADF81680ADF816
:1016EC00188000F065FE404540F3A2804FF4616124
:1016FC00BDF81630C3EB0312BDF8183003EB8203B0
:10170C00BDF8142001FB023309FB03F3089AAB620A
:10171C008B4BDFF83892144403F10C0AC9F80030F3
:10172C0052462046874908AB00F042FE404540F344
:10173C00EF80089BC9F804A0E25C1C442D2A7ED0E3
:10174C004FF001082B2A08BF01344FF0000C08ABF6
:10175C002046CDE90273CDE900637B4905AAADF8BB
:10176C0014C0ADF816C0ADF818C0CDF820C000F00C
:10177C001FFE002840F385804FF46161BDF81630E0
:10178C00C3EB0312BDF8183003EB8203BDF8142031
:10179C0001FB023308FB03F3A9464FF0000A2B654B
:1017AC00089BDFF8ACB11C4494F80080B8F12C0F06
:1017BC0004BF94F801800134B8F14D0F65D0B8F135
:1017CC004A0F08BF01344FF00A02204609A918BF7E
:1017DC004FF0440801F0E0F8099BADF81E00A3425D
:1017EC0034D080B289F80880C9F814001C46002354
:1017FC000222ADF81630ADF81420ADF8183008936D
:10180C0023782F2B69D04FF4E153C9F8183009F124
:10181C002809BAF1000F16D06868FFF72DFEAA6AE6
:10182C002B6D4C489B1A18BF01234B4902600B606F
:10183C000BB0BDE8F08F4FF0FF39013440E74FF0AB
:10184C00FF38013481E74FF0010AADE7BAF1000F20
:10185C0069D04D220B2185F830200122C5E90D12EB
:10186C000022EA63C2E73B49384B3C4A334C0860E0
:10187C00394920681A605A600E60FFF7EFF926604C
:10188C00D6E7AB6AA3F5616386E708AB03930193D4
:10189C000DF11E03029307AB00935946204608AB8B
:1018AC000DF11A0200F084FD0328C1D1BDF81A30E5
:1018BC005A1E0B2ABCD8BDF81C20511E0429B7D8BF
:1018CC00BDF81E100629B3D8C9E9033289F808807F
:1018DC00C9F81410089B1C4489E708AB2046CDE9D5
:1018EC000273CDE900631E4905AA00F061FD4FF4B7
:1018FC006161BDF81630C3EB0312BDF8183003EB71
:10190C008203BDF8142001FB0233089A14447CE7CF
:10191C00D9F800300F4AA96AC9F804300E4B11608F
:10192C00C3F8008084E74D2203202A720222C5F8F6
:10193C0014A0C5E9030259E778500008F80000200C
:10194C00FC0000208050000890500008700000201F
:10195C00A450000814010020180100207C5000083D
:10196C00B850000810B50446FFF752FE2046FFF7AA
:10197C0067FEBDE81040FFF74DBE00BF144600B532
:10198C001A460A4B0D461B6885B0DE6803464CB1FF
:10199C0007490191304607490294009500F03EF842
:1019AC0001F002F904490C46F3E700BF0C000020DB
:1019BC00CC500008DC500008D850000808B513467D
:1019CC000022FFF7DBFF00BF91FBF2F3002910B4FC
:1019DC0002FB13140BDB002C03DBC0E9003410BC3E
:1019EC007047A41A0133C0E9003410BC7047002CB6
:1019FC00C4BFA41803F1FF33C0E9003410BC704716
:101A0C000CB400B583B004AB53F8042B019300F075
:101A1C008DF903B05DF804EB02B070470EB400B55D
:101A2C00074A82B003AB0146106853F8042B0193AC
:101A3C0000F07CF902B05DF804EB03B0704700BF16
:101A4C000C0000202DE9F047DFF87480064689462B
:101A5C00174601F0C3F8D8F8005055B199F800308A
:101A6C001C4673B14C4602E014F8013F3BB13D2BD0
:101A7C00FAD1304601F0B4F80020BDE8F087A4EBB1
:101A8C00090428680028F4D02246494600F098FE44
:101A9C0028B92B681A5D03EB040A3D2A04D055F8CB
:101AAC00040F0028F0D1E4E7D8F800303046ED1AE6
:101ABC00AD103D6001F094F80AF10100BDE8F0872B
:101ACC00D000002000B583B001AAFFF7BBFF03B024
:101ADC005DF804FB0048704778000020F8B5D0E9A9
:101AEC0000670023624A0C463046394602F01CFD62
:101AFC0039460546002330465D4A02F015FD002AA2
:101B0C00C0F2AC8005F52F2303F66C234FF461670C
:101B1C005848594EA0FB0210C00A07FB1022574927
:101B2C00A060A1FB0201DD1C86FB056C490961600C
:101B3C00C1EB0111A2EB8102AC442260EA17C2EBAB
:101B4C00AC02C2EBC202AA1A48BF0732002BA26138
:101B5C0079DB4B4AD91782FB0302C1EBE2314948CE
:101B6C00494A00FB013C494E4FEA9C05A2FB053259
:101B7C00A6FB05350CEBD222A2EBD512444D4FEA55
:101B8C001C13A5FB0353434DA2EB1312A5FB02350B
:101B9C009308521B05EB52023F4FA6FB0363120A3C
:101BAC00A7FB026540F26D1EDB09C3EB55134FF426
:101BBC00C87540F2F95063440EFB123305FB012546
:101BCC0003EB83010231814294BF02266FF00906B8
:101BDC003248A0FB0101C90901EBC1000E44012EE2
:101BEC008CBF2946691C00EB00102D4D0230A5FB63
:101BFC000050B3F5997F03F10105A5EB90000BD3D1
:101C0C00A3F59973E3610023A1F26C71E060C4E960
:101C1C00046120462362F8BD95070BD0214D05FBCE
:101C2C0002F2214DB5EB321F2CBF012200223B33B7
:101C3C001344E7E71B4D1D4F02FB05F5B7EBB50F42
:101C4C00ECD20122F3E70E49A3F50E32A2F52C7269
:101C5C0081FB0201D217C2EBE13180E702F5A83219
:101C6C0005F52F2302F5C07203F66B234EE700BF78
:101C7C0080510100C5B3A291932449928988888828
:101C8C00BD066B394FC5FDFF7F206B39D97CC6591A
:101C9C0041D6720061F319671F85EB51D7802BD6A3
:101CAC00CDCCCCCC295C8FC20AD7A300285C8F0288
:101CBC00704700BF704700BF9368013B002B9360D7
:101CCC0005DAD2F818C0634507DB0A2905D013687A
:101CDC00581C106008461970704700F06BBE00BFAE
:101CEC009BB1F8B5134406460F46541E5D1E01E029
:101CFC00AC4208D03A46304614F8011FFFF7DCFF1F
:101D0C00431CF5D1F8BD0020F8BD0020704700BF82
:101D1C00936810B5144613B91846536010BD01F002
:101D2C0067F90023C4E9013310BD00BF2DE9F04F62
:101D3C000E4692461C4607469FB018B18369002B8D
:101D4C0000F0A880954B9E4200F0AA80944B9E42D6
:101D5C0000F0B580934B9E4208BFFE68B38918070C
:101D6C0040F1A3803369002B00F09F8000232022D8
:101D7C000B9330239AF80010059401258A4C8DF8AA
:101D8C0031208DF8323000297DD0D1460B4604E04D
:101D9C0019F8013F002B00F09480252BF8D1B9EBFA
:101DAC000A0B40F0918099F80030002B6BD0002387
:101DBC004FF0FF3209F10109CDE90723069309938E
:101DCC008DF85B301C9304E0001B05FA00F01843FF
:101DDC000690CA460522204619F8011B01F068FB43
:101DEC00069B0028F0D1D90644BF20228DF85B2039
:101DFC001A0748BF2B229AF8001048BF8DF85B20B9
:101E0C002A2972D1059A1168043200290592C0F270
:101E1C00A08009919AF801100AF1010A2E2976D0B6
:101E2C00DFF888910322484601F042FB48B140227A
:101E3C00069BA0EB090002FA00F003430AF1010A29
:101E4C0006931AF8011B062259488DF8301001F040
:101E5C002FFB002800F08380564B002B6CD005A97B
:101E6C00009132463846544B06A9AFF300800390DC
:101E7C00039B013307D00B9B039A9AF80010134471
:101E8C000B93002981D1B3895B0615D40B981FB035
:101E9C00BDE8F08F01F08CF8404B9E427FF456AFBA
:101EAC007E68B38918073FF55DAF3146384600F0C0
:101EBC00F9FD00283FF45AAF4FF0FF30E7E7BE685A
:101ECC004CE7B9EB0A0BDED0D046CAF1010A03E0AD
:101EDC00934538D918F8011F32463846FFF7ECFE07
:101EEC0001300AEB0802F3D1CDE7A1F13002092A47
:101EFC0094D8099B1AF8011F03EB830302EB4303ED
:101F0C00A1F13002092AF5D92E29099388D19AF822
:101F1C0001102A292DD1059B0AF102001A680433FD
:101F2C00002A0593B8BF4FF0FF339AF802100792BE
:101F3C008246B8BF079373E7059B073323F007036B
:101F4C000833059397E70B9A99F800305A440B9293
:101F5C002BE7494243F00203099106935AE705A97E
:101F6C00009132463846144B06A900F0CBF803908A
:101F7C007EE70023A1F13002092A0AF1010A079336
:101F8C003FF64EAF1AF8011F03EB830302EB43033A
:101F9C00A1F13002092AF5D9079341E78C520008C8
:101FAC006C5200084C5200080C51000814510008E7
:101FBC001851000800000000ED1C00088C4600B50C
:101FCC0086461346034A714610685DF804EB624678
:101FDC00FFF7ACBE0C0000202DE9F04791461E46E1
:101FEC000A698B680C469A42B8BF1A46C9F8002099
:101FFC0091F843300546DDF8208013B10132C9F861
:10200C000020226891065DD5D9F800300233C9F85A
:10201C000030226812F0060F11461ED1E168CB1A6F
:10202C00002BD8BF114618DD002704F1190A06E071
:10203C00D9F80030E268A2EB030CBC450CDD01239F
:10204C00524631462846C047013007F10107EFD10F
:10205C004FF0FF30BDE8F087216894F84330003B27
:10206C0018BF01238A060AD53021E21882F84310E2
:10207C0094F845105A1C2244023382F8431031461E
:10208C00284604F14302C0470130E1D0236803F035
:10209C000603042B1DD0A3682269934225DD00277B
:1020AC009B1A1F4404F11A09002401E0BC421CDAFB
:1020BC0001234A4631462846C047013004F1010449
:1020CC00F4D1C5E712F0060F12D0003B18BF012364
:1020DC00D5E7D9F80030E1682269C91AA36821EA6A
:1020EC00E1779342DCDC0029DCDC0020BDE8F087E2
:1020FC00E168D9F80030CB1A002BD8BF114693DC1D
:10210C00ABE700BF2DE9F04317460A7E85B00C46BD
:10211C00064698460C9D01F1430C002A33D0A2F1DF
:10212C005803D9B2202967D8202B65D8DFE813F0E3
:10213C00DD006400640064006400640064006400FA
:10214C00640064006400A3006E006400640064001A
:10215C0064006E00640064006400640021007F0071
:10216C00BF0064006400AE0064007F006400640083
:10217C00E40023681A0640F102812B686269191D7C
:10218C0029601B681A600023E14623613B46214607
:10219C003046CDF8008003AAFFF71EFF013020D097
:1021AC004A46394630462369C047013019D0236866
:1021BC00E0689B07039919D5431A002B16DD0025FF
:1021CC0004F1190904E0E0680399431AAB420DDDF0
:1021DC0001234A4639463046C047013005F1010516
:1021EC00F1D14FF0FF3005B0BDE8F0838842B8BFA5
:1021FC00084605B0BDE8F083012384F8422004F1C1
:10220C0042092361002384F84330BFE72368190691
:10221C0002D45A0600F1BF8029680A68043129608B
:10222C001146002A6ADB0A25DFF87CE110E02368FE
:10223C00180640F19A802B68191D296019686F2ABD
:10224C000CBF08250A25DFF860E1002384F8433031
:10225C006268002AA2607DDB236823F004032360FC
:10226C00002959D1002A77D1E146082D63D0ACEB77
:10227C00090323618AE701222B6804F142091968DA
:10228C0004332B6084F842102261BBE72B680021D9
:10229C001A1D2A60D3F800906268484601F008F9CC
:1022AC0000287FD0A0EB090060602061AAE72368BA
:1022BC0043F0200323607822DFF8F0E084F8452017
:1022CC002A68111D2960190642D45D0640D5118873
:1022DC00D80744BF43F020032360002943D123686F
:1022EC00102523F020032360AFE75823DFF8B8E074
:1022FC0084F845302368E3E72368DCE72D2284F873
:10230C00432062684942002AA26002DB23F00403E6
:10231C0023600A25DFF890E0E146B1FBF5F30A46AD
:10232C0005FB131019461EF80030AA4209F8013DAE
:10233C00F3D2082D9BD12368D90798D562682369FD
:10234C009A4294DC302309F1FF3989F800308EE78A
:10235C001168BDE70029DFD19EF8003004F1420975
:10236C0084F8423081E710256FE713F0400F2B689B
:10237C0003F1040129600CBF196819885FE713F099
:10238C00400F2B68626903F1040129601B6814BFBC
:10239C001A801A60F7E62A68B2F9001004322A6033
:1023AC000A463EE7606880E7205100083451000877
:1023BC000EB44FF40172F0B59CB021AD55F8047B0E
:1023CC00ADF814200290069000F0CCF900260446DB
:1023DC004FF6FF7C0A4B0B490B933A462B46086889
:1023EC0002A901950F961496ADF816C003940794A4
:1023FC0001F01EFA1CB0BDE8F04003B0704700BFFE
:10240C008D2400080C0000200CB44FF40173F0B5BF
:10241C009DB022AD0646084655F8047BADF8143045
:10242C000291069100F09EF9002104462B4601957D
:10243C004FF6FF750F91149107493A460B913046B0
:10244C0002A9ADF816500394079401F0F1F91DB0F0
:10245C00BDE8F04002B070478D24000810B50C4662
:10246C00B1F90E1001F0FCFC002803DB636D034492
:10247C00636510BDA38923F48053A38110BD00BFF5
:10248C00002070472DE9F0410C46B1F90C101F46A5
:10249C00CB05054616460BD421F48051A1813B4651
:1024AC0032462846B4F90E10BDE8F04100F0E4BA0B
:1024BC00B4F90E100223002200F056FFB4F90C10F0
:1024CC00EAE700BF10B50C46B1F90E1000F04CFF56
:1024DC00A389421C0EBF23F4805343F480536065E0
:1024EC00A38110BDB1F90E1000F066BB80EA010C9F
:1024FC001CF0030F37D110F0030C20F0030021F077
:10250C00030150F8042B08BF51F8043B0ED08CF09B
:10251C00030C6FF07F434FEACC0C23FA0CFC51F800
:10252C00043B42EA0C0243EA0C0300BFA2F1013C5B
:10253C009A4201BF2CEA020C1CF0803F50F8042B8D
:10254C0051F8043BF2D04FEA02604FEA1222012804
:10255C0028BFB0EB036F08BF1B0AF4D003F0FF03D6
:10256C00000EC01A704710F0030F0AD010F8012BA0
:10257C0011F8013B012A28BF9A42F4D0A2EB0300C8
:10258C0070474DF8045D50F8042B01F0030521F061
:10259C00030151F8043B022D26D04DD822F07F4583
:1025AC00B5EB132FA2F1013C2CEA020C0DD11CF05F
:1025BC00803C08BF51F8043B0AD185EA0205B5EB13
:1025CC00036F0CD150F8042BE8E74FEA13235BE0C0
:1025DC003CF07F4C54D10B784FEA126554E04FEA33
:1025EC00126503F0FF034FE04FEA0245A2F1013CF4
:1025FC004FEA15452CEA020CB5EB134F18D11CF021
:10260C00803C08BF51F8043B07D185EA0205B5EBC5
:10261C00034F09D150F8042BE6E75FEA0C4C2FD19D
:10262C000B884FEA12452FE04FEA03434FEA12455D
:10263C004FEA134328E000BF02F0FF05B5EB136F20
:10264C00A2F1013C2CEA020C0DD11CF0803C08BF1D
:10265C0051F8043B0AD185EA0205B5EB032F0AD1E8
:10266C0050F8042BE8E74FEA13630DE012F0FF0F6C
:10267C0006D051F8043B4FEA122523F07F4303E0C8
:10268C004FF0000020BC704705F0FF0203F0FF0084
:10269C00012828BF904204BF2D0A1B0AF4D0A2EBDC
:1026AC00000020BC704700BF80EA0102844612F093
:1026BC00030F4FD111F0030F32D14DF8044D11F02F
:1026CC00040F51F8043B0BD0A3F101329A4312F0E2
:1026DC00803F04BF4CF8043B51F8043B16D100BFBB
:1026EC0051F8044BA3F101329A4312F0803FA4F14C
:1026FC0001320BD14CF8043BA24312F0803F04BFD3
:10270C0051F8043B4CF8044BEAD023460CF8013B3F
:10271C0013F0FF0F4FEA3323F8D15DF8044B7047E9
:10272C0011F0010F06D011F8012B0CF8012B002A27
:10273C0008BF704711F0020FBFD031F8022B12F016
:10274C00FF0F16BF2CF8022B8CF8002012F47F4FD1
:10275C00B3D1704711F8012B0CF8012B002AF9D1D9
:10276C00704700BF20F0030110F00300C0F100001F
:10277C0051F8043B00F1040C4FEACC0C6FF0000252
:10278C001CBF22FA0CF213434FF0010C4CEA0C2C38
:10279C004CEA0C4CA3EB0C0222EA030212EACC1218
:1027AC0004BF51F8043B0430F4D0C2F1000102EA3A
:1027BC000102B2FA82F2C2F11F0200EBD2007047A2
:1027CC00A2B330B540EA0104A40786460B462AD0D2
:1027DC0004780B78A3422FD1012A0CD0844654B133
:1027EC001CF8014F11F8013F9C4225D16FEA0C03F4
:1027FC001344C318F3D1002030BD1946DEF8004055
:10280C007046A4F1013323EA040C0B4653F8045B25
:10281C000EF1040EAC420BD1043AECD01CF0803F0C
:10282C00E9D170461946032AE7D8D1E7104670471C
:10283C0004780B789C42D1D0E01A30BD2DE9F047DA
:10284C0007460E464A4D304616F801CB15F80C409B
:10285C0014F00804F7D1BCF12D0FE64658D0BCF1AA
:10286C002B0F04BF96F800E0861C5BB1102B54D0E4
:10287C004FF0FF38B8FBF3F803FB08FA99466FEA00
:10288C000A0A08E0BEF1300F5AD00A234FF0050AAD
:10289C009946DFF8E0800025284607E0404515D82A
:1028AC0029D0012509FB00C016F801EBAEF1300C64
:1028BC00BCF1090F06D9AEF1410CBCF1190F08D8C7
:1028CC00AEF1370C63450DDD002DE7DA4FF0FF3527
:1028DC00EAE7AEF1610CBCF1190F03D8AEF1570C5D
:1028EC006345F1DC002D0BDB04B140420AB16DB93C
:1028FC001160BDE8F087D445D3DD4FF0FF35D3E749
:10290C0022234FF0FF303B60002AF2D0711EEFE71C
:10291C0096F800E00124861CA7E7BEF1300F21D108
:10292C00307800F0DF00582816D14FF0100996F8D7
:10293C0001E04FF00F0A6FF070484B460236AAE7E1
:10294C00337803F0DF03582BEFD008234FF0070A3E
:10295C006FF0604899469EE799466FF070484FF0CB
:10296C000F0A98E74FF00F0A6FF07048994692E7FC
:10297C00495100089999991960E700BF8C4600B538
:10298C0086461346034A714610685DF804EB6246AE
:10299C0054E700BF0C0000208C4600B58646134659
:1029AC00034A714610685DF804EB624646E700BFC7
:1029BC000C000020F8B506460D46144608B1836994
:1029CC0043B3254B9C422AD0244B9C4229D0244B08
:1029DC009C4208BFF468A269A389A2601A0722D599
:1029EC00236903B322686169D31AEDB299422F4669
:1029FC0029DD0133A1680139A160511C21601570DA
:102A0C0062699A4216D0A389DB0701D50A2D11D031
:102A1C003846F8BD00F0CCFA0F4B9C42D4D1746808
:102A2C00D9E7B468D7E72146304600F03BF838B90F
:102A3C002369D7E72146304600F058F90028E7D043
:102A4C004FF0FF37E4E72146304600F04FF90028FD
:102A5C00F6D101232268CDE78C5200086C52000895
:102A6C004C52000803460A46024908681946FFF70B
:102A7C00A1BF00BF0C00002038B50C461146002247
:102A8C008446074D20462A601A46644601F04EFFE4
:102A9C00431C00D038BD2B68002BFBD0236038BD05
:102AAC001C0100203C4B70B51D6806460C460DB150
:102ABC00AB69E3B1394B9C421FD0394B9C424DD092
:102ACC00384B9C4208BFEC68B4F90C3018079AB22A
:102ADC0019D5216911B312F001002FD000256069BE
:102AEC00A5604042A06100292ED0002070BD284670
:102AFC0000F05EFA294B9C42DFD16C68B4F90C30C3
:102B0C0018079AB2E5D4D1063ED5520728D42169CC
:102B1C0043F00803A3819AB20029DCD102F420709F
:102B2C00B0F5007FD7D02146304600F033FCB4F925
:102B3C000C3021699AB212F00100CFD1950758BF21
:102B4C006069A0600029D0D1120658BF0846CDD5C7
:102B5C0043F040034FF0FF30A38170BDAC68B3E786
:102B6C00616B51B104F14402914204D03046FEF73E
:102B7C00AFFBB4F90C30002262630022216923F010
:102B8C002403C4E90012C3E7092243F04003326076
:102B9C004FF0FF30A38170BD0C0000208C52000858
:102BAC006C5200084C520008062008B501F04AFA95
:102BBC00012001F0C3FE00BF002238B5064D0446CB
:102BCC0008462A6001F06CFE431C00D038BD2B680F
:102BDC00002BFBD0236038BD1C010020704700BFC8
:102BEC00704700BFF8B58B890C46190707463BD4D4
:102BFC006268002A55DDE66A002E50D000223D683E
:102C0C003A6013F4805250D101233846216AB04700
:102C1C00421C5CD0A389E66A5B0705D56368C01AC1
:102C2C00636B0BB1236CC01A0246216A0023384631
:102C3C00B047411C3BD13B68002B38D01D2B01D039
:102C4C00162B4BD100232269C4E90023616B3D6034
:102C5C0029B304F14403994202D03846FEF738FBFD
:102C6C00002318466363F8BD2669C6B19A0718BFDE
:102C7C000023256808BF63692660AD1BA3600CE0C8
:102C8C002B463246D4F828C03846216AE047B0F1CA
:102C9C00000CA5EB0C05664412DD002DF0DC0020C9
:102CAC00F8BD226C002AA6DCF9E7606DB4E70022BF
:102CBC00236962602360A389DB04C7D56065C5E71F
:102CCC00A3894FF0FF3043F04003A381F8BD3B686C
:102CDC00002B9FD01D2B06D0162B04D0A38943F0BC
:102CEC004003A381F8BD00203D60F8BD38B50B69E9
:102CFC00BBB10C46054608B18369B3B10D4B9C4280
:102D0C0011D00D4B9C4213D00C4B9C4208BFEC686D
:102D1C00B4F90C302BB121462846BDE83840FFF7FA
:102D2C0061BF002038BD6C68F2E700F041F9E5E7BF
:102D3C00AC68EDE78C5200086C5200084C5200084D
:102D4C0038B540B303690446E3B1174B1D680DB1A8
:102D5C00AB69CBB1154B9C420FD0154B9C4221D08B
:102D6C00144B9C4208BFEC68B4F90C3053B12146AB
:102D7C002846BDE83840FFF735BF6C68B4F90C3015
:102D8C00002BF4D1002038BD284600F011F9074B78
:102D9C009C42E2D1F1E7084B08491868BDE838407D
:102DAC0000F0BEBAAC68DFE70C0000208C520008C3
:102DBC006C5200084C520008684F0008F92C0008AF
:102DCC0000207047014900F0ABBA00BFF92C000895
:102DDC0000207047682270B54D1E02FB05F50E46AB
:102DEC0005F17401FEF7DAFA044640B100210C300B
:102DFC00C4E9016005F168022160FDF737FF204648
:102E0C0070BD00BF274B2DE9F0411E680746B36922
:102E1C0053B34FF004084836D6E90134013B04D5CE
:102E2C001EE05A1C04F168041AD0B4F90C50013B92
:102E3C00002DF6D11C4B08222946C4E90055C4E9E3
:102E4C000253C4E904556566A56104F15C00FDF705
:102E5C000DFFC4E90D55C4E912552046BDE8F081BB
:102E6C0035682DB12E46D7E7304600F01FF8D0E775
:102E7C004FF4D6713846FEF791FA044668B10560F6
:102E8C0029460546C0F804800C304FF4D072A0607F
:102E9C00FDF7ECFE34602E46BEE70C2330603B6041
:102EAC00DBE700BF684F00080100FFFF0023334A37
:102EBC002DE9F0471268C0E912339042036508BF50
:102ECC0001232F4908BF836181620546FFF79AFFF2
:102EDC00034628466B60FFF795FFA8602846002440
:102EEC00FFF790FF04236E68DFF898A0DFF8989046
:102EFC00DFF89880264FE8600822F3602146C6E987
:102F0C000044C6E904447466B460B46106F15C0024
:102F1C00FDF7ACFE1F4BC6E9086AC6E90A98376391
:102F2C00AE680822F3602146C6E90044C6E90444B1
:102F3C007466B460B46106F15C00FDF797FE164B45
:102F4C00C6E9086AC6E90A983763EE682146F36059
:102F5C000822C6E90044C6E904447466B460B4614E
:102F6C0006F15C00FDF782FE0123C6E9086AC6E99A
:102F7C000B87C6F82890AB61BDE8F087684F000856
:102F8C00D12D00086924000891240008D1240008E0
:102F9C00F12400080900010012000200024B034951
:102FAC00186800F0BDB900BF684F0008F92C000884
:102FBC00836903B97AE77047704700BF704700BF59
:102FCC00704700BF704700BF024B0349186800F000
:102FDC0087B900BF0C000020CD2D0008024B03491F
:102FEC00186800F07DB900BF0C000020DD2D000832
:102FFC009368002B00F0B7802DE9F04FB1F90C303D
:10300C000C4619078046174683B098B225D523691C
:10301C001BB310F002033D682DD04FF0000B5E4641
:10302C00DFF8B8A2002E00F08B80564533465A4686
:10303C0028BF53464046216AD4F828C0E0470028F0
:10304C0040F38780BB6883441B1A361ABB60002B85
:10305C00E8D1002003B0BDE8F08F21464046FFF7D1
:10306C0021FD002840F03681B4F90C303D6898B24F
:10307C0010F00203D1D110F0010976D14E46002E8A
:10308C005AD08205D4F808B040F1B580B3455A4601
:10309C0000F2CD8010F4906F00F0CB802368216992
:1030AC00A3EB010B636903EB430A0AEBDA7A0BF12E
:1030BC0001034FEA6A0A33445345524684BF9A4689
:1030CC005246430540F1EA8011464046FEF766F948
:1030DC00002800F0F9805A462169019000F030FA7E
:1030EC00A289019B22F4906242F08002A28103EB40
:1030FC000B0023613246AAEB0B03B346C4F814A0B1
:10310C00A3602060B24600264946019200F08EFA78
:10311C00A3682168019AA3EB0B030A44A360226005
:10312C00B868D144A0EB0A00B860002891D0B4F97B
:10313C000C0080B2002EA4D1D5E9009608359EE78C
:10314C00D5E900B608356DE721464046FFF7CEFDC0
:10315C0080B3B4F90C304FF0FF3043F04003A3813F
:10316C0003B0BDE8F08F002070471E46AA46994672
:10317C0018461D4656B3002832D04A4620682169AD
:10318C00B24228BF32468842636904D9A16803EB76
:10319C00010B5A4574DC934265DC2A464046216A91
:1031AC00D4F828C0E047B0F1000BD2DDB9EB0B0925
:1031BC00CAD00120BB685D44A3EB0B03A6EB0B0646
:1031CC00BB60002B3FF445AF002ED4D10AF10803AD
:1031DC0053F8046C9A4653F8085C0833002EF7D069
:1031EC0032460A21284600F063F9002869D00130E4
:1031FC00A0EB0509C1E72068236998421BD86369D5
:10320C00B34218D86FF0004CB44528BFB4469CFBB1
:10321C00F3FC4A4603FB0CF34046216AD4F828C061
:10322C00E047B0F1000A94DDA6EB0A0678E7B34656
:10323C003246206866E7B345DA4628BFB2464946AF
:10324C00524600F0F3F9A3682268A3EB0A03524438
:10325C00A3602260002BE7D121464046FFF746FDD4
:10326C000028E1D075E729469346019200F0DEF97B
:10327C00A368019A9B1AA36023681A44226095E7FD
:10328C0029465A4600F0D2F9236821465B44404651
:10329C002360FFF72BFD002888D05AE7404600F04A
:1032AC0041FA034600287FF422AF40462169FEF71D
:1032BC000FF80C22B4F90C30C8F8002023F080036E
:1032CC0049E7721C914659E70C22B4F90C30C8F846
:1032DC00002040E74FF0FF30BCE600BF00FCFF7F52
:1032EC002DE9F0410026884600F14807D7E9015442
:1032FC00013D0ED4A389013D012B06D9B4F90E3042
:10330C00013302D02046C04706436B1C04F168040D
:10331C00F0D13F68002FE9D13046BDE8F08100BF05
:10332C002DE9F8434FF000090746884600F148069E
:10333C00D6E90154013D10D4A389013D012B08D9D4
:10334C00B4F90E30013304D021463846C04749EA5F
:10335C0000096B1C04F16804EED13668002EE7D12D
:10336C004846BDE8F88300BF38B50C46114600222C
:10337C008446074D20462A601A46644601F0B8FA86
:10338C00431C00D038BD2B68002BFBD0236038BD0C
:10339C001C010020F0B58B890C46990797B007D516
:1033AC00012204F14703C4E90432236017B0F0BDD5
:1033BC00B4F90E10054600292DDB6A4601F084F89D
:1033CC00002827DB019E4FF4806706F47046A6F5B3
:1033DC000056B6FA86F6394628467609FDF7DEFF22
:1033EC0030B3A3891A4A43F08003AA62C4E90407E4
:1033FC00A3812060002ED9D02846B4F90E1001F01C
:10340C0077F80028D2D0A38923F0030343F00103FB
:10341C00A381CBE7A38913F0800F14BF40274FF48F
:10342C008067284639460026FDF7B8FF0028D8D11A
:10343C00B4F90C309A05B9D4012123F0030304F13B
:10344C00470243F00203C4E90421A3812260ADE7E3
:10345C00D12D000870B50C46B1F90E101646002996
:10346C001D4696B013DB6A4601F02EF800280EDBE1
:10347C0001994FF4806301F47041A1F50051B1FA48
:10348C0081F1002049092960336016B070BD00221B
:10349C00B4F90C302A601B0604D54023002033609D
:1034AC0016B070BD4FF480630020336016B070BD51
:1034BC005FFA81FC810710D00346511E2AB90AE03D
:1034CC009A0718460AD0013905D3184613F8012B70
:1034DC006245F5D1704700207047114603290CD87E
:1034EC000029F8D00346014401E08B42F3D0184682
:1034FC0013F8012B6245F8D1ECE7024610B54CEA03
:10350C000C2444EA04441046036804326340A3F1DB
:10351C00013E2EEA030313F0803F04D10439032942
:10352C001046F0D851B10346014401E08B4205D05E
:10353C00184613F8012B6245F8D110BD002010BDC0
:10354C00844641EA000313F0030349D1403A23D3E4
:10355C000B6803604B6843608B688360CB68C36007
:10356C000B6903614B6943618B698361CB69C361EF
:10357C000B6A03624B6A43628B6A8362CB6AC362D7
:10358C000B6B03634B6B43638B6B8363CB6BC363BF
:10359C0040304031403ADBD230320BD30B68036001
:1035AC004B6843608B688360CB68C360103010310C
:1035BC00103AF3D20C3205D351F8043B40F8043BDB
:1035CC00043AF9D2043208D0D2071CBF11F8013BDF
:1035DC0000F8013B01D30B8803806046704700BFA5
:1035EC00082A13D38B07B1D010F00303AED0C3F16C
:1035FC000403D21ADB071CBF11F8013B00F8013B96
:10360C00A4D331F8023B20F8023B9FE7043AD9D30C
:10361C00013A11F8013B00F8013BF9D20B78037029
:10362C004B7843708B7883706046704788420DD915
:10363C008B1883420AD900EB020CBAB1624613F81C
:10364C0001CD994202F801CDF9D170470F2A0ED85D
:10365C00034602F1FF3C4AB10CF1010C013B8C44D6
:10366C0011F8012B614503F8012FF9D1704740EA9D
:10367C0001039B074FD1A2F1100370B501F1200C8F
:10368C0023F00F0501F1100E00F11004AC441B09DE
:10369C005EF8105C0EF1100E44F8105C5EF81C5CC9
:1036AC00103444F81C5C5EF8185C44F8185C5EF846
:1036BC00145CE64544F8145CEAD1013312F00C0FAB
:1036CC0001EB031102F00F0400EB031327D08E461D
:1036DC00043C24F003064FEA940C1E441C1F5EF8B5
:1036EC00045B44F8045FB442F9D10CF1010402F01C
:1036FC00030203EB840301EB840102F1FF3C4AB1AA
:10370C000CF1010C013B8C4411F8012B614503F8C1
:10371C00012FF9D170BD034602F1FF3C9CE7224614
:10372C00EBE700BFF8B51446F9B1CAB106460D4631
:10373C0000F0F0FEA04202D32F463846F8BD2146D9
:10374C003046FDF72BFE07460028F6D022462946C8
:10375C00FFF7F6FE30462946FDF7BAFD3846F8BDB0
:10376C002746FDF7B5FD3846F8BD1146BDE8F840D3
:10377C00FDF714BE38B54B1C1AD014469389526B06
:10378C0023F02003A381CDB2AAB16268A36B9A4245
:10379C0009DA23685A1E226003F8015C636801335E
:1037AC006360284638BD214600F0CAFD0028F0D0E1
:1037BC004FF0FF35F5E7236922682BB1934203D212
:1037CC0012F8013CAB420FD060682346C4E90F20CD
:1037DC00032104F1440262630122A16303F8465FF2
:1037EC002846C4E9003238BD6368013A0133C4E9A4
:1037FC000023D6E710B50C46496B69B104F14403BC
:10380C00994201D0FDF764FD0020236C6063636076
:10381C0013B1E36B236010BD0022A389216943F02F
:10382C0020034FF0FF302160A381626010BD00BF08
:10383C002DE9F04F0026854CADF5237D1546A0945F
:10384C001278834C0DF10408CDE94466A194CDF8AF
:10385C0018810093B2B17F4E0746B35C0C4613F04F
:10386C0008034FF0030BDFF8F0912BD1252A05F15B
:10387C00010A40D015466168002908DD21680878E6
:10388C00A8420FD044980DF5237DBDE8F08F21465A
:10389C003846A19B9847002840F0018121680878A0
:1038AC00A842EFD1554663680131013B6360459BEB
:1038BC002160013345932A78002AE3D0B35C13F0DE
:1038CC000803D3D063680CE021680A780131B35C3B
:1038DC001B070ED56368459A013BC4E900130132FE
:1038EC004592002BF0DC21463846A19B98470028D6
:1038FC00EAD00135DFE74393419369782A2904D153
:10390C0010234193A97805F1020AA1F13002092A8A
:10391C000CD8002202EB820201EB4202303A4392B5
:10392C001AF8011FA1F130000928F3D903224A48E3
:10393C00FFF7BEFD48B10122A0EB090002FA00F02E
:10394C00419A0AF1010A10434190554615F8013B82
:10395C00782B00F28380DFE813F0120181008100E4
:10396C008100810081008100810081008100810043
:10397C008100810081008100810081008100810033
:10398C008100810081008100810081008100810023
:10399C008100810081008100810081008100810013
:1039AC00810081001501810081008100810081006E
:1039BC0081008100810081008100810081008100F3
:1039CC0081008100810081008100810081008100E3
:1039DC0081008100810081008100810081008100D3
:1039EC0081008100C700C700C700810081008100F1
:1039FC0081008100810081008100810081008100B3
:103A0C0081008100810081008100DB008100810048
:103A1C00E40081008100810081008100810081002F
:103A2C00F000CA00C700C700C7008100F700810082
:103A3C00810081008100FB000A010E0181008100E0
:103A4C00E2008100CA0081008100DB0081370008A0
:103A5C000138000849510008145100080A23CDF818
:103A6C001CB142936368002B4BDD419B5A0626D553
:103A7C00479B022B40F38980042B40F38D804A4BEB
:103A8C00002B3FF418AF6B462246384641A9AFF3E2
:103A9C00008001283FF4F6AE02287FF40CAF449866
:103AAC0000286CD0A38913F0400F18BF4FF0FF30E3
:103ABC00E9E621463846A19B98470028EFD12268B9
:103ACC001378F35C1B07D3D563684599013B01312F
:103ADC00002B4591636002F10102EADD226013784C
:103AEC00F35C1B07C4D5EFE705234793BAE70A221B
:103AFC0042926F2B34BF0323042347936368002B3C
:103B0C00B3DC21463846A19B98470028ADD0C6E7C8
:103B1C00419A42F40072419210224292E9E7022348
:103B2C00EBE72946404600F0B1F901234793419B4E
:103B3C00054643F04003419394E700234793419B90
:103B4C0043F0400341938DE7002342930323D4E7D2
:103B5C00419BD8063FF5AFAED907009B459A03F1C0
:103B6C00040100911B684CBF1A801A60A3E608235D
:103B7C0042930423C1E7419A42F02002C9E74FF077
:103B8C00FF3080E6AA46252575E66B462246384668
:103B9C0041A900F00BF87CE76B462246384641A958
:103BAC0000F066F875E700BF000000002DE9F8434F
:103BBC0014468A6807460D4688692AB9002814BF3E
:103BCC004FF0FF3201228A602A68D20603D41A68A9
:103BDC00111D196016684FF00009DFF8908000B3D2
:103BEC00012837D0022825D123681A7812F808202A
:103BFC0012071FD42A6809F10109D10603D41B78D6
:103C0C0006F8013B23686168AA6801390133013A5F
:103C1C00C4E90031AA606AB1002904DDA869002852
:103C2C00DED12368E6E721463846D5F8803198473F
:103C3C000028F3D02B6813F0100305D1EA68013289
:103C4C00EA60AA6902B133702B6900204B442B61E6
:103C5C00BDE8F88323686A691978525C002AC9D1D7
:103C6C00B9F1000FE6D1BDE8F88300BF4951000857
:103C7C002DE9F04F0C4687B0754F03AD80461646C4
:103C8C0097E80700DFF8CCE185E80700DFF8C8C14A
:103C9C00A2690193032A18BFE646A368CDF800E099
:103CAC005A1EB2F5AE7F40F299806FF4AE7003EB02
:103CBC00000A40F25D13A360A14659F81C2BAB46D9
:103CCC0000274D4642F45062226033680222197874
:103CDC005BF8040BFFF7ECFBA0B1012F77D0022FA0
:103CEC0000F09E80A3685A1EA2605BB133685A1C18
:103CFC0032601B7805F8013B7368013B002B736045
:103D0C0040F384800137032FDFD16168002968D02C
:103D1C00C1F11001514B6069194400F0B7F8A36868
:103D2C00002B00F09280002706E0336801333360EB
:103D3C00A368013BA360CBB1306862690178525C27
:103D4C00A2B13029226856D022F410622260037886
:103D5C0005F8013B7368013B002B7360E5DC3146D1
:103D6C004046D4F8803198470028E1D02268D1052C
:103D7C000CD54D4507D915F8011C32464046D4F8F0
:103D8C007C31013D98474D455DD0226812F0100200
:103D9C0013D12A70494663684046009EB047236899
:103DAC0001999A0601D4DB0747D40B681A1D0A60E7
:103DBC001B681860E3680133E36000202369A5EBFE
:103DCC0009052F441F44276107B0BDE8F08F6368D5
:103DDC005BB1236823F4A063236083E74FF0000AF0
:103DEC006AE70A230621636094E70823636023686B
:103DFC0043F40073EEE71105A6D50137BAF1000FB5
:103E0C00A8D00133A3600AF1FF3AA3E7314640463C
:103E1C00D4F88031984700283FF474AF0027A5E709
:103E2C00236803F4C062B2F5007F7FF46EAF43F4F5
:103E3C00807323601023636054E70B681A1D0A60BB
:103E4C001B681880B6E70120BEE71F468EE700BF4F
:103E5C00CC520008DD42000885290008B852000841
:103E6C0038B50C46114600228446074D20462A6080
:103E7C001A46644600F044FD431C00D038BD2B6844
:103E8C00002BFBD0236038BD1C010020F0B50D7851
:103E9C0004465E2D21D00022964601F1010C631ED2
:103EAC0004F1FF0103F8012F8B42FBD195B1E643DE
:103EBC008EF0010262550CF1010E1EF8013C7046A9
:103ECC002D2B10D05D2B04D013B11D46F446F1E719
:103EDC006046F0BD0CF1FF30F0BD01224D789646E6
:103EEC0001F1020CDBE79CF801005D28EDD0854266
:103EFC00EBDC6F1C0CF1020CE31903F8012BF1182D
:103F0C008842FADC431B013B8542A8BF00230EF11B
:103F1C00020EDD19D1E700BF38B5446C0CB100209E
:103F2C0038BD80210546FDF739FA0246686430B188
:103F3C00031F7C3243F8044F9342FBD1EFE74FF061
:103F4C00FF3038BD1F29F8B5054608D8466C0C461D
:103F5C0017464EB156F8240046F82470F8BD1623C7
:103F6C004FF0FF302B60F8BD8021FDF717FA0646A5
:103F7C00686440B10021031F00F17C0543F8041F65
:103F8C009D42FBD1E6E74FF0FF30F8BD1F2938B555
:103F9C00054620D8426C0C466AB152F8213053B118
:103FAC00012B16D0591C10D00025204642F8245065
:103FBC009847284638BD284600F0F8F822460146B6
:103FCC002846BDE8384000F0DDB8162301202B60F0
:103FDC0038BD002038BD16234FF0FF302B6038BDA4
:103FEC001F292BD8426C38B50C46054682B152F8C5
:103FFC00243002EB84024BB1591C1AD0012B16D081
:10400C000025204615609847284638BD012038BD4C
:10401C008021FDF7C3F90246686460B10020131FCC
:10402C0002F17C0143F8040F9942FBD1DFE7032036
:10403C0038BD022038BD4FF0FF3038BD4FF0FF3097
:10404C00704700BF38B5144B1F281D681FD86A6C09
:10405C00044662B152F820304BB1012B15D0591CDB
:10406C000FD0002542F820509847284638BD2846E6
:10407C0000F09CF8224601462846BDE8384000F086
:10408C0081B8162301202B6038BD002038BD1623C3
:10409C004FF0FF302B6038BD0C000020124B1F2856
:1040AC0070B51E6808D80D46716C044649B151F8BC
:1040BC00240041F8245070BD16234FF0FF303360BC
:1040CC0070BD80213046FDF769F90146706440B13E
:1040DC000022031F00F17C0C43F8042F6345FBD135
:1040EC00E5E74FF0FF3070BD0C00002038B50B4BEE
:1040FC001D686C6C0CB1002038BD80212846FDF782
:10410C004DF9686438B1031F00F17C0243F8044F89
:10411C009342FBD1EFE74FF0FF3038BD0C0000208D
:10412C0038B5174B1F281D6827D86A6C044682B116
:10413C0052F8243002EB84024BB1591C1BD0012BDA
:10414C0017D00025204615609847284638BD012019
:10415C0038BD80212846FDF721F90246686460B11C
:10416C000020131F02F17C0143F8040F8B42FBD19A
:10417C00DEE7032038BD022038BD4FF0FF3038BDDC
:10418C000C00002070B50026074D04460846114669
:10419C002E6000F0A5FB431C00D070BD2B68002BDB
:1041AC00FBD0236070BD00BF1C01002000F088BB59
:1041BC002DE9F04F81468E46444D70461EF801CBDA
:1041CC0015F80C4014F00804F7D1BCF12D0FE346A0
:1041DC0053D06FF00048BCF12B0F04BF9EF800B019
:1041EC0000F1020E1BB1102B4FD01F4604E0BBF1A7
:1041FC00300F55D00A231F460025B8FBF7F628468A
:10420C0007FB168A07E0864215D329D0012507FB48
:10421C0000C01EF801BBABF1300CBCF1090F06D984
:10422C00ABF1410CBCF1190F08D8ABF1370C63455D
:10423C000DDD002DE7DA4FF0FF35EAE7ABF1610C4D
:10424C00BCF1190F03D8ABF1570C6345F1DC002D11
:10425C000BDB04B140420AB195BB1160BDE8F08F95
:10426C00E245D3DA4FF0FF35D3E72223C9F800300B
:10427C001AB340460EF1FF31EFE79EF800B04FF055
:10428C000048012400F1020EACE7BBF1300FACD1B9
:10429C009EF8000000F0DF00582807D01F46ABE75F
:1042AC009EF8003003F0DF03582B0BD110279EF83B
:1042BC0001B03B460EF1020E9EE74046BDE8F08F82
:1042CC008046D6E708231F4696E700BF49510008F1
:1042DC00012B02D0242B00D86AE710B500F0EEF8C1
:1042EC0016230360002010BD012A10B509D0242A22
:1042FC0007D8074C13460A4601462068BDE8104013
:10430C0056E700F0DBF816230360002010BD00BF59
:10431C000C000020012A10B509D0242A07D8074C1C
:10432C0013460A4601462068BDE8104040E700F0FD
:10433C00C5F816230360002010BD00BF0C00002040
:10434C002DE9F0410C46496B04F14403994214D019
:10435C00A66B77003A46FFF7E5F9054648B300EB44
:10436C000608014632464046FFF7EAF80020C4E949
:10437C000D57C4F80080BDE8F0814FF48061FDF763
:10438C000DF80346A8B14FF4806594F846106063AD
:10439C00A56383F8FF1394F8451000F2FD3283F8FF
:1043AC00FE1394F84410002083F8FD132260BDE83E
:1043BC00F0814FF0FF30DEE770B54C1C6AD00E4632
:1043CC000546144610B18369002B2FD0334B9C4209
:1043DC0031D0334B9C4230D0324B9C4208BFEC68FE
:1043EC00B4F90C3023F020035807A3819AB206D4F9
:1043FC00D1064FD512073BD443F00403A381636B62
:10440C00F6B2E3B16268A36B9A4205DB21462846FB
:10441C00FFF796FF00283DD123685A1E226003F84F
:10442C00016C636801336360304670BDFEF7C0FDFC
:10443C001A4B9C42CDD16C68D2E7AC68D0E72369AB
:10444C0022682BB1934203D212F8013CB3421BD029
:10445C0060682346C4E90F20032104F1440262631F
:10446C000122A16303F8466F3046C4E9003270BDE7
:10447C0021462846FEF73AFC60B9B4F90C30A0602E
:10448C0023F00803A061B7E76368013A0133C4E97C
:10449C000023C9E74FF0FF36C6E700BF8C52000877
:1044AC006C5200084C52000803460A460249086840
:1044BC001946FFF781BF00BF0C000020014B1868A4
:1044CC00704700BF0C00002070B50026074D044655
:1044DC00084611462E6000F0EBF9431C00D070BD6D
:1044EC002B68002BFBD0236070BD00BF1C0100208B
:1044FC00002238B5064D044608462A6000F0E8F95B
:10450C00431C00D038BD2B68002BFBD0236038BD7A
:10451C001C01002051F8040C0028A0F10400BCBFC1
:10452C000B58C018704700BF7BB972B90029BEBFC9
:10453C0000204FF0004106E008BF00281CBF6FF0C0
:10454C0000414FF0FF3000F0A9B9ADF1080C6DE956
:10455C0004CE002909DB002B1ADB00F035F8DDF85E
:10456C0004E0DDE9022304B07047404261EB4101F5
:10457C00002B1BDB00F028F8DDF804E0DDE902235A
:10458C0004B0404261EB4101524263EB430370477C
:10459C00524263EB430300F017F8DDF804E0DDE969
:1045AC00022304B0404261EB41017047524263EB7D
:1045BC00430300F009F8DDF804E0DDE9022304B060
:1045CC00524263EB430370472DE9F047089E0D46BA
:1045DC0004468846002B4DD18A42944668D9B2FADB
:1045EC0082F252B101FA02F3C2F1200120FA01F178
:1045FC000CFA02FC41EA030894404FEA1C41B8FB58
:10460C00F1F71FFA8CFE01FB178807FB0EF0230C49
:10461C0043EA084398420AD91CEB030307F1FF3520
:10462C0080F01E81984240F21B81023F63441B1AAA
:10463C00B3FBF1F001FB103300FB0EFEA4B244EA15
:10464C000344A6450AD91CEB040400F1FF3380F0A7
:10465C000981A64540F20681644402380021A4EB8E
:10466C000E0440EA07401EB10023D440C6E90043C3
:10467C00BDE8F0878B4208D9002E00F0EE800021B7
:10468C00C6E900050846BDE8F087B3FA83F10029B6
:10469C004AD1AB4202D3824200F2FC80841A65EB11
:1046AC00030301209846002EE2D0C6E90048DFE75C
:1046BC0002B9FFDEB2FA82F2002A40F09180A1EB3F
:1046CC000C0001214FEA1C471FFA8CFEB0FBF7F3DC
:1046DC0007FB1300250C45EA00450EFB03F0A8422E
:1046EC0008D91CEB050503F1FF3802D2A84200F2F1
:1046FC00CE8043462D1AB5FBF7F007FB10550EFB89
:10470C0000FEA4B244EA0544A64508D91CEB0404F7
:10471C0000F1FF3502D2A64500F2B6802846A4EB84
:10472C000E0440EA03409EE7C1F120078B4022FAB9
:10473C0007FC4CEA030C25FA07FA4FEA1C49BAFBB2
:10474C00F9F820FA07F309FB18AA8D401FFA8CFE22
:10475C001D4300FA01F308FB0EF02C0C44EA0A444A
:10476C00A04202FA01F20BD91CEB040408F1FF3A47
:10477C0080F08880A04240F28580A8F10208644451
:10478C00241AB4FBF9F009FB104400FB0EFEADB289
:10479C0045EA0444A64508D91CEB040400F1FF3596
:1047AC006CD2A6456AD90238644440EA0840A0FBA2
:1047BC000295A4EB0E04AC42C846AE4656D353D079
:1047CC00002E69D0B3EB080264EB0E0422FA01F35D
:1047DC0004FA07F71F43CC40C6E90074002147E7F1
:1047EC000CFA02FCC2F1200125FA01F34FEA1C4736
:1047FC0020FA01F195400D43B3FBF7F107FB1133A0
:10480C001FFA8CFE280C40EA034001FB0EF3834296
:10481C0004FA02F408D91CEB000001F1FF382FD286
:10482C0083422DD902396044C01AB0FBF7F307FB61
:10483C001300ADB245EA004503FB0EF0A84208D9BF
:10484C001CEB050503F1FF3816D2A84214D9023B24
:10485C006544281A43EA014138E73146304607E7F8
:10486C002F46E4E61846F9E64B45A9D2B9EB020807
:10487C0065EB0C0E0138A3E74346EAE7284694E7BC
:10488C004146D1E7D0467BE76444023847E7023B18
:10489C0065442FE7084606E73146E9E6704700BF56
:1048AC005822024B4FF0FF301A6070471C01002059
:1048BC005822024B4FF0FF301A6070471C01002049
:1048CC005822024B4FF0FF301A6070471C01002039
:1048DC005822024B00201A60704700BF1C010020B8
:1048EC005822024B4FF0FF301A6070471C01002019
:1048FC005822024B4FF0FF301A6070471C01002009
:10490C005822024B4FF0FF301A6070471C010020F8
:10491C00044A05491368002B08BF0B461844106065
:10492C001846704724010020280100205822024B11
:10493C004FF0FF301A6070471C010020FEE700BFEB
:10494C00446174653A585858582D58582D58580089
:10495C0054696D653A58583A58583A585800434E6D
:10496C0054203A00444956203A0000000000000050
:10497C0000000000000000000000000000F8000033
:10498C000000000000333000000000100C06100C7A
:10499C000600000000000000000040C07840C07815
:1049AC004000043F04043F040400007088FC0830FD
:1049BC000000001820FF211E0000F008F000E01895
:1049CC00000000211C031E211E0000F0088870004E
:1049DC0000001E2123241927211010160E000000A0
:1049EC0000000000000000000000000000E01804BF
:1049FC000200000000071820400000020418E0002C
:104A0C0000000040201807000000404080F080406B
:104A1C0040000202010F01020200000000F0000041
:104A2C0000000101011F0101010000000000000055
:104A3C00000080B0700000000000000000000000CA
:104A4C000000000101010101010100000000000053
:104A5C00000000303000000000000000000080600A
:104A6C001804006018060100000000E0100808108F
:104A7C00E000000F102020100F00001010F80000B4
:104A8C0000000020203F202000000070080808884B
:104A9C00700000302824222130000030088888481B
:104AAC0030000018202020110E000000C02010F84B
:104ABC00000000070424243F240000F8088888081C
:104ACC0008000019212020110E0000E01088881821
:104ADC000000000F112020110E0000380808C83803
:104AEC0008000000003F00000000007088080888E3
:104AFC007000001C222121221C0000E0100808106C
:104B0C00E0000000312222110F00000000C0C000A4
:104B1C0000000000003030000000000000800000A9
:104B2C0000000000806000000000000080402010A9
:104B3C0008000001020408102000404040404040A2
:104B4C004000040404040404040000081020408005
:104B5C00000000201008040201000070480808083A
:104B6C00F0000000003036010000C030C828E8100A
:104B7C00E0000718272423140B000000C038E000C5
:104B8C000000203C23020227382008F8888888700F
:104B9C000000203F202020110E00C030080808081B
:104BAC003800071820202010080008F80808081002
:104BBC00E000203F202020100F0008F88888E8082B
:104BCC001000203F20202320180008F88888E808CF
:104BDC001000203F200003000000C03008080838F7
:104BEC00000007182020221E020008F80800000808
:104BFC00F808203F210101213F20000808F808088F
:104C0C0000000020203F2020000000000808F808C9
:104C1C000800C08080807F00000008F888C0281839
:104C2C000800203F20012638200008F8080000006A
:104C3C000000203F20202020300008F8F800F8F871
:104C4C000800203F003F003F200008F830C000085B
:104C5C00F808203F200007183F00E0100808081053
:104C6C00E0000F10202020100F0008F8080808089A
:104C7C00F000203F210101010000E010080808109D
:104C8C00E0000F18242438504F0008F888888888D2
:104C9C007000203F2000030C3020007088080808AA
:104CAC0038000038202121221C00180808F80808B8
:104CBC0018000000203F2000000008F80800000841
:104CCC00F808001F202020201F000878880000C84A
:104CDC003808000007380E010000F80800F800083A
:104CEC00F800033C0700073C030008186880806844
:104CFC00180820302C03032C30200838C800C83882
:104D0C0008000000203F2000000010080808C838E8
:104D1C0008002038262120201800000000FE020286
:104D2C0002000000007F40404000000C30C000003A
:104D3C000000000000010638C00000020202FE0064
:104D4C000000004040407F0000000000040202020E
:104D5C000400000000000000000000000000000043
:104D6C00000080808080808080800002020400002F
:104D7C000000000000000000000000008080808027
:104D8C0000000019242222223F2008F80080800015
:104D9C000000003F112020110E00000000808080D8
:104DAC000000000E112020201100000000808088DF
:104DBC00F800000E112020103F2000008080808021
:104DCC000000001F222222221300008080F088881D
:104DDC0088180020203F2020000000008080808068
:104DEC008000006B94949493600008F8008080809D
:104DFC000000203F210000203F20008098980000F8
:104E0C0000000020203F2020000000000080989827
:104E1C00000000C08080807F000008F800008080C7
:104E2C008000203F24022D302000000808F80000EC
:104E3C0000000020203F20200000808080808080A7
:104E4C008000203F20003F20003F80800080808039
:104E5C000000203F210000203F2000008080808047
:104E6C000000001F202020201F0080800080800078
:104E7C00000080FFA12020110E0000000080808027
:104E8C008000000E112020A0FF8080808000808098
:104E9C00800020203F2120000100000080808080C5
:104EAC0080000033242424241900008080E08080BA
:104EBC0000000000001F2020000080800000008007
:104ECC008000001F202020103F2080808000008068
:104EDC00808000010E300806010080800080008078
:104EEC0080800F300C030C300F000080800080801D
:104EFC0080000020312E0E31200080808000008048
:104F0C00808080818E7018060100008080808080F7
:104F1C0080000021302C2221300000000000807C19
:104F2C00020200000000003F404000000000FF00B3
:104F3C00000000000000FF0000000002027C800066
:104F4C0000000040403F000000000006010102028A
:104F5C00040400000000000000000000100000200D
:104F6C005245454E54206D616C6C6F6320737563B4
:104F7C0063656564656400002E2E2F2E2E2F2E2E59
:104F8C002F2E2E2F2E2E2F2E2E2F2E2E2F2E2E2F2F
:104F9C006E65776C69622F6C6962632F74696D65DD
:104FAC002F6C636C74696D652E6300001F0000002C
:104FBC001C0000001F0000001E0000001F0000006D
:104FCC001E0000001F0000001F0000001E0000005B
:104FDC001F0000001E0000001F0000000000000069
:104FEC001F0000003B0000005A0000007800000089
:104FFC0097000000B5000000D4000000F300000092
:10500C0011010000300100004E0100001F000000E3
:10501C001C0000001F0000001E0000001F0000000C
:10502C001E0000001F0000001F0000001E000000FA
:10503C001F0000001E0000001F0000001F000000E9
:10504C001D0000001F0000001E0000001F000000DB
:10505C001E0000001F0000001F0000001E000000CA
:10506C001F0000001E0000001F000000545A00002A
:10507C00474D54002531305B5E302D392C2B2D5D86
:10508C00256E0000256875256E3A256875256E3AE3
:10509C00256875256E0000004D256875256E2E253A
:1050AC006875256E2E256875256E00002F25687590
:1050BC00256E3A256875256E3A256875256E0000B3
:1050CC002C2066756E6374696F6E3A2000000000C8
:1050DC00617373657274696F6E202225732220666A
:1050EC0061696C65643A2066696C652022257322BF
:1050FC002C206C696E65202564257325730A0000CD
:10510C00232D302B20000000686C4C006566674531
:10511C004647000030313233343536373839414266
:10512C0043444546000000003031323334353637C5
:10513C00383961626364656600000000002020203D
:10514C00202020202020282828282820202020202B
:10515C0020202020202020202020202020881010FB
:10516C001010101010101010101010101004040457
:10517C000404040404040410101010101010414115
:10518C004141414101010101010101010101010103
:10519C000101010101010101101010101010424217
:1051AC0042424242020202020202020202020202D3
:1051BC000202020202020202101010102000000073
:1051CC0000000000000000000000000000000000D3
:1051DC0000000000000000000000000000000000C3
:1051EC0000000000000000000000000000000000B3
:1051FC0000000000000000000000000000000000A3
:10520C000000000000000000000000000000000092
:10521C000000000000000000000000000000000082
:10522C000000000000000000000000000000000072
:10523C000000000000000000000000000000000062
:10524C000000000000000000000000000000000052
:10525C000000000000000000000000000000000042
:10526C000000000000000000000000000000000032
:10527C000000000000000000000000000000000022
:10528C000000000000000000000000000000000012
:10529C000000000000000000000000000000000002
:1052AC002B2D00003030000078580000412D466155
:1052BC002D66383930313233343536375D000000E5
:1052CC00AC520008B0520008B4520008F8B500BF48
:1052DC00F8BC08BC9E467047F8B500BFF8BC08BCCB
:0452EC009E46704723
:0852F000E4F2FF7F0100000061
:0452F8007501000834
:0452FC004D01000858
:10530000E7070100010017003B00370010000020F4
:10531000000000008C5200086C5200084C5200083B
:10532000000000000000000000000000000000007D
:10533000000000000000000000000000000000006D
:10534000000000000000000000000000000000005D
:10535000000000000000000000000000000000004D
:10536000000000000000000000000000000000003D
:105370007C5000087C500008010000000000000084
:105380004A000000000000000000000000000000D3
:10539000000000000000000000000000000000000D
:1053A00000000000000000004A00000000000000B3
:1053B00000000000000000000000000000000000ED
:1053C00000000000000000000000000000000000DD
:0453D0002001002098
:040000050800099155
:00000001FF
