:020000040800F2
:1000000000500020E50B0008290C0008290C00080E
:10001000290C0008290C0008290C00080000000029
:10002000000000000000000000000000290C000893
:10003000290C000800000000290C0008290C000809
:10004000290C0008290C0008290C0008290C0008BC
:10005000290C0008290C0008290C0008290C0008AC
:10006000290C0008290C0008290C0008290C00089C
:10007000290C0008290C0008290C0008290C00088C
:10008000290C0008290C0008290C0008290C00087C
:10009000290C0008290C0008290C0008290C00086C
:1000A000290C0008290C0008290C0008290C00085C
:1000B000290C0008290C0008290C0008290C00084C
:1000C000290C0008290C0008290C0008290C00083C
:1000D000290C0008290C0008290C0008290C00082C
:1000E000290C0008290C0008290C00080000000059
:1000F0000000000000000000000000000000000000
:0C01000000000000000000005FF808F1A3
:10010C000348044B834202D0034B03B1184770479A
:10011C0000000020000000200000000005480649F7
:10012C000B1AD90F01EBA301491002D0034B03B1F9
:10013C00184770470000002000000020000000005D
:10014C0010B5064C237843B9FFF7DAFF044B13B113
:10015C000448AFF300800123237010BD0000002081
:10016C00000000000C01000808B5044B1BB1044949
:10017C000448AFF30080BDE80840CFE70000000062
:10018C00040000200C010008374B82B01A6842F0C2
:10019C0001021A605968354A0A405A601A6822F0FE
:1001AC00847222F480321A601A6822F480221A6057
:1001BC005A6822F4FE025A604FF41F029A60002221
:1001CC00009201921A6842F480321A601A6802F4A2
:1001DC0000320192009A01320092019A1AB9009AE7
:1001EC00B2F5A06FF2D11A6812F4003218BF0122D6
:1001FC000192019A012A30D11D4A116841F0100177
:10020C001160116821F003011160116841F00201C5
:10021C0011605A685A605A685A605A6842F480628F
:10022C005A605A6822F47C125A605A6842F4E812F6
:10023C005A601A6842F080721A601A689201FCD5F2
:10024C005A6822F003025A605A6842F002025A605D
:10025C005A6802F00C02082AFAD14FF00062054BE2
:10026C009A6002B0704700BF001002400000FFF817
:10027C000020024000ED00E02DE9F041CB780F8822
:10028C00DA0648BF8A7803F00F0548BF15430A7891
:10029C00D2B100214FF0010C4FF00F0E02680CFA96
:1002AC0001F636EA07040BD18C000EFA04F822EAA8
:1002BC00080205FA04F4282B42EA040225D146610F
:1002CC0001310829EBD10260FF2F1CD900214FF01E
:1002DC00010C4FF00F0E426801F108040CFA04F403
:1002EC0034EA07060BD18E000EFA06F822EA080251
:1002FC0005FA06F6282B42EA06020AD144610131BE
:10030C000829E9D14260BDE8F081482B08BF06619D
:10031C00D6E7482B08BF0461F1E78368194214BF84
:10032C0001200020704701617047416170470AB19C
:10033C000161704741617047044B9A6911B11043D8
:10034C009861704722EA0000FAE700BF00100240F3
:10035C00044BDA6911B11043D861704722EA0000EE
:10036C00FAE700BF00100240224A038890429BB279
:10037C0012D002F5006290420ED0B0F1804F0BD03B
:10038C00A2F59832904207D002F58062904203D0D9
:10039C0002F58062904203D14A8823F07003134324
:1003AC00154A904208D002F5806290421FBF23F498
:1003BC004073CA889BB2134303808B8883850B8858
:1003CC0003850C4B98420FD003F5006398420BD079
:1003DC0003F54063984207D003F58063984203D03D
:1003EC0003F58063984201D10B7A03860123838243
:1003FC00704700BF002C014000100040038C70B50A
:10040C0023F480731B041B0C0384038C8288848B61
:10041C000D8824F073042404240C4E882C4323F4FC
:10042C0000730D891B0435431B0C43EA0523114D46
:10043C0092B2A8429BB203D005F50065A84213D135
:10044C004D8923F4006343EA05234FF6FF351D4025
:10045C008B88CE8945EA03238D8922F4405235439B
:10046C0042EA05129BB292B28280CA888483828748
:10047C00038470BD002C01400023038043808380E3
:10048C00C380038143818381C3817047038821B179
:10049C009BB243F001030380704723F001031B045C
:1004AC001B0CF8E7038923F007031B041B0C0381C7
:1004BC0070478187704700000121F8B52D4F084621
:1004CC00B7F900402C4A002CB8BF644200F0E0F9A8
:1004DC00042307210120B7F9002000F00CFA0121B8
:1004EC000220264A00F0D4F9B7F90030A4B2002B50
:1004FC002FDD234A14250521022000F0C9F9012122
:10050C000320204A00F0C4F9B4FBF5F506210320C2
:10051C001D4A00F0BDF90026EDB2F1B28D4201D9B1
:10052C000A2E1AD101210420184A00F0B1F9032334
:10053C0062080521042000F0BBF9252208210420C3
:10054C0000F072F9BDE8F8400A210420104A00F0CE
:10055C009FB914BF0F4A104ACCE7B7F900300631E7
:10056C00002BCCBF3E223C220320C9B200F05CF928
:10057C000136D2E7240000202A0C0008310C0008B8
:10058C00360C00084C0C0008520C00085D0C0008DE
:10059C00620C00083D0C0008440C000880B500F00B
:1005AC00D8F900F06FFA00F0D3FA3C23244C254F15
:1005BC00238000F026F9FFF77FFF234E234D00F038
:1005CC00DDFA0128387021D1238814331BB2C82BD3
:1005DC00C8BF00232380FFF76FFFB4F9000000F0C1
:1005EC0089FAB4F90000B0B900F068FA2B6801334D
:1005FC00B3F5FA7F2B6005D300F0ABF9FFF75CFF86
:10060C0000232B600A2000F032F8D8E70228E4D14E
:10061C0023885B42DEE74FF4FA620028B8BF404201
:10062C000A3080B2B2FBF0F0338801339BB28342C4
:10063C003380DBD300F04CFA00233380D6E700BFC5
:10064C00240000201C0000201E00002020000020A0
:10065C004823002258434FF0E02358619A61052249
:10066C001A611A69D203FCD504221A61704701463B
:10067C0008B501B908BD4FF47A70FFF7E9FF0139ED
:10068C00F7E7000073B501210820FFF755FE4FF482
:10069C00807641F203434FF400750D4C01A92046BE
:1006AC00ADF80630ADF80460FFF7E6FD204601A971
:1006BC00ADF80450FFF7E0FD314620460122FFF76C
:1006CC0036FE012229462046FFF731FE02B070BDEE
:1006DC00000C014010B50D4C012220464FF4007166
:1006EC00FFF725FE204601224FF48071FFF71FFE15
:1006FC00204600224FF40071FFF719FE2046BDE89A
:10070C00104000224FF48071FFF711BE000C014025
:10071C0010B50A4C002220464FF40071FFF707FE7B
:10072C00204601224FF48071FFF701FE2046BDE800
:10073C00104001224FF40071FFF7F9BD000C01408D
:10074C0070B505460024802646FA04F32B4214BFEC
:10075C00012200224FF400710F48FFF7E8FD01223F
:10076C004FF480710C48FFF7E2FD013400224FF486
:10077C0080710948FFF7DBFD082CE5D101224FF40D
:10078C0080710548FFF7D3FDBDE8704000224FF49F
:10079C0080710148FFF7CBBD000C014010B5044639
:1007AC00FFF798FF7820FFF7CBFF0020FFF7C8FF7B
:1007BC002046FFF7C5FFBDE81040FFF7A9BF10B5F5
:1007CC000446FFF787FF7820FFF7BAFF4020FFF7BA
:1007DC00B7FF2046FFF7B4FFBDE81040FFF798BF06
:1007EC0010B50C4640F0B000FFF7D8FF200940F0E0
:1007FC001000FFF7D3FF04F00F00BDE81040FFF727
:10080C00CDBF38B500250021E8B2FFF7E9FF802401
:10081C000020013CFFF7D3FF14F0FF04F8D10135A1
:10082C00082DF0D138BD00002DE9F84317464FF0E4
:10083C000809441E4D1E6400ED00E4B2EDB22946D9
:10084C002046FFF7CDFF114E07F18053203B06EBFE
:10085C000318203F18F8010B09F1FF39FFF7AFFF20
:10086C0019F0FF09F6D1601C2946C0B2FFF7B8FF9A
:10087C00082406EB0716083616F8010B013CFFF7A7
:10088C009EFF14F0FF04F7D1BDE8F883700C00084C
:10089C00F8B506460F46154600242A5D02B9F8BD88
:1008AC00E1193046C9B20134FFF7BEFFE4B2F4E7F8
:1008BC002DE9F84307460D4690464FF00A095E1E97
:1008CC00731C15D1BDE8F88309FB04F4013BFBD282
:1008DC00B8FBF4F4B4FBF9F209FB124430342946AA
:1008EC003846E2B20135FFF79FFFEDB2013EE7E774
:1008FC0033460124EAE72DE9F041171E06460D4662
:10090C0098460BDB2B22FFF78FFF08F1FF34454491
:10091C004FF00A08631C06D1BDE8F0812D22FFF7C9
:10092C0083FF7F42F1E723460122291BC9B2013B19
:10093C000CD2B7FBF2F2B2FBF8F308FB1322303205
:10094C003046D2B2FFF770FF013CE3E708FB02F23E
:10095C00EDE708B5FFF796FEAE20FFF71FFFD52099
:10096C00FFF71CFF8020FFF719FFA820FFF716FFE9
:10097C003F20FFF713FFD320FFF710FF0020FFF7F6
:10098C000DFF4020FFF70AFFA120FFF707FFC8204B
:10099C00FFF704FFDA20FFF701FF1220FFF7FEFE3E
:1009AC008120FFF7FBFECF20FFF7F8FED920FFF7E1
:1009BC00F5FEF120FFF7F2FEDB20FFF7EFFE302013
:1009CC00FFF7ECFEA420FFF7E9FEA620FFF7E6FEFA
:1009DC008D20FFF7E3FE1420FFF7E0FEAF20FFF7BA
:1009EC00DDFEBDE80840FFF70CBF0000012130B56B
:1009FC00084689B0FFF7ACFC01210420FFF79CFCF2
:100A0C000423ADF8003041F6030369461948ADF8EC
:100A1C000230FFF731FC4FF08040FFF743FD6323BA
:100A2C000024ADF80830232301A94FF08040ADF825
:100A3C000430ADF80A40ADF806408DF80C40FFF7D5
:100A4C0093FC04A8FFF718FD0125602304A94FF0BF
:100A5C008040ADF81030ADF81840ADF81250ADF83C
:100A6C001640FFF7CBFC29464FF08040FFF70EFDF8
:100A7C0009B030BD0008014001464FF08040FFF73F
:100A8C0018BD000013B501210420FFF755FC3123DC
:100A9C00ADF8043041F20303074C01A92046ADF830
:100AAC000630FFF7E9FB01212046FFF73EFCFFF77C
:100ABC009DFF02B010BD00BF00080140012110B124
:100ACC000248FFF730BC0148FFF72FBC000801407B
:100ADC00064B01211A780648002A0CBF012200227D
:100AEC001A7001D1FFF71FBCFFF71FBC26000020B6
:100AFC000008014010B5041E4FF010010ED100F19A
:100B0C00804000F58430FFF710FC10482021FFF7DF
:100B1C000CFC2046BDE81040FFF7AEBF0B4808DDCB
:100B2C00FFF701FC09482021FFF7FFFBC4F34F003E
:100B3C00F0E7FFF7FAFB04EBD47404482021FFF72D
:100B4C00F2FB6010404280B2E4E700BF00080140B5
:100B5C0007B501210820FFF7EFFB0623ADF80430A1
:100B6C0044F60303044801A9ADF80630FFF784FBF3
:100B7C0003B05DF804FB00BF000C014010B502216E
:100B8C001448FFF7CAFB70B91420FFF770FD114C25
:100B9C0002212046FFF7C1FB0028F9D01420FFF7F3
:100BAC0066FD012010BD04210A48FFF7B6FB70B9A1
:100BBC001420FFF75CFD074C04212046FFF7ADFB2A
:100BCC000028F9D01420FFF752FD0220EAE700209C
:100BDC00E8E700BF000C0140002103E00A4B5B5822
:100BEC004350043109480A4B42189A42F6D3094A39
:100BFC0002E0002342F8043B074B9A42F9D3FFF77B
:100C0C00C3FAFFF7CBFC70477812000800000020F5
:100C1C00000000200000002028000020FEE7537098
:100C2C006565643A004469723A00465744203E3E7A
:100C3C00003C3C205245560053544F50202020007D
:100C4C004261723A200020202020202020202020E9
:100C5C000050574D3A00204B313A2B20204B323A62
:100C6C004449520000000000000000000000000099
:100C7C0000000000000000F800000000000000333D
:100C8C003000000000100C06100C060000000000E4
:100C9C000000000040C07840C0784000043F0404CD
:100CAC003F040400007088FC08300000001820FF8E
:100CBC00211E0000F008F000E018000000211C03C9
:100CCC001E211E0000F00888700000001E21232445
:100CDC001927211010160E00000000000000000063
:100CEC0000000000000000E01804020000000007F3
:100CFC001820400000020418E000000000402018FA
:100D0C0007000000404080F0804040000202010FCC
:100D1C0001020200000000F0000000000101011FB0
:100D2C0001010100000000000000000080B0700014
:100D3C0000000000000000000000000000010101A4
:100D4C000101010100000000000000000030300033
:100D5C00000000000000000080601804006018060D
:100D6C000100000000E010080810E000000F102047
:100D7C0020100F00001010F8000000000020203F91
:100D8C00202000000070080808887000003028241B
:100D9C0022213000003008888848300000182020BC
:100DAC0020110E000000C02010F8000000070424E1
:100DBC00243F240000F80888880808000019212026
:100DCC0020110E0000E0108888180000000F112080
:100DDC0020110E0000380808C83808000000003F39
:100DEC00000000000070880808887000001C222198
:100DFC0021221C0000E010080810E0000000312245
:100E0C0022110F00000000C0C000000000000030E4
:100E1C003000000000000080000000000000806036
:100E2C0000000000000080402010080000010204B7
:100E3C00081020004040404040404000040404049E
:100E4C00040404000008102040800000002010085A
:100E5C0004020100007048080808F000000000308F
:100E6C0036010000C030C828E810E000071827241D
:100E7C0023140B000000C038E0000000203C2302CB
:100E8C000227382008F8888888700000203F20202E
:100E9C0020110E00C0300808080838000718202060
:100EAC002010080008F808080810E000203F202057
:100EBC0020100F0008F88888E8081000203F202038
:100ECC002320180008F88888E8081000203F20002C
:100EDC0003000000C0300808083800000718202064
:100EEC00221E020008F808000008F808203F210123
:100EFC0001213F20000808F8080800000020203FCE
:100F0C002020000000000808F8080800C08080803D
:100F1C007F00000008F888C028180800203F200136
:100F2C002638200008F8080000000000203F202090
:100F3C002020300008F8F800F8F80800203F003FA7
:100F4C00003F200008F830C00008F808203F2000BF
:100F5C0007183F00E01008080810E0000F102020D0
:100F6C0020100F0008F808080808F000203F2101A5
:100F7C0001010000E01008080810E0000F182424FC
:100F8C0038504F0008F8888888887000203F20006F
:100F9C00030C302000708808080838000038202125
:100FAC0021221C00180808F8080818000000203F2F
:100FBC002000000008F808000008F808001F202096
:100FCC0020201F000878880000C838080000073867
:100FDC000E010000F80800F80008F800033C0700B8
:100FEC00073C0300081868808068180820302C0320
:100FFC00032C30200838C800C83808000000203FF7
:10100C002000000010080808C838080020382621E5
:10101C0020201800000000FE020202000000007FE9
:10102C0040404000000C30C00000000000000001F7
:10103C000638C00000020202FE00000000404040E2
:10104C007F00000000000402020204000000000007
:10105C000000000000000000000000008080808084
:10106C00808080800002020400000000000000006C
:10107C000000000000008080808000000019242205
:10108C0022223F2008F8008080000000003F112041
:10109C0020110E000000008080800000000E112046
:1010AC0020201100000000808088F800000E112024
:1010BC0020103F200000808080800000001F222232
:1010CC0022221300008080F0888888180020203F9E
:1010DC00202000000000808080808000006B9494B1
:1010EC009493600008F8008080800000203F21006D
:1010FC0000203F2000809898000000000020203F36
:10110C0020200000000000809898000000C0808023
:10111C00807F000008F8000080808000203F2402BF
:10112C002D302000000808F8000000000020203FAF
:10113C00202000008080808080808000203F200064
:10114C003F20003F8080008080800000203F2100F5
:10115C0000203F200000808080800000001F2020A5
:10116C0020201F00808000808000000080FFA120D4
:10117C0020110E000000008080808000000E1120E5
:10118C0020A0FF80808080008080800020203F2174
:10119C002000010000008080808080000033242427
:1011AC0024241900008080E0808000000000001FD3
:1011BC00202000008080000000808000001F202084
:1011CC0020103F20808080000080808000010E3045
:1011DC000806010080800080008080800F300C03A6
:1011EC000C300F0000808000808080000020312EA9
:1011FC000E312000808080000080808080818E7085
:10120C001806010000808080808080000021302C36
:10121C002221300000000000807C0202000000004F
:10122C00003F404000000000FF00000000000000F4
:10123C00FF0000000002027C800000000040403FE4
:10124C00000000000006010102020404000000007E
:10125C0000000000F8B500BFF8BC08BC9E46704703
:0C126C00F8B500BFF8BC08BC9E467047F7
:0412780075010008F4
:04127C004D01000818
:0400000508000BE5FF
:00000001FF
