:020000040800F2
:1000000000500020290800086D0800086D0800084D
:100010006D0800086D0800086D0800080000000069
:100020000000000000000000000000006D08000853
:100030006D080008000000006D0800086D08000849
:100040006D0800086D0800086D0800086D080008BC
:100050006D0800086D0800086D0800086D080008AC
:100060006D0800086D0800086D0800086D0800089C
:100070006D0800086D0800086D0800086D0800088C
:100080006D0800086D0800086D0800086D0800087C
:100090006D0800086D0800086D0800086D0800086C
:1000A0006D0800086D0800086D0800086D0800085C
:1000B0006D0800086D0800086D0800086D0800084C
:1000C0006D0800086D0800086D0800086D0800083C
:1000D0006D0800086D0800086D0800086D0800082C
:1000E0006D0800086D0800086D0800080000000099
:1000F0000000000000000000000000000000000000
:0C01000000000000000000005FF808F1A3
:10010C000348044B834202D0034B03B1184770479A
:10011C0000000020000000200000000005480649F7
:10012C000B1AD90F01EBA301491002D0034B03B1F9
:10013C00184770470000002000000020000000005D
:10014C0010B5064C237843B9FFF7DAFF044B13B113
:10015C000448AFF300800123237010BD0000002081
:10016C00000000000C01000808B5044B1BB1044949
:10017C000448AFF30080BDE80840CFE70000000062
:10018C00040000200C010008374B82B01A6842F0C2
:10019C0001021A605968354A0A405A601A6822F0FE
:1001AC00847222F480321A601A6822F480221A6057
:1001BC005A6822F4FE025A604FF41F029A60002221
:1001CC00009201921A6842F480321A601A6802F4A2
:1001DC0000320192009A01320092019A1AB9009AE7
:1001EC00B2F5A06FF2D11A6812F4003218BF0122D6
:1001FC000192019A012A30D11D4A116841F0100177
:10020C001160116821F003011160116841F00201C5
:10021C0011605A685A605A685A605A6842F480628F
:10022C005A605A6822F47C125A605A6842F4E812F6
:10023C005A601A6842F080721A601A689201FCD5F2
:10024C005A6822F003025A605A6842F002025A605D
:10025C005A6802F00C02082AFAD14FF00062054BE2
:10026C009A6002B0704700BF001002400000FFF817
:10027C000020024000ED00E02DE9F041CB780F8822
:10028C00DA0648BF8A7803F00F0548BF15430A7891
:10029C00D2B100214FF0010C4FF00F0E02680CFA96
:1002AC0001F636EA07040BD18C000EFA04F822EAA8
:1002BC00080205FA04F4282B42EA040225D146610F
:1002CC0001310829EBD10260FF2F1CD900214FF01E
:1002DC00010C4FF00F0E426801F108040CFA04F403
:1002EC0034EA07060BD18E000EFA06F822EA080251
:1002FC0005FA06F6282B42EA06020AD144610131BE
:10030C000829E9D14260BDE8F081482B08BF06619D
:10031C00D6E7482B08BF0461F1E78368194214BF84
:10032C000120002070470AB101617047416170479C
:10033C00014B1860704700BF00300040014B586003
:10034C00704700BF00300040014B9860704700BF01
:10035C00003000404AF6AA22014B1A60704700BFD9
:10036C00003000404CF6CC42014B1A60704700BF85
:10037C0000300040044B9A6911B1104398617047EA
:10038C0022EA0000FAE700BF001002404209012AED
:10039C00074B07D11B6800F01F0023FA00F000F098
:1003AC0001007047022A0CBF1B6A5B6AF3E700BFAF
:1003BC0000100240024A536A43F080735362704744
:1003CC000010024008B500F097F900F0E1F90121A6
:1003DC002A4A084600F080F97D20FFF7D7FF012854
:1003EC00044638D10146264A022000F075F94FF434
:1003FC00FA7000F060F821460220224A00F06CF9F5
:10040C00642000F058F8FFF7D5FF45F25550FFF780
:10041C008FFF0220FFF792FF40F6C310FFF794FF07
:10042C00FFF798FFFFF79EFF174C00F0C7F9FFF797
:10043C0091FF22460121042000F04EF9C82000F063
:10044C003AF801210420114A00F046F94FF41670D5
:10045C0000F031F8E9E701210D4A032000F03CF9E6
:10046C004FF4FA7000F027F801210320094A00F03C
:10047C0033F9642000F01FF8C7E700BF6E080008CE
:10048C00780800088008000888080008830800081D
:10049C007C080008840800084823002258434FF0C9
:1004AC00E02358619A6105221A611A69D203FCD5BE
:1004BC0004221A617047014608B501B908BD4FF412
:1004CC007A70FFF7E9FF0139F7E7000073B50121F6
:1004DC000820FFF74FFF4FF4807641F203434FF4AF
:1004EC0000750D4C01A92046ADF80630ADF804603E
:1004FC00FFF7C2FE204601A9ADF80450FFF7BCFE81
:10050C00314620460122FFF70EFF012229462046E4
:10051C00FFF709FF02B070BD000C014010B50D4C87
:10052C00012220464FF40071FFF7FDFE2046012208
:10053C004FF48071FFF7F7FE204600224FF4007154
:10054C00FFF7F1FE2046BDE8104000224FF4807109
:10055C00FFF7E9BE000C014010B50A4C0022204602
:10056C004FF40071FFF7DFFE204601224FF480713B
:10057C00FFF7D9FE2046BDE8104001224FF4007170
:10058C00FFF7D1BE000C014070B505460024802653
:10059C0046FA04F32B4214BF012200224FF40071DF
:1005AC000F48FFF7C0FE01224FF480710C48FFF793
:1005BC00BAFE013400224FF480710948FFF7B3FEF4
:1005CC00082CE5D101224FF480710548FFF7ABFEF2
:1005DC00BDE8704000224FF480710148FFF7A3BEC4
:1005EC00000C014010B50446FFF798FF7820FFF788
:1005FC00CBFF0020FFF7C8FF2046FFF7C5FFBDE883
:10060C001040FFF7A9BF10B50446FFF787FF78200D
:10061C00FFF7BAFF4020FFF7B7FF2046FFF7B4FF04
:10062C00BDE81040FFF798BF10B50C4640F0B00085
:10063C00FFF7D8FF200940F01000FFF7D3FF04F0BC
:10064C000F00BDE81040FFF7CDBF38B500250021E5
:10065C00E8B2FFF7E9FF80240020013CFFF7D3FF4D
:10066C0014F0FF04F8D10135082DF0D138BD00008D
:10067C002DE9F84317464FF00809441E4D1E64003F
:10068C00ED00E4B2EDB229462046FFF7CDFF114E46
:10069C0007F18053203B06EB0318203F18F8010BA1
:1006AC0009F1FF39FFF7AFFF19F0FF09F6D1601C14
:1006BC002946C0B2FFF7B8FF082406EB0716083628
:1006CC0016F8010B013CFFF79EFF14F0FF04F7D165
:1006DC00BDE8F8838D080008F8B506460F461546A8
:1006EC0000242A5D02B9F8BDE1193046C9B20134C3
:1006FC00FFF7BEFFE4B2F4E708B5FFF7E7FEAE2064
:10070C00FFF770FFD520FFF76DFF8020FFF76AFF22
:10071C00A820FFF767FF3F20FFF764FFD320FFF708
:10072C0061FF0020FFF75EFF4020FFF75BFFA12079
:10073C00FFF758FFC820FFF755FFDA20FFF752FFED
:10074C001220FFF74FFF8120FFF74CFFCF20FFF760
:10075C0049FFD920FFF746FFF120FFF743FFDB20CD
:10076C00FFF740FF3020FFF73DFFA420FFF73AFFD3
:10077C00A620FFF737FF8D20FFF734FF1420FFF77B
:10078C0031FFAF20FFF72EFFBDE80840FFF75DBF3C
:10079C0007B501210820FFF7EDFD40F60203ADF887
:1007AC00043044F60303044801A9ADF80630FFF702
:1007BC0063FD03B05DF804FB000C014010B5022191
:1007CC001548FFF7AAFD20BB1420FFF774FE124C4E
:1007DC0002212046FFF7A1FD0028F9D01420FFF7D5
:1007EC006AFE01244FF400610B48FFF796FD70B9C7
:1007FC001420FFF760FE084C4FF400612046FFF711
:10080C008CFD0028F8D01420FFF755FE022420465A
:10081C0010BD0024E6E700BF000C0140002103E0FE
:10082C000A4B5B584350043109480A4B42189A4210
:10083C00F6D3094A02E0002342F8043B074B9A42E4
:10084C00F9D3FFF7A1FCFFF7BDFD7047A00E000820
:10085C000000002000000020000000201C000020F0
:10086C00FEE74957444720544553540049574447E1
:10087C00525354002020202020202000464545447F
:10088C00000000000000000000000000000000005C
:10089C0000000000F80000000000000033300000F1
:1008AC000000100C06100C060000000000000000F8
:1008BC000040C07840C0784000043F04043F04046A
:1008CC0000007088FC08300000001820FF211E007A
:1008DC0000F008F000E018000000211C031E211E8F
:1008EC000000F00888700000001E21232419272125
:1008FC001010160E000000000000000000000000A8
:10090C0000000000E018040200000000071820405E
:10091C000000020418E0000000004020180700004E
:10092C0000404080F0804040000202010F010202B2
:10093C0000000000F0000000000101011F01010196
:10094C0000000000000000000080B07000000000FB
:10095C000000000000000000000001010101010185
:10096C00010000000000000000003030000000001A
:10097C0000000000008060180400601806010000F0
:10098C000000E010080810E000000F102020100FED
:10099C0000001010F8000000000020203F20200074
:1009AC0000007008080888700000302824222130CC
:1009BC000000300888884830000018202020110ED4
:1009CC00000000C02010F8000000070424243F247D
:1009DC000000F80888880808000019212020110E52
:1009EC000000E0108888180000000F112020110E64
:1009FC000000380808C83808000000003F0000005C
:100A0C00000070880808887000001C222121221C1C
:100A1C000000E010080810E0000000312222110F45
:100A2C0000000000C0C000000000000030300000DA
:100A3C00000000008000000000000080600000004A
:100A4C000000008040201008000001020408102063
:100A5C0000404040404040400004040404040404AE
:100A6C000000081020408000000020100804020143
:100A7C0000007048080808F0000000003036010043
:100A8C0000C030C828E810E0000718272423140BF6
:100A9C00000000C038E0000000203C230202273890
:100AAC002008F8888888700000203F202020110E34
:100ABC0000C030080808083800071820202010084B
:100ACC000008F808080810E000203F202020100F34
:100ADC000008F88888E8081000203F202023201800
:100AEC000008F88888E8081000203F200003000068
:100AFC0000C03008080838000007182020221E0209
:100B0C000008F808000008F808203F210101213FE7
:100B1C0020000808F8080800000020203F202000D2
:100B2C000000000808F8080800C08080807F0000E2
:100B3C000008F888C028180800203F20012638201B
:100B4C000008F8080000000000203F202020203082
:100B5C000008F8F800F8F80800203F003F003F209C
:100B6C000008F830C00008F808203F200007183FA4
:100B7C0000E01008080810E0000F10202020100FD3
:100B8C000008F808080808F000203F2101010100C6
:100B9C0000E01008080810E0000F18242438504F0B
:100BAC000008F8888888887000203F2000030C30EB
:100BBC002000708808080838000038202121221CE9
:100BCC0000180808F8080818000000203F20000052
:100BDC000008F808000008F808001F202020201F3B
:100BEC00000878880000C83808000007380E01009B
:100BFC0000F80800F80008F800033C0700073C0365
:100C0C0000081868808068180820302C03032C30EA
:100C1C00200838C800C83808000000203F20000019
:100C2C000010080808C83808002038262120201891
:100C3C0000000000FE020202000000007F40404065
:100C4C0000000C30C000000000000000010638C09D
:100C5C000000020202FE000000004040407F000045
:100C6C00000000040202020400000000000000006A
:100C7C0000000000000000000080808080808080E8
:100C8C0080000202040000000000000000000000D0
:100C9C000000008080808000000019242222223F66
:100CAC002008F8008080000000003F112020110E69
:100CBC00000000008080800000000E112020201118
:100CCC0000000000808088F800000E112020103FEA
:100CDC00200000808080800000001F22222222132E
:100CEC0000008080F0888888180020203F20200099
:100CFC00000000808080808000006B94949493604E
:100D0C000008F8008080800000203F210000203F78
:100D1C002000809898000000000020203F20200038
:100D2C0000000000809898000000C08080807F0048
:100D3C000008F8000080808000203F24022D302025
:100D4C0000000808F8000000000020203F202000D0
:100D5C00008080808080808000203F20003F200029
:100D6C003F8080008080800000203F210000203FD9
:100D7C00200000808080800000001F202020201F89
:100D8C0000808000808000000080FFA12020110ED8
:100D9C00000000008080808000000E112020A0FF49
:100DAC0080808080008080800020203F21200001F6
:100DBC0000000080808080800000332424242419CB
:100DCC0000008080E0808000000000001F202000D8
:100DDC00008080000000808000001F202020103F39
:100DEC0020808080000080808000010E3008060189
:100DFC000080800080008080800F300C030C300F4E
:100E0C000000808000808080000020312E0E312078
:100E1C0000808080000080808080818E70180601A8
:100E2C000000808080808080000021302C222130C6
:100E3C000000000000807C020200000000003F4027
:100E4C004000000000FF00000000000000FF000058
:100E5C00000002027C800000000040403F000000C7
:100E6C000000060101020204040000000000000062
:100E7C0000000000F8B500BFF8BC08BC9E467047E7
:0C0E8C00F8B500BFF8BC08BC9E467047DB
:040E980075010008D8
:040E9C004D010008FC
:0400000508000829BE
:00000001FF
