:020000040800F2
:10000000005000200D09000851090008510900089E
:1000100051090008510900085109000800000000BA
:10002000000000000000000000000000510900086E
:10003000510900080000000051090008510900089A
:100040005109000851090008510900085109000828
:100050005109000851090008510900085109000818
:100060005109000851090008510900085109000808
:1000700051090008510900085109000851090008F8
:1000800051090008510900085109000851090008E8
:1000900051090008510900085109000851090008D8
:1000A00051090008510900085109000851090008C8
:1000B00029050008510900085109000851090008E4
:1000C00051090008510900085109000851090008A8
:1000D0005109000851090008510900085109000898
:1000E00051090008510900085109000800000000EA
:1000F0000000000000000000000000000000000000
:0C01000000000000000000005FF808F1A3
:10010C000348044B834202D0034B03B1184770479A
:10011C0000000020000000200000000005480649F7
:10012C000B1AD90F01EBA301491002D0034B03B1F9
:10013C00184770470000002000000020000000005D
:10014C0010B5064C237843B9FFF7DAFF044B13B113
:10015C000448AFF300800123237010BD0000002081
:10016C00000000000C01000808B5044B1BB1044949
:10017C000448AFF30080BDE80840CFE70000000062
:10018C00040000200C010008374B82B01A6842F0C2
:10019C0001021A605968354A0A405A601A6822F0FE
:1001AC00847222F480321A601A6822F480221A6057
:1001BC005A6822F4FE025A604FF41F029A60002221
:1001CC00009201921A6842F480321A601A6802F4A2
:1001DC0000320192009A01320092019A1AB9009AE7
:1001EC00B2F5A06FF2D11A6812F4003218BF0122D6
:1001FC000192019A012A30D11D4A116841F0100177
:10020C001160116821F003011160116841F00201C5
:10021C0011605A685A605A685A605A6842F480628F
:10022C005A605A6822F47C125A605A6842F4E812F6
:10023C005A601A6842F080721A601A689201FCD5F2
:10024C005A6822F003025A605A6842F002025A605D
:10025C005A6802F00C02082AFAD14FF00062054BE2
:10026C009A6002B0704700BF001002400000FFF817
:10027C000020024000ED00E0034B40F0BF6040F472
:10028C000030D860704700BF00ED00E070B501256C
:10029C00017801F01F039D40C3784C09C3B10F4B8B
:1002AC00DA684378D243C2F30222C2F1040603FA9D
:1002BC0006F683780F2020FA02F213403343084AE3
:1002CC001B01DBB2114481F8003342F8245070BD9D
:1002DC00034B203443F82450F9E700BF00ED00E055
:1002EC0000E100E02DE9F041CB780F88DA0648BF39
:1002FC008A7803F00F0548BF15430A78D2B1002164
:10030C004FF0010C4FF00F0E02680CFA01F636EAB2
:10031C0007040BD18C000EFA04F822EA080205FA45
:10032C0004F4282B42EA040225D146610131082944
:10033C00EBD10260FF2F1CD900214FF0010C4FF0C4
:10034C000F0E426801F108040CFA04F434EA0706B3
:10035C000BD18E000EFA06F822EA080205FA06F610
:10036C00282B42EA06020AD1446101310829E9D15D
:10037C004260BDE8F081482B08BF0661D6E7482BE8
:10038C0008BF0461F1E70AB1016170474161704730
:10039C00044B9A6911B110439861704722EA00002E
:1003AC00FAE700BF00100240044BDA6911B11043A8
:1003BC00D861704722EA0000FAE700BF0010024043
:1003CC00224A038890429BB212D002F500629042FE
:1003DC000ED0B0F1804F0BD0A2F59832904207D0DE
:1003EC0002F58062904203D002F58062904203D104
:1003FC004A8823F070031343154A904208D002F543
:10040C00806290421FBF23F44073CA889BB213438F
:10041C0003808B8883850B8803850C4B98420FD007
:10042C0003F5006398420BD003F54063984207D064
:10043C0003F58063984203D003F58063984201D1A1
:10044C000B7A038601238382704700BF002C014086
:10045C0000100040038821B19BB243F001030380DC
:10046C00704723F001031B041B0CF8E783899BB234
:10047C0012B119438181704723EA0101FAE710B5E3
:10048C0004890A43E4B242EA03221443A4B204816D
:10049C0010BD10B5FFF7F3FF03899BB243F4804303
:1004AC00038110BD808C80B27047C94389B2018230
:1004BC007047038A828911EA030092B203D00A4280
:1004CC0014BF012000207047C94389B201827047D4
:1004DC0008B500F072F900F0BDF901210C4A08468C
:1004EC0000F038F9012102200A4A00F033F90A4CD5
:1004FC00052322881946012000F03CF900F0FCF994
:10050C00052302461946022000F034F9F0E700BF3B
:10051C0052090008570900081C00002001214FF067
:10052C00804008B5FFF7C5FF0128014609D1054AEF
:10053C004FF08040138801331380BDE80840FFF76B
:10054C00C3BF08BD1C00002073B501210820FFF7B4
:10055C001FFF4FF4807641F203434FF400750D4CAE
:10056C0001A92046ADF80630ADF80460FFF7BAFEDD
:10057C00204601A9ADF80450FFF7B4FE31462046E1
:10058C000122FFF700FF012229462046FFF7FBFE60
:10059C0002B070BD000C014010B50D4C012220467C
:1005AC004FF40071FFF7EFFE204601224FF48071EB
:1005BC00FFF7E9FE204600224FF40071FFF7E3FE3F
:1005CC002046BDE8104000224FF48071FFF7DBBEDF
:1005DC00000C014010B50A4C002220464FF400716B
:1005EC00FFF7D1FE204601224FF48071FFF7CBFEBE
:1005FC002046BDE8104001224FF40071FFF7C3BE46
:10060C00000C014070B505460024802646FA04F320
:10061C002B4214BF012200224FF400710F48FFF748
:10062C00B2FE01224FF480710C48FFF7ACFE01348E
:10063C0000224FF480710948FFF7A5FE082CE5D184
:10064C0001224FF480710548FFF79DFEBDE8704014
:10065C0000224FF480710148FFF795BE000C014059
:10066C0010B50446FFF798FF7820FFF7CBFF00206A
:10067C00FFF7C8FF2046FFF7C5FFBDE81040FFF7A6
:10068C00A9BF10B50446FFF787FF7820FFF7BAFF24
:10069C004020FFF7B7FF2046FFF7B4FFBDE810403E
:1006AC00FFF798BF10B50C4640F0B000FFF7D8FF2D
:1006BC00200940F01000FFF7D3FF04F00F00BDE855
:1006CC001040FFF7CDBF38B500250021E8B2FFF789
:1006DC00E9FF80240020013CFFF7D3FF14F0FF0456
:1006EC00F8D10135082DF0D138BD00002DE9F843C3
:1006FC0017464FF00809441E4D1E6400ED00E4B28D
:10070C00EDB229462046FFF7CDFF114E07F180537D
:10071C00203B06EB0318203F18F8010B09F1FF39B9
:10072C00FFF7AFFF19F0FF09F6D1601C2946C0B2E4
:10073C00FFF7B8FF082406EB0716083616F8010B6E
:10074C00013CFFF79EFF14F0FF04F7D1BDE8F883DE
:10075C005C090008F8B506460F46154600242A5DCC
:10076C0002B9F8BDE1193046C9B20134FFF7BEFF3A
:10077C00E4B2F4E72DE9F84307460D4690464FF0F6
:10078C000A095E1E731C15D1BDE8F88309FB04F43D
:10079C00013BFBD2B8FBF4F4B4FBF9F209FB1244B5
:1007AC00303429463846E2B20135FFF79FFFEDB2EF
:1007BC00013EE7E733460124EAE708B5FFF7C4FE3C
:1007CC00AE20FFF74DFFD520FFF74AFF8020FFF743
:1007DC0047FFA820FFF744FF3F20FFF741FFD3203E
:1007EC00FFF73EFF0020FFF73BFF4020FFF738FFED
:1007FC00A120FFF735FFC820FFF732FFDA20FFF703
:10080C002FFF1220FFF72CFF8120FFF729FFCF20AD
:10081C00FFF726FFD920FFF723FFF120FFF720FF7A
:10082C00DB20FFF71DFF3020FFF71AFFA420FFF796
:10083C0017FFA620FFF714FF8D20FFF711FF1420E0
:10084C00FFF70EFFAF20FFF70BFFBDE80840FFF7E7
:10085C003ABF0000012110B5084686B0FFF7A4FD91
:10086C0001210420FFF794FD012444F6030301A9A0
:10087C002048ADF80630ADF80440FFF733FD0022F8
:10088C000F2311464FF08040FFF703FE002309228F
:10089C0003A94FF08040ADF81230ADF80E30ADF832
:1008AC000C308DF81430ADF81020FFF789FD21467F
:1008BC004FF08040FFF7F9FD224621464FF0804073
:1008CC00FFF7D4FD4FF4A060FFF7D6FC1C238DF886
:1008DC000830022302A88DF809308DF80B408DF8F2
:1008EC000A40FFF7D3FC21464FF08040FFF7B2FDE2
:1008FC0006B010BD000801404FF08040FFF7D2BD9C
:10090C00002103E00A4B5B584350043109480A4B61
:10091C0042189A42F6D3094A02E0002342F8043BFB
:10092C00074B9A42F9D3FFF72FFCFFF7D1FD704725
:10093C00640F0008000000200000002000000020D0
:10094C0020000020FEE74E756D3A00434E543A00ED
:10095C00000000000000000000000000000000008B
:10096C00000000F800000000000000333000000020
:10097C0000100C06100C0600000000000000000027
:10098C0040C07840C0784000043F04043F04040099
:10099C00007088FC08300000001820FF211E0000A9
:1009AC00F008F000E018000000211C031E211E00BE
:1009BC0000F00888700000001E2123241927211044
:1009CC0010160E00000000000000000000000000E7
:1009DC00000000E01804020000000007182040008E
:1009EC0000020418E000000000402018070000007E
:1009FC00404080F0804040000202010F01020200E2
:100A0C00000000F0000000000101011F01010100C5
:100A1C00000000000000000080B07000000000002A
:100A2C0000000000000000000001010101010101B3
:100A3C00000000000000000000303000000000004A
:100A4C00000000008060180400601806010000001F
:100A5C0000E010080810E000000F102020100F001C
:100A6C00001010F8000000000020203F20200000A3
:100A7C0000700808088870000030282422213000FB
:100A8C0000300888884830000018202020110E0003
:100A9C000000C02010F8000000070424243F2400AC
:100AAC0000F80888880808000019212020110E0081
:100ABC0000E0108888180000000F112020110E0093
:100ACC0000380808C83808000000003F000000008B
:100ADC000070880808887000001C222121221C004C
:100AEC0000E010080810E0000000312222110F0075
:100AFC00000000C0C000000000000030300000000A
:100B0C000000008000000000000080600000000079
:100B1C000000804020100800000102040810200092
:100B2C0040404040404040000404040404040400DD
:100B3C000008102040800000002010080402010072
:100B4C00007048080808F000000000303601000072
:100B5C00C030C828E810E0000718272423140B0025
:100B6C000000C038E0000000203C2302022738209F
:100B7C0008F8888888700000203F202020110E0083
:100B8C00C03008080808380007182020201008007A
:100B9C0008F808080810E000203F202020100F0063
:100BAC0008F88888E8081000203F2020232018002F
:100BBC0008F88888E8081000203F20000300000097
:100BCC00C03008080838000007182020221E020038
:100BDC0008F808000008F808203F210101213F20F7
:100BEC00000808F8080800000020203F2020000022
:100BFC0000000808F8080800C08080807F00000012
:100C0C0008F888C028180800203F2001263820004A
:100C1C0008F8080000000000203F202020203000B1
:100C2C0008F8F800F8F80800203F003F003F2000CB
:100C3C0008F830C00008F808203F200007183F00D3
:100C4C00E01008080810E0000F10202020100F0002
:100C5C0008F808080808F000203F210101010000F5
:100C6C00E01008080810E0000F18242438504F003A
:100C7C0008F8888888887000203F2000030C3020FA
:100C8C0000708808080838000038202121221C0038
:100C9C00180808F8080818000000203F2000000081
:100CAC0008F808000008F808001F202020201F006A
:100CBC000878880000C83808000007380E010000CA
:100CCC00F80800F80008F800033C0700073C030094
:100CDC00081868808068180820302C03032C3020FA
:100CEC000838C800C83808000000203F2000000069
:100CFC0010080808C83808002038262120201800C1
:100D0C00000000FE020202000000007F4040400094
:100D1C00000C30C000000000000000010638C000CC
:100D2C0000020202FE000000004040407F00000074
:100D3C000000040202020400000000000000000099
:100D4C000000000000000000808080808080808097
:100D5C00000202040000000000000000000000007F
:100D6C0000008080808000000019242222223F2075
:100D7C0008F8008080000000003F112020110E00B8
:100D8C000000008080800000000E11202020110047
:100D9C00000000808088F800000E112020103F20F9
:100DAC000000808080800000001F2222222213007D
:100DBC00008080F0888888180020203F20200000C8
:100DCC000000808080808000006B9494949360007D
:100DDC0008F8008080800000203F210000203F2088
:100DEC0000809898000000000020203F2020000088
:100DFC00000000809898000000C08080807F000078
:100E0C0008F8000080808000203F24022D30200054
:100E1C00000808F8000000000020203F20200000FF
:100E2C008080808080808000203F20003F20003F19
:100E3C008080008080800000203F210000203F2027
:100E4C000000808080800000001F202020201F00D8
:100E5C00808000808000000080FFA12020110E0007
:100E6C000000008080808000000E112020A0FF80F8
:100E7C00808080008080800020203F2120000100A5
:100E8C0000008080808080000033242424241900FA
:100E9C00008080E0808000000000001F2020000007
:100EAC008080000000808000001F202020103F2048
:100EBC00808080000080808000010E3008060100D8
:100ECC0080800080008080800F300C030C300F007D
:100EDC0000808000808080000020312E0E312000A8
:100EEC00808080000080808080818E7018060100D8
:100EFC0000808080808080000021302C22213000F6
:100F0C0000000000807C020200000000003F404016
:100F1C0000000000FF00000000000000FF000000C7
:100F2C000002027C800000000040403F00000000F6
:100F3C000006010102020404000000000000000091
:100F4C00F8B500BFF8BC08BC9E467047F8B500BFAA
:080F5C00F8BC08BC9E4670477A
:040F6400750100080B
:040F68004D0100082F
:040000050800090DD9
:00000001FF
