:020000040800F2
:1000000000500020250A0008690A0008690A000853
:10001000690A0008690A0008690A0008000000006F
:10002000000000000000000000000000690A000855
:10003000690A000800000000690A0008690A00084F
:10004000690A0008690A0008690A0008690A0008C4
:10005000690A0008690A0008690A0008690A0008B4
:10006000690A0008690A0008690A0008690A0008A4
:10007000690A0008690A0008690A0008690A000894
:10008000690A0008690A0008690A0008690A000884
:10009000690A0008690A0008690A0008690A000874
:1000A000690A0008690A0008690A0008690A000864
:1000B000690A0008690A0008690A0008690A000854
:1000C000690A0008690A0008690A0008690A000844
:1000D000690A0008690A0008690A0008690A000834
:1000E000690A0008690A0008690A0008000000009F
:1000F0000000000000000000000000000000000000
:0C01000000000000000000005FF808F1A3
:10010C000348044B834202D0034B03B1184770479A
:10011C0000000020000000200000000005480649F7
:10012C000B1AD90F01EBA301491002D0034B03B1F9
:10013C00184770470000002000000020000000005D
:10014C0010B5064C237843B9FFF7DAFF044B13B113
:10015C000448AFF300800123237010BD0000002081
:10016C00000000000C01000808B5044B1BB1044949
:10017C000448AFF30080BDE80840CFE70000000062
:10018C00040000200C010008374B82B01A6842F0C2
:10019C0001021A605968354A0A405A601A6822F0FE
:1001AC00847222F480321A601A6822F480221A6057
:1001BC005A6822F4FE025A604FF41F029A60002221
:1001CC00009201921A6842F480321A601A6802F4A2
:1001DC0000320192009A01320092019A1AB9009AE7
:1001EC00B2F5A06FF2D11A6812F4003218BF0122D6
:1001FC000192019A012A30D11D4A116841F0100177
:10020C001160116821F003011160116841F00201C5
:10021C0011605A685A605A685A605A6842F480628F
:10022C005A605A6822F47C125A605A6842F4E812F6
:10023C005A601A6842F080721A601A689201FCD5F2
:10024C005A6822F003025A605A6842F002025A605D
:10025C005A6802F00C02082AFAD14FF00062054BE2
:10026C009A6002B0704700BF001002400000FFF817
:10027C000020024000ED00E02DE9F041CB780F8822
:10028C00DA0648BF8A7803F00F0548BF15430A7891
:10029C00D2B100214FF0010C4FF00F0E02680CFA96
:1002AC0001F636EA07040BD18C000EFA04F822EAA8
:1002BC00080205FA04F4282B42EA040225D146610F
:1002CC0001310829EBD10260FF2F1CD900214FF01E
:1002DC00010C4FF00F0E426801F108040CFA04F403
:1002EC0034EA07060BD18E000EFA06F822EA080251
:1002FC0005FA06F6282B42EA06020AD144610131BE
:10030C000829E9D14260BDE8F081482B08BF06619D
:10031C00D6E7482B08BF0461F1E78368194214BF84
:10032C00012000207047016170470AB101617047DC
:10033C0041617047044B9A6911B110439861704741
:10034C0022EA0000FAE700BF0010024083B500F07B
:10035C00D1F900F0FAFA0121244A084600F06CF9B0
:10036C0000F010FB224B02461870042102230120DE
:10037C0000F0A0F91F4E204FDFF88080DFF880904E
:10038C00204C214D33463A4641464846019400954F
:10039C0000F0FBFAB9F9002005230121022000F03E
:1003AC005BF9B8F9002005230121032000F054F972
:1003BC00B7F9002005230121042000F04DF9B6F90E
:1003CC00002005230821022000F046F9B5F9002091
:1003DC0005230821032000F03FF905230821042000
:1003EC00B4F9002000F038F9C4E700BF6A0A00082D
:1003FC002800002022000020200000201E000020E9
:10040C001C0000202600002024000020482300228D
:10041C0058434FF0E02358619A6105221A611A691A
:10042C00D203FCD504221A617047000073B5012178
:10043C000820FFF77FFF4FF4807641F203434FF41F
:10044C0000750D4C01A92046ADF80630ADF80460DE
:10045C00FFF712FF204601A9ADF80450FFF70CFF7F
:10046C00314620460122FFF760FF01222946204633
:10047C00FFF75BFF02B070BD000C014010B50D4CD6
:10048C00012220464FF40071FFF74FFF2046012256
:10049C004FF48071FFF749FF204600224FF40071A2
:1004AC00FFF743FF2046BDE8104000224FF4807157
:1004BC00FFF73BBF000C014010B50A4C0022204650
:1004CC004FF40071FFF731FF204601224FF4807189
:1004DC00FFF72BFF2046BDE8104001224FF40071BE
:1004EC00FFF723BF000C014070B5054600248026A1
:1004FC0046FA04F32B4214BF012200224FF4007180
:10050C000F48FFF712FF01224FF480710C48FFF7E0
:10051C000CFF013400224FF480710948FFF705FFEE
:10052C00082CE5D101224FF480710548FFF7FDFE40
:10053C00BDE8704000224FF480710148FFF7F5BE12
:10054C00000C014010B50446FFF798FF7820FFF728
:10055C00CBFF0020FFF7C8FF2046FFF7C5FFBDE823
:10056C001040FFF7A9BF10B50446FFF787FF7820AE
:10057C00FFF7BAFF4020FFF7B7FF2046FFF7B4FFA5
:10058C00BDE81040FFF798BF10B50C4640F0B00026
:10059C00FFF7D8FF200940F01000FFF7D3FF04F05D
:1005AC000F00BDE81040FFF7CDBF38B50025002186
:1005BC00E8B2FFF7E9FF80240020013CFFF7D3FFEE
:1005CC0014F0FF04F8D10135082DF0D138BD00002E
:1005DC002DE9F84317464FF00809441E4D1E6400E0
:1005EC00ED00E4B2EDB229462046FFF7CDFF114EE7
:1005FC0007F18053203B06EB0318203F18F8010B42
:10060C0009F1FF39FFF7AFFF19F0FF09F6D1601CB4
:10061C002946C0B2FFF7B8FF082406EB07160836C8
:10062C0016F8010B013CFFF79EFF14F0FF04F7D105
:10063C00BDE8F8836E0A0008F8B506460F46154665
:10064C0000242A5D02B9F8BDE1193046C9B2013463
:10065C00FFF7BEFFE4B2F4E72DE9F041171E0646A2
:10066C000D4698460BDB2B22FFF7B2FF08F1FF3447
:10067C0045444FF00A08631C06D1BDE8F0812D22D9
:10068C00FFF7A6FF7F42F1E723460122291BC9B2DF
:10069C00013B0CD2B7FBF2F2B2FBF8F308FB1322CE
:1006AC0030323046D2B2FFF793FF013CE3E708FB50
:1006BC0002F2EDE72DE9F04107460D4690465E1E2D
:1006CC00731C14D1BDE8F0812401013BFCD2B8FBB2
:1006DC00F4F404F00F02092A2946384694BF30324C
:1006EC0037320135FFF774FFEDB2013EE8E73346D0
:1006FC000124EAE708B5FFF799FEAE20FFF722FFC9
:10070C00D520FFF71FFF8020FFF71CFFA820FFF765
:10071C0019FF3F20FFF716FFD320FFF713FF002030
:10072C00FFF710FF4020FFF70DFFA120FFF70AFF96
:10073C00C820FFF707FFDA20FFF704FF1220FFF7AE
:10074C0001FF8120FFF7FEFECF20FFF7FBFED92033
:10075C00FFF7F8FEF120FFF7F5FEDB20FFF7F2FEC6
:10076C003020FFF7EFFEA420FFF7ECFEA620FFF7EA
:10077C00E9FE8D20FFF7E6FE1420FFF7E3FEAF2025
:10078C00FFF7E0FEBDE80840FFF70FBF08B50246D3
:10079C004FF480610348FFF7C8FDBDE808400A200C
:1007AC00FFF734BE000C014008B502464FF400615F
:1007BC000348FFF7BAFDBDE808400A20FFF726BE44
:1007CC00000C014010B54FF400610448FFF7A5FD83
:1007DC0004460A20FFF71AFE204610BD000C01400B
:1007EC0037B501210820FFF7A5FD4FF4406541F214
:1007FC000343074C01A92046ADF80630ADF8045070
:10080C00FFF73AFD29462046FFF78DFD03B030BDBA
:10081C00000C014008B50120FFF7C6FF0120FFF7CF
:10082C00B5FF0020FFF7C0FFBDE808400020FFF730
:10083C00ADBF08B50020FFF7B7FF0120FFF7A6FFFB
:10084C00BDE808400120FFF7AFBF70B50546002496
:10085C00802646FA04F32B4214BF01200020FFF738
:10086C00A3FF0120FFF792FF01340020FFF78EFF5A
:10087C00082CEED170BD70B500250120FFF794FF58
:10088C002C4680260120FFF781FFFFF79BFF18B154
:10089C0046FA05F31C43E4B200200135FFF776FF5E
:1008AC00082DEFD1204670BD08B5FFF77DFF012064
:1008BC00FFF76CFFBDE808400020FFF767BF10B5DD
:1008CC000120FFF771FF0120FFF760FFFFF77AFFB0
:1008DC0004460020FFF75AFF204610BD38B50546E8
:1008EC000C46FFF797FFD020FFF7AFFFFFF7E7FFAE
:1008FC002846FFF7AAFFFFF7E2FF2046FFF7A5FF08
:10090C00FFF7DDFFBDE83840FFF793BF10B5044695
:10091C00FFF780FFD020FFF798FFFFF7D0FF2046AE
:10092C00FFF793FFFFF7CBFFFFF774FFD120FFF723
:10093C008CFFFFF7C4FFFFF79EFF04460120FFF773
:10094C00B3FFFFF776FF204610BD08B5FFF748FF51
:10095C0001216B20FFF7C2FF00216C20FFF7BEFFC7
:10096C0009211920FFF7BAFF06211A20FFF7B6FF5D
:10097C0018211B20FFF7B2FFBDE8084018211C20EE
:10098C00FFF7ACBF7520FFF7C1BF2DE9F04107465B
:10099C003B200E4615461C46FFF7B8FF80463C2010
:1009AC00FFF7B4FF40EA082038803D20FFF7AEFF88
:1009BC0007463E20FFF7AAFF40EA072030803F2081
:1009CC00FFF7A4FF06464020FFF7A0FF40EA0620F1
:1009DC0028804320FFF79AFF05464420FFF796FF37
:1009EC0040EA052020804520FFF790FF0446462072
:1009FC00FFF78CFF069B40EA042018804720FFF786
:100A0C0085FF04464820FFF781FF079B40EA04203E
:100A1C001880BDE8F0810000002103E00A4B5B5810
:100A2C004350043109480A4B42189A42F6D3094AFA
:100A3C0002E0002342F8043B074B9A42F9D3FFF73C
:100A4C00A3FBFFF783FC7047801000080000002018
:100A5C0000000020000000202C000020FEE749448C
:100A6C003A00000000000000000000000000000040
:100A7C000000000000F8000000000000003330000F
:100A8C00000000100C06100C060000000000000016
:100A9C00000040C07840C0784000043F04043F048C
:100AAC000400007088FC08300000001820FF211E94
:100ABC000000F008F000E018000000211C031E21CB
:100ACC001E0000F00888700000001E212324192746
:100ADC00211010160E0000000000000000000000A5
:100AEC000000000000E018040200000000071820BD
:100AFC00400000020418E00000000040201807002D
:100B0C000000404080F0804040000202010F0102D2
:100B1C000200000000F0000000000101011F0101B3
:100B2C000100000000000000000080B07000000018
:100B3C0000000000000000000000000101010101A4
:100B4C000101000000000000000000303000000037
:100B5C00000000000000806018040060180601000E
:100B6C00000000E010080810E000000F102020101A
:100B7C000F00001010F8000000000020203F202083
:100B8C00000000700808088870000030282422211A
:100B9C0030000030088888483000001820202011D0
:100BAC000E000000C02010F8000000070424243FB1
:100BBC00240000F80888880808000019212020115A
:100BCC000E0000E0108888180000000F1120201182
:100BDC000E0000380808C83808000000003F00006C
:100BEC0000000070880808887000001C2221212257
:100BFC001C0000E010080810E00000003122221157
:100C0C000F00000000C0C0000000000000303000E9
:100C1C000000000000800000000000008060000068
:100C2C0000000000804020100800000102040810A1
:100C3C0020004040404040404000040404040404B0
:100C4C00040000081020408000000020100804025E
:100C5C000100007048080808F00000000030360160
:100C6C000000C030C828E810E0000718272423141F
:100C7C000B000000C038E0000000203C23020227DB
:100C8C00382008F8888888700000203F2020201128
:100C9C000E00C03008080808380007182020201063
:100CAC00080008F808080810E000203F2020201059
:100CBC000F0008F88888E8081000203F2020232027
:100CCC00180008F88888E8081000203F200003006E
:100CDC000000C03008080838000007182020221E29
:100CEC00020008F808000008F808203F2101012143
:100CFC003F20000808F8080800000020203F2020B2
:100D0C00000000000808F8080800C08080807F0000
:100D1C00000008F888C028180800203F2001263859
:100D2C00200008F8080000000000203F20202020B0
:100D3C00300008F8F800F8F80800203F003F003FAA
:100D4C00200008F830C00008F808203F20000718E1
:100D5C003F00E01008080810E0000F1020202010C1
:100D6C000F0008F808080808F000203F21010101D5
:100D7C000000E01008080810E0000F182424385078
:100D8C004F0008F8888888887000203F2000030CEA
:100D9C0030200070880808083800003820212122F3
:100DAC001C00180808F8080818000000203F200054
:100DBC00000008F808000008F808001F2020202078
:100DCC001F000878880000C83808000007380E019A
:100DDC000000F80800F80008F800033C0700073C86
:100DEC000300081868808068180820302C03032C36
:100DFC0030200838C800C83808000000203F200008
:100E0C00000010080808C8380800203826212020C7
:100E1C001800000000FE020202000000007F4040AB
:100E2C004000000C30C0000000000000000106383B
:100E3C00C00000020202FE000000004040407F00A3
:100E4C000000000004020202040000000000000088
:100E5C000000000000000000000080808080808086
:100E6C00808000020204000000000000000000006E
:100E7C0000000000808080800000001924222222C3
:100E8C003F2008F8008080000000003F1120201156
:100E9C000E000000008080800000000E1120202039
:100EAC001100000000808088F800000E1120201036
:100EBC003F200000808080800000001F2222222220
:100ECC001300008080F0888888180020203F2020A4
:100EDC0000000000808080808000006B94949493CC
:100EEC00600008F8008080800000203F2100002076
:100EFC003F2000809898000000000020203F202018
:100F0C000000000000809898000000C08080807F66
:100F1C00000008F8000080808000203F24022D3063
:100F2C002000000808F8000000000020203F2020CE
:100F3C0000008080808080808000203F20003F2047
:100F4C00003F8080008080800000203F2100002036
:100F5C003F200000808080800000001F2020202087
:100F6C001F00808000808000000080FFA1202011E5
:100F7C000E000000008080808000000E112020A058
:100F8C00FF80808080008080800020203F21200016
:100F9C000100000080808080800000332424242401
:100FAC001900008080E0808000000000001F2020DD
:100FBC0000008080000000808000001F2020201096
:100FCC003F20808080000080808000010E30080669
:100FDC00010080800080008080800F300C030C307A
:100FEC000F0000808000808080000020312E0E31A8
:100FFC002000808080000080808080818E701806A8
:10100C00010000808080808080000021302C222113
:10101C00300000000000807C020200000000003F55
:10102C00404000000000FF00000000000000FF0036
:10103C0000000002027C800000000040403F0000E5
:10104C000000000601010202040400000000000080
:10105C0000000000F8B500BFF8BC08BC9E46704705
:0C106C00F8B500BFF8BC08BC9E467047F9
:0410780075010008F6
:04107C004D0100081A
:0400000508000A25C0
:00000001FF
