:020000040800F2
:1000000000500020090C00084D0C00084D0C0008A1
:100010004D0C00084D0C00084D0C000800000000BD
:100020000000000000000000000000004D0C00086F
:100030004D0C0008000000004D0C00084D0C00089D
:100040004D0C00084D0C00084D0C00084D0C00082C
:100050004D0C00084D0C00084D0C00084D0C00081C
:100060004D0C00084D0C00084D0C00084D0C00080C
:100070004D0C00084D0C00084D0C00084D0C0008FC
:100080004D0C00084D0C00084D0C00084D0C0008EC
:100090004D0C00084D0C00084D0C00084D0C0008DC
:1000A0004D0C00084D0C00084D0C00084D0C0008CC
:1000B0004D0C00084D0C00084D0C00084D0C0008BC
:1000C0004D0C00084D0C00084D0C00084D0C0008AC
:1000D0004D0C00084D0C00084D0C00084D0C00089C
:1000E0004D0C00084D0C00084D0C000800000000ED
:1000F0000000000000000000000000000000000000
:0C01000000000000000000005FF808F1A3
:10010C000348044B834202D0034B03B1184770479A
:10011C0000000020000000200000000005480649F7
:10012C000B1AD90F01EBA301491002D0034B03B1F9
:10013C00184770470000002000000020000000005D
:10014C0010B5064C237843B9FFF7DAFF044B13B113
:10015C000448AFF300800123237010BD0000002081
:10016C00000000000C01000808B5044B1BB1044949
:10017C000448AFF30080BDE80840CFE70000000062
:10018C00040000200C010008374B82B01A6842F0C2
:10019C0001021A605968354A0A405A601A6822F0FE
:1001AC00847222F480321A601A6822F480221A6057
:1001BC005A6822F4FE025A604FF41F029A60002221
:1001CC00009201921A6842F480321A601A6802F4A2
:1001DC0000320192009A01320092019A1AB9009AE7
:1001EC00B2F5A06FF2D11A6812F4003218BF0122D6
:1001FC000192019A012A30D11D4A116841F0100177
:10020C001160116821F003011160116841F00201C5
:10021C0011605A685A605A685A605A6842F480628F
:10022C005A605A6822F47C125A605A6842F4E812F6
:10023C005A601A6842F080721A601A689201FCD5F2
:10024C005A6822F003025A605A6842F002025A605D
:10025C005A6802F00C02082AFAD14FF00062054BE2
:10026C009A6002B0704700BF001002400000FFF817
:10027C000020024000ED00E02DE9F041CB780F8822
:10028C00DA0648BF8A7803F00F0548BF15430A7891
:10029C00D2B100214FF0010C4FF00F0E02680CFA96
:1002AC0001F636EA07040BD18C000EFA04F822EAA8
:1002BC00080205FA04F4282B42EA040225D146610F
:1002CC0001310829EBD10260FF2F1CD900214FF01E
:1002DC00010C4FF00F0E426801F108040CFA04F403
:1002EC0034EA07060BD18E000EFA06F822EA080251
:1002FC0005FA06F6282B42EA06020AD144610131BE
:10030C000829E9D14260BDE8F081482B08BF06619D
:10031C00D6E7482B08BF0461F1E70AB101617047C9
:10032C0041617047044B9A6911B110439861704751
:10033C0022EA0000FAE700BF00100240044BDA6921
:10034C0011B11043D861704722EA0000FAE700BFF0
:10035C000010024070B5068C42EA031226F001062A
:10036C003604360C0684048B154B24F0F304240459
:10037C00058C240C14439842ADB2A4B212D003F5F0
:10038C00006398420ED0B0F1804F0BD0A3F5983398
:10039C00984207D003F58063984203D003F580633D
:1003AC00984208D125F0020341EA030545F0010506
:1003BC000483058470BD25F00A050D43F6E700BFE4
:1003CC00002C014070B5048C120224F0100424049B
:1003DC00240C0484058B42EA033225F44075154B3A
:1003EC002D05048C2D0D0E0115439842A4B2B6B206
:1003FC00ADB212D003F5006398420ED0B0F1804F2D
:10040C000BD0A3F59833984207D003F5806398423C
:10041C0003D003F58063984208D124F0200446EA07
:10042C00040141F010010583018470BD24F0A00487
:10043C002143F6E7002C0140224A038890429BB2EC
:10044C0012D002F5006290420ED0B0F1804F0BD06A
:10045C00A2F59832904207D002F58062904203D008
:10046C0002F58062904203D14A8823F07003134353
:10047C00154A904208D002F5806290421FBF23F4C7
:10048C004073CA889BB2134303808B8883850B8887
:10049C0003850C4B98420FD003F5006398420BD0A8
:1004AC0003F54063984207D003F58063984203D06C
:1004BC0003F58063984201D10B7A03860123838272
:1004CC00704700BF002C014000100040038C70B539
:1004DC0023F001031B041B0C0384038C8488028B04
:1004EC000D8822F073021204120C4E882A4323F05A
:1004FC0002030D891B0435431B0C2B43144DA4B272
:10050C00A8429BB20FD005F50065A8420BD005F5AB
:10051C004065A84207D005F58065A84203D005F5D3
:10052C008065A8420ED14D8923F008032B438D889A
:10053C0023F00403CE892B438D8924F44074354376
:10054C002C43A4B284800283CA888286038470BD43
:10055C00002C01400023038043808380C3800381EF
:10056C0043818381C3817047038821B19BB243F0DF
:10057C0001030380704723F001031B041B0CF8E7F5
:10058C00038923F007031B041B0C038170470185AF
:10059C0082827047038923F070031B041B0C0B43EE
:1005AC0003817047038923F007031B041B0C038191
:1005BC0003899BB20B430381704781867047038B81
:1005CC0023F00C031B041B0C0383038B9BB20B4308
:1005DC0003837047028B22F440621204120C0283D4
:1005EC00038B9BB243EA01239BB203837047838B3B
:1005FC0023F00C031B041B0C8383838B9BB20B43D8
:10060C0083837047828B22F440621204120C828323
:10061C00838B9BB243EA01239BB283837047000018
:10062C00F8B50F46098804467D88BA883B8939B9E4
:10063C002946FFF78FFEF988BDE8F840FFF7BFBFEA
:10064C00042907D12946FFF7BDFEF988BDE8F8401B
:10065C00FFF7C0BF0829008CF98839D120F48070CD
:10066C000004000C2084A68B208CB6B226F0F30676
:10067C00164346EA0316354B2F029C4280B2BFB29A
:10068C00B6B212D003F500639C420ED0B4F1804F89
:10069C000BD0A3F598339C4207D003F580639C42A2
:1006AC0003D003F580639C420CD120F4007047EA20
:1006BC00000343F48073A68320462384BDE8F840EE
:1006CC00FFF795BF20F42060284340F48073F2E7D5
:1006DC0020F480500004000C2084A78B1E0327F408
:1006EC0040771A4B3F05208C3F0D46EA02264FEA15
:1006FC00053C3E439C4280B21FFA8CFCB6B212D031
:10070C0003F500639C420ED0B4F1804F0BD0A3F5DF
:10071C0098339C4207D003F580639C4203D003F5C9
:10072C0080639C420CD120F400504CEA000343F44B
:10073C008053A68320462384BDE8F840FFF762BFB0
:10074C0047F6FF5303402B43F1E700BF002C014059
:10075C00808E80B27047000008B500F054F900F0AC
:10076C009FF900F0EFF90121094A084600F018F949
:10077C0040F2CF2000F0DFF9322000F0D7F900F082
:10078C002FFA052302460621012000F019F9F6E79D
:10079C004E0C000873B501210820FFF7C3FD4FF480
:1007AC00807641F203434FF400750D4C01A92046AD
:1007BC00ADF80630ADF80460FFF75EFD204601A9E8
:1007CC00ADF80450FFF758FD314620460122FFF7E3
:1007DC00A4FD012229462046FFF79FFD02B070BD03
:1007EC00000C014010B50D4C012220464FF4007155
:1007FC00FFF793FD204601224FF48071FFF78DFD2A
:10080C00204600224FF40071FFF787FD2046BDE81B
:10081C00104000224FF48071FFF77FBD000C0140A7
:10082C0010B50A4C002220464FF40071FFF775FDFD
:10083C00204601224FF48071FFF76FFD2046BDE882
:10084C00104001224FF40071FFF767BD000C01400E
:10085C0070B505460024802646FA04F32B4214BFDB
:10086C00012200224FF400710F48FFF756FD0122C0
:10087C004FF480710C48FFF750FD013400224FF407
:10088C0080710948FFF749FD082CE5D101224FF48E
:10089C0080710548FFF741FDBDE8704000224FF420
:1008AC0080710148FFF739BD000C014010B50446BA
:1008BC00FFF798FF7820FFF7CBFF0020FFF7C8FF6A
:1008CC002046FFF7C5FFBDE81040FFF7A9BF10B5E4
:1008DC000446FFF787FF7820FFF7BAFF4020FFF7A9
:1008EC00B7FF2046FFF7B4FFBDE81040FFF798BFF5
:1008FC0010B50C4640F0B000FFF7D8FF200940F0CF
:10090C001000FFF7D3FF04F00F00BDE81040FFF715
:10091C00CDBF38B500250021E8B2FFF7E9FF8024F0
:10092C000020013CFFF7D3FF14F0FF04F8D1013590
:10093C00082DF0D138BD00002DE9F84317464FF0D3
:10094C000809441E4D1E6400ED00E4B2EDB22946C8
:10095C002046FFF7CDFF114E07F18053203B06EBED
:10096C000318203F18F8010B09F1FF39FFF7AFFF0F
:10097C0019F0FF09F6D1601C2946C0B2FFF7B8FF89
:10098C00082406EB0716083616F8010B013CFFF796
:10099C009EFF14F0FF04F7D1BDE8F8835B0C000850
:1009AC00F8B506460F46154600242A5D02B9F8BD77
:1009BC00E1193046C9B20134FFF7BEFFE4B2F4E7E7
:1009CC002DE9F84307460D4690464FF00A095E1E86
:1009DC00731C15D1BDE8F88309FB04F4013BFBD271
:1009EC00B8FBF4F4B4FBF9F209FB12443034294699
:1009FC003846E2B20135FFF79FFFEDB2013EE7E763
:100A0C0033460124EAE708B5FFF7C4FEAE20FFF732
:100A1C004DFFD520FFF74AFF8020FFF747FFA820A6
:100A2C00FFF744FF3F20FFF741FFD320FFF73EFFC6
:100A3C000020FFF73BFF4020FFF738FFA120FFF716
:100A4C0035FFC820FFF732FFDA20FFF72FFF122007
:100A5C00FFF72CFF8120FFF729FFCF20FFF726FFA0
:100A6C00D920FFF723FFF120FFF720FFDB20FFF752
:100A7C001DFF3020FFF71AFFA420FFF717FFA62059
:100A8C00FFF714FF8D20FFF711FF1420FFF70EFF67
:100A9C00AF20FFF70BFFBDE80840FFF73ABF00009F
:100AAC00012130B5084689B0FFF748FC012104202C
:100ABC00FFF738FC012541F6030369461A48ADF8E7
:100ACC000230ADF80050FFF7D7FB4FF08040FFF736
:100ADC0057FD63230024ADF8083040F2CF2301A961
:100AEC004FF08040ADF80430ADF80A40ADF8064048
:100AFC008DF80C40FFF7A0FC04A8FFF72BFD60233A
:100B0C0004A94FF08040ADF81030ADF81840ADF8A6
:100B1C001250ADF81640FFF7D9FC29464FF0804033
:100B2C00FFF722FD09B030BD0008014001464FF02F
:100B3C008040FFF742BD014601224FF08040FFF795
:100B4C0026BD000030B5012189B00220FFF7F6FB6D
:100B5C0001210420FFF7E6FB4023ADF8043044F6F6
:100B6C0003031D4C01A91D48ADF80630FFF784FBAB
:100B7C002046FFF705FD4FF6FF730025ADF80C304E
:100B8C004723204602A9ADF80E50ADF80A50ADF837
:100B9C0008308DF81050FFF74FFC0F23ADF81450B0
:100BAC00ADF81650ADF81A500125204605A9ADF840
:100BBC001C30ADF81850FFF733FD20465021FFF7DD
:100BCC00E9FC20460421FFF7EDFC29462046FFF7FF
:100BDC00CBFC09B030BD00BF000400400008014050
:100BEC0008B50448FFF7B4FD034B0130B3FBF0F03C
:100BFC0008BD00BF0004004040420F00002103E08C
:100C0C000A4B5B584350043109480A4B42189A422C
:100C1C00F6D3094A02E0002342F8043B074B9A4200
:100C2C00F9D3FFF7B1FAFFF797FD7047641200088C
:100C3C000000002000000020000000201C0000200C
:100C4C00FEE7467265713A3030303030487A000039
:100C5C000000000000000000000000000000000088
:100C6C000000F8000000000000003330000000001D
:100C7C00100C06100C0600000000000000000040E4
:100C8C00C07840C0784000043F04043F04040000D6
:100C9C007088FC08300000001820FF211E0000F0B6
:100CAC0008F000E018000000211C031E211E0000AB
:100CBC00F00888700000001E212324192721101031
:100CCC00160E0000000000000000000000000000F4
:100CDC000000E0180402000000000718204000008B
:100CEC00020418E00000000040201807000000403B
:100CFC004080F0804040000202010F01020200001F
:100D0C000000F0000000000101011F0101010000C2
:100D1C000000000000000080B07000000000000027
:100D2C0000000000000000000101010101010100B0
:100D3C000000000000000000303000000000000047
:100D4C00000000806018040060180601000000001C
:100D5C00E010080810E000000F102020100F000019
:100D6C001010F8000000000020203F2020000000A0
:100D7C0070080808887000003028242221300000F8
:100D8C00300888884830000018202020110E000000
:100D9C0000C02010F8000000070424243F240000A9
:100DAC00F80888880808000019212020110E00007E
:100DBC00E0108888180000000F112020110E000090
:100DCC00380808C83808000000003F000000000088
:100DDC0070880808887000001C222121221C000049
:100DEC00E010080810E0000000312222110F000072
:100DFC000000C0C000000000000030300000000007
:100E0C000000800000000000008060000000000076
:100E1C00008040201008000001020408102000404F
:100E2C00404040404040000404040404040400001A
:100E3C00081020408000000020100804020100006F
:100E4C007048080808F0000000003036010000C0AF
:100E5C0030C828E810E0000718272423140B0000E2
:100E6C0000C038E0000000203C2302022738200894
:100E7C00F8888888700000203F202020110E00C0C8
:100E8C00300808080838000718202020100800082F
:100E9C00F808080810E000203F202020100F000860
:100EAC00F88888E8081000203F202023201800082C
:100EBC00F88888E8081000203F200003000000C0DC
:100ECC003008080838000007182020221E020008ED
:100EDC00F808000008F808203F210101213F2000FC
:100EEC000808F8080800000020203F20200000001F
:100EFC00000808F8080800C08080807F0000000807
:100F0C00F888C028180800203F2001263820000847
:100F1C00F8080000000000203F20202020300008AE
:100F2C00F8F800F8F80800203F003F003F200008C8
:100F3C00F830C00008F808203F200007183F00E0F8
:100F4C001008080810E0000F10202020100F0008D7
:100F5C00F808080808F000203F210101010000E01A
:100F6C001008080810E0000F18242438504F00080F
:100F7C00F8888888887000203F2000030C302000FF
:100F8C00708808080838000038202121221C00181D
:100F9C000808F8080818000000203F20000000088E
:100FAC00F808000008F808001F202020201F000867
:100FBC0078880000C83808000007380E010000F8D7
:100FCC000800F80008F800033C0700073C03000881
:100FDC001868808068180820302C03032C302008F7
:100FEC0038C800C83808000000203F20000000105E
:100FFC00080808C8380800203826212020180000CE
:10100C000000FE020202000000007F404040000091
:10101C000C30C000000000000000010638C00000C9
:10102C00020202FE000000004040407F0000000071
:10103C000004020202040000000000000000000096
:10104C000000000000000080808080808080800094
:10105C00020204000000000000000000000000007C
:10106C00008080808000000019242222223F20086A
:10107C00F8008080000000003F112020110E0000BD
:10108C0000008080800000000E1120202011000044
:10109C000000808088F800000E112020103F2000F6
:1010AC0000808080800000001F222222221300007A
:1010BC008080F0888888180020203F2020000000C5
:1010CC0000808080808000006B9494949360000872
:1010DC00F8008080800000203F210000203F20008D
:1010EC00809898000000000020203F202000000085
:1010FC000000809898000000C08080807F0000086D
:10110C00F8000080808000203F24022D3020000059
:10111C000808F8000000000020203F20200000807C
:10112C0080808080808000203F20003F20003F8016
:10113C0080008080800000203F210000203F2000A4
:10114C0000808080800000001F202020201F008055
:10115C008000808000000080FFA12020110E000084
:10116C0000008080808000000E112020A0FF808075
:10117C008080008080800020203F21200001000022
:10118C0000808080808000003324242424190000F7
:10119C008080E0808000000000001F202000008084
:1011AC0080000000808000001F202020103F208045
:1011BC008080000080808000010E300806010080D5
:1011CC00800080008080800F300C030C300F0000FA
:1011DC00808000808080000020312E0E3120008025
:1011EC008080000080808080818E70180601000055
:1011FC00808080808080000021302C2221300000F3
:10120C00000000807C020200000000003F40400013
:10121C00000000FF00000000000000FF00000000C4
:10122C0002027C800000000040403F0000000000F3
:10123C00060101020204040000000000000000008E
:10124C00F8B500BFF8BC08BC9E467047F8B500BFA7
:08125C00F8BC08BC9E46704777
:041264007501000808
:041268004D0100082C
:0400000508000C09DA
:00000001FF
