:020000040800F2
:1000000000500020C10B0008050C0008050C00087A
:10001000050C0008050C0008050C00080000000095
:10002000000000000000000000000000050C0008B7
:10003000050C000800000000050C0008050C000875
:10004000050C0008050C0008050C0008050C00084C
:10005000050C0008050C0008050C0008050C00083C
:10006000050C0008050C0008050C0008050C00082C
:10007000050C0008050C0008050C0008050C00081C
:10008000050C0008050C0008050C0008050C00080C
:10009000050C0008050C0008050C0008050C0008FC
:1000A000050C0008050C0008050C0008050C0008EC
:1000B000050C0008050C0008050C0008050C0008DC
:1000C000050C0008050C0008050C0008050C0008CC
:1000D000050C0008050C0008050C0008050C0008BC
:1000E000050C0008050C0008050C000800000000C5
:1000F0000000000000000000000000000000000000
:0C01000000000000000000005FF808F1A3
:10010C000348044B834202D0034B03B1184770479A
:10011C0014000020140000200000000005480649CF
:10012C000B1AD90F01EBA301491002D0034B03B1F9
:10013C001847704714000020140000200000000035
:10014C0010B5064C237843B9FFF7DAFF044B13B113
:10015C000448AFF300800123237010BD140000206D
:10016C00000000000C01000808B5044B1BB1044949
:10017C000448AFF30080BDE80840CFE70000000062
:10018C00180000200C010008374B82B01A6842F0AE
:10019C0001021A605968354A0A405A601A6822F0FE
:1001AC00847222F480321A601A6822F480221A6057
:1001BC005A6822F4FE025A604FF41F029A60002221
:1001CC00009201921A6842F480321A601A6802F4A2
:1001DC0000320192009A01320092019A1AB9009AE7
:1001EC00B2F5A06FF2D11A6812F4003218BF0122D6
:1001FC000192019A012A30D11D4A116841F0100177
:10020C001160116821F003011160116841F00201C5
:10021C0011605A685A605A685A605A6842F480628F
:10022C005A605A6822F47C125A605A6842F4E812F6
:10023C005A601A6842F080721A601A689201FCD5F2
:10024C005A6822F003025A605A6842F002025A605D
:10025C005A6802F00C02082AFAD14FF00062054BE2
:10026C009A6002B0704700BF001002400000FFF817
:10027C000020024000ED00E02DE9F041CB780F8822
:10028C00DA0648BF8A7803F00F0548BF15430A7891
:10029C00D2B100214FF0010C4FF00F0E02680CFA96
:1002AC0001F636EA07040BD18C000EFA04F822EAA8
:1002BC00080205FA04F4282B42EA040225D146610F
:1002CC0001310829EBD10260FF2F1CD900214FF01E
:1002DC00010C4FF00F0E426801F108040CFA04F403
:1002EC0034EA07060BD18E000EFA06F822EA080251
:1002FC0005FA06F6282B42EA06020AD144610131BE
:10030C000829E9D14260BDE8F081482B08BF06619D
:10031C00D6E7482B08BF0461F1E70AB101617047C9
:10032C004161704770B586B00446868801A80D46B9
:10033C0000F0ACF8039A2E4926F03F06B2FBF1F11F
:10034C003604360C88B20643A6802388294E23F047
:10035C0001031B041B0C23802B68B34223D85B00C6
:10036C00B2FBF3F39BB2042B38BF0423013080B2F1
:10037C002084A3832388AA889BB243F001032380A3
:10038C002388698923F4816323F002031B040A4345
:10039C001B0C13439BB22A892380AB8913439BB25A
:1003AC00238106B070BD4BF6FF70EE8886421BBFF2
:1003BC001920434303EB4303B2FBF3F30BBFB2FB34
:1003CC00F3F39BB29BB243F48043C3F30B020AB921
:1003DC0043F001034FF4967251434FF47A72B1FB20
:1003EC00F2F1013189B243F400432184C1E700BF2B
:1003FC0040420F00A0860100038821B19BB243F05C
:10040C0001030380704723F001031B041B0CF8E766
:10041C00038821B19BB243F480730380704723F4AB
:10042C0080731B041B0CF8E7038821B19BB243F4C7
:10043C0000730380704723F400731B041B0CF8E754
:10044C00038821B19BB243F480630380704723F48B
:10045C0080631B041B0CF8E701827047008AC0B252
:10046C00704722B141F0010189B20182704701F05D
:10047C00FE01F9E7838A008B9BB243EA00430B40F1
:10048C0023F07F435B1A5842584170471B4A10B502
:10049C00536803F00C03082B1FD0194B03605368EF
:1004AC00184CC3F30313E15C0368CB404360516801
:1004BC00C1F30221615C23FA01F181605168C1F33F
:1004CC00C221615CCB40C36052680F49C2F38132D8
:1004DC008A5CB3FBF2F3036110BD53685168C3F33C
:1004EC008343CC0303F1020302D408494B43D5E701
:1004FC0051688903F9D40249F8E700BF00100240A3
:10050C0000127A00040000200000002000093D00C9
:10051C00044B9A6911B110439861704722EA0000AC
:10052C00FAE700BF00100240044BDA6911B1104326
:10053C00D861704722EA0000FAE700BF00100240C1
:10054C0083B500F0C1F900F09FFA0121244A084656
:10055C0000F05CF900F0E4FA224B0246187004211A
:10056C000223012000F090F91F4E204FDFF880800D
:10057C00DFF88090204C214D33463A4641464846A0
:10058C000194009500F0CFFAB9F900200523012160
:10059C00022000F04BF9B8F90020052301210320BB
:1005AC0000F044F9B7F9002005230121042000F0E4
:1005BC003DF9B6F9002005230821022000F036F998
:1005CC00B5F9002005230821032000F02FF905239D
:1005DC0008210420B4F9002000F028F9C4E700BF7A
:1005EC00060C00083C0000203600002034000020DF
:1005FC0032000020300000203A000020380000209B
:10060C0073B501210820FFF783FF4FF4807641F288
:10061C0003434FF400750D4C01A92046ADF806308C
:10062C00ADF80460FFF728FE204601A9ADF8045090
:10063C00FFF722FE314620460122FFF76EFE012213
:10064C0029462046FFF769FE02B070BD000C014040
:10065C0010B50D4C012220464FF40071FFF75DFEE2
:10066C00204601224FF48071FFF757FE20460022EE
:10067C004FF40071FFF751FE2046BDE810400022F8
:10068C004FF48071FFF749BE000C014010B50A4CC5
:10069C00002220464FF40071FFF73FFE2046012256
:1006AC004FF48071FFF739FE2046BDE8104001225F
:1006BC004FF40071FFF731BE000C014070B50546D8
:1006CC000024802646FA04F32B4214BF0122002298
:1006DC004FF400710F48FFF720FE01224FF4807198
:1006EC000C48FFF71AFE013400224FF480710948C0
:1006FC00FFF713FE082CE5D101224FF48071054859
:10070C00FFF70BFEBDE8704000224FF480710148EA
:10071C00FFF703BE000C014010B50446FFF798FF2D
:10072C007820FFF7CBFF0020FFF7C8FF2046FFF72C
:10073C00C5FFBDE81040FFF7A9BF10B50446FFF791
:10074C0087FF7820FFF7BAFF4020FFF7B7FF20465E
:10075C00FFF7B4FFBDE81040FFF798BF10B50C468B
:10076C0040F0B000FFF7D8FF200940F01000FFF771
:10077C00D3FF04F00F00BDE81040FFF7CDBF38B534
:10078C0000250021E8B2FFF7E9FF80240020013C9E
:10079C00FFF7D3FF14F0FF04F8D10135082DF0D189
:1007AC0038BD00002DE9F84317464FF00809441EE8
:1007BC004D1E6400ED00E4B2EDB229462046FFF771
:1007CC00CDFF114E07F18053203B06EB0318203F61
:1007DC0018F8010B09F1FF39FFF7AFFF19F0FF090A
:1007EC00F6D1601C2946C0B2FFF7B8FF082406EB0F
:1007FC000716083616F8010B013CFFF79EFF14F0A4
:10080C00FF04F7D1BDE8F8830A0C0008F8B50646DA
:10081C000F46154600242A5D02B9F8BDE119304691
:10082C00C9B20134FFF7BEFFE4B2F4E72DE9F041A1
:10083C00171E06460D4698460BDB2B22FFF7B2FF20
:10084C0008F1FF3445444FF00A08631C06D1BDE89B
:10085C00F0812D22FFF7A6FF7F42F1E7234601220C
:10086C00291BC9B2013B0CD2B7FBF2F2B2FBF8F375
:10087C0008FB132230323046D2B2FFF793FF013C13
:10088C00E3E708FB02F2EDE72DE9F04107460D46E0
:10089C0090465E1E731C14D1BDE8F0812401013B0F
:1008AC00FCD2B8FBF4F404F00F02092A29463846AE
:1008BC0094BF303237320135FFF774FFEDB2013E91
:1008CC00E8E733460124EAE708B5FFF799FEAE20C6
:1008DC00FFF722FFD520FFF71FFF8020FFF71CFF3B
:1008EC00A820FFF719FF3F20FFF716FFD320FFF7D3
:1008FC0013FF0020FFF710FF4020FFF70DFFA12092
:10090C00FFF70AFFC820FFF707FFDA20FFF704FF05
:10091C001220FFF701FF8120FFF7FEFECF20FFF72B
:10092C00FBFED920FFF7F8FEF120FFF7F5FEDB20E8
:10093C00FFF7F2FE3020FFF7EFFEA420FFF7ECFEEE
:10094C00A620FFF7E9FE8D20FFF7E6FE1420FFF747
:10095C00E3FEAF20FFF7E0FEBDE80840FFF70FBF56
:10096C0070B504460D4642F2107629462046FFF734
:10097C0081FD012801D0013EF7D170BD70B506464E
:10098C000D46144C01212046FFF742FD204612492A
:10099C00FFF7E6FF00222046D021FFF762FD20463C
:1009AC000E49FFF7DDFF31462046FFF755FD204687
:1009BC000B49FFF7D5FF29462046FFF74DFD204692
:1009CC000849FFF7CDFF2046BDE870400121FFF735
:1009DC002BBD00BF0058004001000300820007003F
:1009EC00800007008400070070B50546204C214E9E
:1009FC0020460121FFF70CFD31462046FFF7B0FFE2
:100A0C0000222046D021FFF72CFD20461A49FFF783
:100A1C00A7FF29462046FFF71FFD20461749FFF781
:100A2C009FFF20460121FFF7F3FC31462046FFF7DC
:100A3C0097FF01222046D021FFF713FD20461049D5
:100A4C00FFF78EFF20460021FFF7FAFC204601211C
:100A5C00FFF7EAFC20460B49FFF782FF2046FFF721
:100A6C00FDFC054601212046FFF7EAFC284670BD37
:100A7C0000580040010003008200070084000700BA
:100A8C00020003004000030010B5012186B04FF4B2
:100A9C008000FFF749FD01210820FFF739FD4FF4D5
:100AAC004063ADF8043041F6034301A91948ADF891
:100ABC000630FFF7E1FB4CF25032174B174CCDE9E7
:100ACC0002234FF0806304934FF48043204602A925
:100ADC00ADF81430FFF726FC20460121FFF78CFC03
:100AEC0001216B20FFF74AFF00216C20FFF746FF26
:100AFC0009211920FFF742FF06211A20FFF73EFFBC
:100B0C0018211B20FFF73AFF18211C20FFF736FF96
:100B1C0006B010BD000C01400000FFBF00580040A3
:100B2C007520FFF761BF2DE9F04107463B200E46CB
:100B3C0015461C46FFF758FF80463C20FFF754FF34
:100B4C0040EA082038803D20FFF74EFF07463E2044
:100B5C00FFF74AFF40EA072030803F20FFF744FFB1
:100B6C0006464020FFF740FF40EA0620288043203D
:100B7C00FFF73AFF05464420FFF736FF40EA052011
:100B8C0020804520FFF730FF04464620FFF72CFF5E
:100B9C00069B40EA042018804720FFF725FF0446F7
:100BAC004820FFF721FF079B40EA04201880BDE88E
:100BBC00F0810000002103E00A4B5B5843500431E4
:100BCC0009480A4B42189A42F6D3094A02E000231C
:100BDC0042F8043B074B9A42F9D3FFF7D5FAFFF7DB
:100BEC00AFFC70471C12000800000020140000200D
:100BFC001400002040000020FEE749443A000000A9
:100C0C0000000000000000000000000000000000D8
:100C1C0000F800000000000000333000000000105D
:100C2C000C06100C0600000000000000000040C084
:100C3C007840C0784000043F04043F040400007076
:100C4C0088FC08300000001820FF211E0000F0086E
:100C5C00F000E018000000211C031E211E0000F013
:100C6C000888700000001E2123241927211010165B
:100C7C000E0000000000000000000000000000005A
:100C8C0000E01804020000000007182040000002D9
:100C9C000418E0000000004020180700000040404D
:100CAC0080F0804040000202010F010202000000AF
:100CBC0000F0000000000101011F01010100000013
:100CCC0000000000000080B0700000000000000078
:100CDC000000000000000001010101010101000001
:100CEC000000000000000030300000000000000098
:100CFC00000080601804006018060100000000E08D
:100D0C0010080810E000000F102020100F00001039
:100D1C0010F8000000000020203F20200000007090
:100D2C000808088870000030282422213000003088
:100D3C000888884830000018202020110E00000080
:100D4C00C02010F8000000070424243F240000F801
:100D5C000888880808000019212020110E0000E0E6
:100D6C00108888180000000F112020110E00003888
:100D7C000808C83808000000003F000000000070A0
:100D8C00880808887000001C222121221C0000E029
:100D9C0010080810E0000000312222110F000000A2
:100DAC0000C0C00000000000003030000000000057
:100DBC0000800000000000008060000000000000C7
:100DCC008040201008000001020408102000404060
:100DDC0040404040400004040404040404000008A3
:100DEC001020408000000020100804020100007058
:100DFC0048080808F0000000003036010000C03040
:100E0C00C828E810E0000718272423140B00000062
:100E1C00C038E0000000203C23020227382008F8EC
:100E2C00888888700000203F202020110E00C030E0
:100E3C00080808083800071820202010080008F8B7
:100E4C0008080810E000203F202020100F0008F8B0
:100E5C008888E8081000203F20202320180008F87C
:100E6C008888E8081000203F200003000000C030F4
:100E7C0008080838000007182020221E020008F875
:100E8C0008000008F808203F210101213F2000083C
:100E9C0008F8080800000020203F20200000000077
:100EAC000808F8080800C08080807F00000008F85F
:100EBC0088C028180800203F20012638200008F898
:100ECC00080000000000203F20202020300008F8FF
:100EDC00F800F8F80800203F003F003F200008F819
:100EEC0030C00008F808203F200007183F00E01031
:100EFC0008080810E0000F10202020100F0008F840
:100F0C0008080808F000203F210101010000E01052
:100F1C0008080810E0000F18242438504F0008F877
:100F2C00888888887000203F2000030C30200070D7
:100F3C008808080838000038202121221C001808D5
:100F4C0008F8080818000000203F2000000008F8EE
:100F5C0008000008F808001F202020201F00087837
:100F6C00880000C83808000007380E010000F80897
:100F7C0000F80008F800033C0700073C03000818C1
:100F8C0068808068180820302C03032C3020083827
:100F9C00C800C83808000000203F200000001008DE
:100FAC000808C83808002038262120201800000026
:100FBC0000FE020202000000007F40404000000CD6
:100FCC0030C000000000000000010638C000000224
:100FDC000202FE000000004040407F0000000000C4
:100FEC0004020202040000000000000000000000E7
:100FFC0000000000000080808080808080800002E3
:10100C0002040000000000000000000000000000CE
:10101C008080808000000019242222223F2008F8C2
:10102C00008080000000003F112020110E00000005
:10103C00008080800000000E112020201100000094
:10104C0000808088F800000E112020103F20000046
:10105C00808080800000001F22222222130000804A
:10106C0080F0888888180020203F20200000000095
:10107C00808080808000006B94949493600008F8CA
:10108C00008080800000203F210000203F20008055
:10109C009898000000000020203F20200000000055
:1010AC0000809898000000C08080807F000008F8C5
:1010BC00000080808000203F24022D30200000089A
:1010CC0008F8000000000020203F20200000808055
:1010DC00808080808000203F20003F20003F808067
:1010EC00008080800000203F210000203F20000075
:1010FC00808080800000001F202020201F00808026
:10110C0000808000000080FFA12020110E00000054
:10111C00008080808000000E112020A0FF80808045
:10112C0080008080800020203F21200001000000F2
:10113C0080808080800000332424242419000080C7
:10114C0080E0808000000000001F202000008080D4
:10115C00000000808000001F202020103F20808095
:10116C0080000080808000010E3008060100808025
:10117C000080008080800F300C030C300F0000804A
:10118C008000808080000020312E0E312000808075
:10119C0080000080808080818E70180601000080A5
:1011AC008080808080000021302C222130000000C3
:1011BC000000807C020200000000003F4040000064
:1011CC000000FF00000000000000FF000000000213
:1011DC00027C800000000040403F00000000000640
:1011EC0001010202040400000000000000000000E5
:1011FC00F8B500BFF8BC08BC9E467047F8B500BFF8
:08120C00F8BC08BC9E467047C7
:041214007501000858
:041218004D0100087C
:10121C00020406080000000001020304010203049A
:04122C0006070809A0
:0400000508000BC123
:00000001FF
