:020000040800F2
:1000000000500020E50A0008290B0008290B000811
:10001000290B0008290B0008290B0008000000002C
:10002000000000000000000000000000290B000894
:10003000290B000800000000290B0008290B00080C
:10004000290B0008290B0008290B0008290B0008C0
:10005000290B0008290B0008290B0008290B0008B0
:10006000290B0008290B0008290B0008290B0008A0
:10007000290B0008290B0008290B0008290B000890
:10008000290B0008290B0008290B0008290B000880
:10009000290B0008290B0008290B0008290B000870
:1000A000290B0008290B0008290B0008290B000860
:1000B000290B0008290B0008290B0008290B000850
:1000C000290B0008290B0008290B0008290B000840
:1000D000290B0008150A0008290B0008290B000845
:1000E000290B0008290B0008290B0008000000005C
:1000F0000000000000000000000000000000000000
:0C01000000000000000000005FF808F1A3
:10010C000348044B834202D0034B03B1184770479A
:10011C0014000020140000200000000005480649CF
:10012C000B1AD90F01EBA301491002D0034B03B1F9
:10013C001847704714000020140000200000000035
:10014C0010B5064C237843B9FFF7DAFF044B13B113
:10015C000448AFF300800123237010BD140000206D
:10016C00000000000C01000808B5044B1BB1044949
:10017C000448AFF30080BDE80840CFE70000000062
:10018C00180000200C010008374B82B01A6842F0AE
:10019C0001021A605968354A0A405A601A6822F0FE
:1001AC00847222F480321A601A6822F480221A6057
:1001BC005A6822F4FE025A604FF41F029A60002221
:1001CC00009201921A6842F480321A601A6802F4A2
:1001DC0000320192009A01320092019A1AB9009AE7
:1001EC00B2F5A06FF2D11A6812F4003218BF0122D6
:1001FC000192019A012A30D11D4A116841F0100177
:10020C001160116821F003011160116841F00201C5
:10021C0011605A685A605A685A605A6842F480628F
:10022C005A605A6822F47C125A605A6842F4E812F6
:10023C005A601A6842F080721A601A689201FCD5F2
:10024C005A6822F003025A605A6842F002025A605D
:10025C005A6802F00C02082AFAD14FF00062054BE2
:10026C009A6002B0704700BF001002400000FFF817
:10027C000020024000ED00E0034B40F0BF6040F472
:10028C000030D860704700BF00ED00E070B501256C
:10029C00017801F01F039D40C3784C09C3B10F4B8B
:1002AC00DA684378D243C2F30222C2F1040603FA9D
:1002BC0006F683780F2020FA02F213403343084AE3
:1002CC001B01DBB2114481F8003342F8245070BD9D
:1002DC00034B203443F82450F9E700BF00ED00E055
:1002EC0000E100E02DE9F041CB780F88DA0648BF39
:1002FC008A7803F00F0548BF15430A78D2B1002164
:10030C004FF0010C4FF00F0E02680CFA01F636EAB2
:10031C0007040BD18C000EFA04F822EA080205FA45
:10032C0004F4282B42EA040225D146610131082944
:10033C00EBD10260FF2F1CD900214FF0010C4FF0C4
:10034C000F0E426801F108040CFA04F434EA0706B3
:10035C000BD18E000EFA06F822EA080205FA06F610
:10036C00282B42EA06020AD1446101310829E9D15D
:10037C004260BDE8F081482B08BF0661D6E7482BE8
:10038C0008BF0461F1E701617047416170470AB130
:10039C0001617047416170471B4A10B5536803F007
:1003AC000C03082B1FD0194B03605368184CC3F374
:1003BC000313E15C0368CB4043605168C1F3022135
:1003CC00615C23FA01F181605168C1F3C221615C67
:1003DC00CB40C36052680F49C2F381328A5CB3FBD5
:1003EC00F2F3036110BD53685168C3F38343CC032C
:1003FC0003F1020302D408494B43D5E75168890342
:10040C00F9D40249F8E700BF0010024000127A004C
:10041C00040000200000002000093D00044B9A69F4
:10042C0011B110439861704722EA0000FAE700BF4F
:10043C000010024030B50D460446038A8A899BB2EF
:10044C00C98823F440530B4303828389A98823F47E
:10045C00B05323F00C031B041B0C0B43298987B0EE
:10046C000B4369890B439BB28381838A9BB223F430
:10047C0040731343838201A8FFF78EFFDDE903323B
:10048C0014498C4208BF13461922A18953432A6888
:10049C000D044CBF520092006421B3FBF2F3B3FB8A
:1004AC00F1F001FB10330201A08900044BBFDB000B
:1004BC001B01323332334BBFB3FBF1F3B3FBF1F31C
:1004CC0003F0070303F00F0313439BB2238107B020
:1004DC0030BD00BF00380140838921B19BB243F489
:1004EC0000538381704723F400531B041B0CF8E763
:1004FC00012310B5C1F342149C4201F01F0103FA11
:10050C0001F105D10C3003683AB11943016010BDFB
:10051C00022C0CBF10301430F5E723EA0101F5E78B
:10052C00C1F30801818070478088C0F308007047D0
:10053C000388194214BF012000207047012310B515
:10054C00C1F3421402469C4201F01F0003FA00F072
:10055C000ED1938912889BB2184092B238B1012304
:10056C00090A03FA01F10A4214BF1846002010BD13
:10057C00022C0CBF138A938AECE70123090A8B40E7
:10058C00DB439BB20380704708B500F081F900F0A3
:10059C007DFA00F0C9F90121254A084600F068F9F6
:1005AC0001210320234A00F063F9234E234D3378B5
:1005BC00012BDCB2FBD121460420214A00F058F972
:1005CC00214604202A4600F053F928461D4900F024
:1005DC00A7FA88B900F074FA1B4800F009FA184A17
:1005EC002146022000F044F9184A2146022000F06E
:1005FC003FF900233370DAE72846154900F090FAEA
:10060C0058B900F063FA134800F0F2F90C4A21468D
:10061C00022000F02DF9104AE7E7104800F0E8F945
:10062C00074A2146022000F023F90D4ADDE700BFFE
:10063C00E80C0008F10C000830000020310000200C
:10064C00FA0C00080B0D0008120D00081E0D000816
:10065C00280D0008300D00083D0D0008480D00085D
:10066C00580D000873B501210820FFF7D7FE4FF491
:10067C00807641F203434FF400750D4C01A92046DE
:10068C00ADF80630ADF80460FFF72CFE204601A94A
:10069C00ADF80450FFF726FE314620460122FFF745
:1006AC0076FE012229462046FFF771FE02B070BD8E
:1006BC00000C014010B50D4C012220464FF4007186
:1006CC00FFF765FE204601224FF48071FFF75FFEB5
:1006DC00204600224FF40071FFF759FE2046BDE87A
:1006EC00104000224FF48071FFF751BE000C014006
:1006FC0010B50A4C002220464FF40071FFF747FE5C
:10070C00204601224FF48071FFF741FE2046BDE8E0
:10071C00104001224FF40071FFF739BE000C01406C
:10072C0070B505460024802646FA04F32B4214BF0C
:10073C00012200224FF400710F48FFF728FE01221E
:10074C004FF480710C48FFF722FE013400224FF465
:10075C0080710948FFF71BFE082CE5D101224FF4EC
:10076C0080710548FFF713FEBDE8704000224FF47E
:10077C0080710148FFF70BBE000C014010B5044618
:10078C00FFF798FF7820FFF7CBFF0020FFF7C8FF9B
:10079C002046FFF7C5FFBDE81040FFF7A9BF10B515
:1007AC000446FFF787FF7820FFF7BAFF4020FFF7DA
:1007BC00B7FF2046FFF7B4FFBDE81040FFF798BF26
:1007CC0010B50C4640F0B000FFF7D8FF200940F000
:1007DC001000FFF7D3FF04F00F00BDE81040FFF747
:1007EC00CDBF38B500250021E8B2FFF7E9FF802422
:1007FC000020013CFFF7D3FF14F0FF04F8D10135C2
:10080C00082DF0D138BD00002DE9F84317464FF004
:10081C000809441E4D1E6400ED00E4B2EDB22946F9
:10082C002046FFF7CDFF114E07F18053203B06EB1E
:10083C000318203F18F8010B09F1FF39FFF7AFFF40
:10084C0019F0FF09F6D1601C2946C0B2FFF7B8FFBA
:10085C00082406EB0716083616F8010B013CFFF7C7
:10086C009EFF14F0FF04F7D1BDE8F883660D000875
:10087C00F8B506460F46154600242A5D02B9F8BDA8
:10088C00E1193046C9B20134FFF7BEFFE4B2F4E718
:10089C0008B5FFF7E7FEAE20FFF770FFD520FFF796
:1008AC006DFF8020FFF76AFFA820FFF767FF3F204E
:1008BC00FFF764FFD320FFF761FF0020FFF75EFF17
:1008CC004020FFF75BFFA120FFF758FFC820FFF780
:1008DC0055FFDA20FFF752FF1220FFF74FFF812060
:1008EC00FFF74CFFCF20FFF749FFD920FFF746FF5A
:1008FC00F120FFF743FFDB20FFF740FF3020FFF72D
:10090C003DFFA420FFF73AFFA620FFF737FF8D200D
:10091C00FFF734FF1420FFF731FFAF20FFF72EFF56
:10092C00BDE80840FFF75DBF30B5012187B04FF43B
:10093C008040FFF773FD01210420FFF76FFD4FF49A
:10094C000073ADF8003041F603031F4C6946204696
:10095C00ADF80230FFF7C6FC4FF48063ADF8003001
:10096C0044F6030369462046ADF80230FFF7BAFCA3
:10097C0000234FF41652CDE902234FF44022134DBD
:10098C0002A92846ADF814300492FFF753FD01225A
:10099C0040F225512846FFF7ABFD4FF4A060FFF75E
:1009AC006BFC0124252301A88DF804308DF8074039
:1009BC008DF805408DF80640FFF768FC2146284667
:1009CC00FFF78AFD07B030BD000801400038014038
:1009DC00014610B50548FFF7A3FD044C80212046C5
:1009EC00FFF7A6FD0028F9D010BD00BF003801406C
:1009FC0038B505460024E3B2E85C013400B938BDD3
:100A0C00FFF7E6FFF7E7000038B540F225511B4829
:100A1C00FFF794FD012805462ED11848FFF784FDF9
:100A2C00C2B2402A164C0AD10023164A2370137006
:100A3C0040F22551BDE838401048FFF79EBD2378A1
:100A4C00012BF5D00F490D2A0B7801D00A2A08D1B9
:100A5C00002BEDD000220C48C254012323700A70E5
:100A6C00E6E7622B084803D85C1C0C70C254DFE725
:100A7C0000222570C254F2E738BD00BF0038014097
:100A8C0030000020950000203100002037B50121F6
:100A9C000420FFF7C3FC062541F20303074C01A910
:100AAC002046ADF80630ADF80450FFF71BFC294684
:100ABC002046FFF768FC03B030BD00BF00080140C2
:100ACC0002210148FFF761BC0008014002210148E6
:100ADC00FFF759BC00080140002103E00A4B5B58AA
:100AEC004350043109480A4B42189A42F6D3094A3A
:100AFC0002E0002342F8043B074B9A42F9D3FFF77C
:100B0C0043FBFFF741FD70477813000800000020FD
:100B1C00140000201400002098000020FEE70000C4
:100B2C0080EA010C1CF0030F37D110F0030C20F0FD
:100B3C00030021F0030150F8042B08BF51F8043BCB
:100B4C000ED08CF0030C6FF07F434FEACC0C23FAE1
:100B5C000CFC51F8043B42EA0C0243EA0C0300BFC4
:100B6C00A2F1013C9A4201BF2CEA020C1CF0803F1E
:100B7C0050F8042B51F8043BF2D04FEA02604FEAD4
:100B8C001222012828BFB0EB036F08BF1B0AF4D058
:100B9C0003F0FF03000EC01A704710F0030F0AD0C9
:100BAC0010F8012B11F8013B012A28BF9A42F4D00E
:100BBC00A2EB030070474DF8045D50F8042B01F0D4
:100BCC00030521F0030151F8043B022D26D04DD82A
:100BDC0022F07F45B5EB132FA2F1013C2CEA020C5D
:100BEC000DD11CF0803C08BF51F8043B0AD185EABA
:100BFC000205B5EB036F0CD150F8042BE8E74FEA74
:100C0C0013235BE03CF07F4C54D10B784FEA126518
:100C1C0054E04FEA126503F0FF034FE04FEA024540
:100C2C00A2F1013C4FEA15452CEA020CB5EB134F2F
:100C3C0018D11CF0803C08BF51F8043B07D185EA61
:100C4C000205B5EB034F09D150F8042BE6E75FEA38
:100C5C000C4C2FD10B884FEA12452FE04FEA03437F
:100C6C004FEA12454FEA134328E000BF02F0FF059C
:100C7C00B5EB136FA2F1013C2CEA020C0DD11CF068
:100C8C00803C08BF51F8043B0AD185EA0205B5EB5C
:100C9C00032F0AD150F8042BE8E74FEA13630DE059
:100CAC0012F0FF0F06D051F8043B4FEA122523F047
:100CBC007F4303E04FF0000020BC704705F0FF02BB
:100CCC0003F0FF00012828BF904204BF2D0A1B0A25
:100CDC00F4D0A2EB000020BC704700BF54785061E8
:100CEC00636B65740052785061636B6574002020EF
:100CFC002020202020202020202020202020004CDC
:100D0C0045445F4F4E004C45445F4F4E5F4F4B0D7B
:100D1C000A004C45445F4F4E5F4F4B004C45445FBF
:100D2C004F4646004C45445F4F46465F4F4B0D0ABD
:100D3C00004C45445F4F46465F4F4B004552524F67
:100D4C00525F434F4D4D414E440D0A004552524F98
:100D5C00525F434F4D4D414E4400000000000000D7
:100D6C0000000000000000000000000000F800007F
:100D7C000000000000333000000000100C06100CC6
:100D8C000600000000000000000040C07840C07861
:100D9C004000043F04043F040400007088FC083049
:100DAC000000001820FF211E0000F008F000E018E1
:100DBC00000000211C031E211E0000F0088870009A
:100DCC0000001E2123241927211010160E000000EC
:100DDC0000000000000000000000000000E018040B
:100DEC000200000000071820400000020418E00078
:100DFC0000000040201807000000404080F08040B8
:100E0C0040000202010F01020200000000F000008D
:100E1C0000000101011F01010100000000000000A1
:100E2C00000080B070000000000000000000000016
:100E3C00000000010101010101010000000000009F
:100E4C000000003030000000000000000000806056
:100E5C001804006018060100000000E010080810DB
:100E6C00E000000F102020100F00001010F8000000
:100E7C0000000020203F2020000000700808088897
:100E8C007000003028242221300000300888884867
:100E9C0030000018202020110E000000C02010F897
:100EAC00000000070424243F240000F80888880868
:100EBC0008000019212020110E0000E0108888186D
:100ECC000000000F112020110E0000380808C8384F
:100EDC0008000000003F000000000070880808882F
:100EEC007000001C222121221C0000E010080810B8
:100EFC00E0000000312222110F00000000C0C000F1
:100F0C0000000000003030000000000000800000F5
:100F1C0000000000806000000000000080402010F5
:100F2C0008000001020408102000404040404040EE
:100F3C004000040404040404040000081020408051
:100F4C000000002010080402010000704808080886
:100F5C00F0000000003036010000C030C828E81056
:100F6C00E0000718272423140B000000C038E00011
:100F7C000000203C23020227382008F8888888705B
:100F8C000000203F202020110E00C0300808080867
:100F9C003800071820202010080008F8080808104E
:100FAC00E000203F202020100F0008F88888E80877
:100FBC001000203F20202320180008F88888E8081B
:100FCC001000203F200003000000C0300808083843
:100FDC00000007182020221E020008F80800000854
:100FEC00F808203F210101213F20000808F80808DB
:100FFC0000000020203F2020000000000808F80816
:10100C000800C08080807F00000008F888C0281885
:10101C000800203F20012638200008F808000000B6
:10102C000000203F20202020300008F8F800F8F8BD
:10103C000800203F003F003F200008F830C00008A7
:10104C00F808203F200007183F00E010080808109F
:10105C00E0000F10202020100F0008F808080808E6
:10106C00F000203F210101010000E01008080810E9
:10107C00E0000F18242438504F0008F8888888881E
:10108C007000203F2000030C3020007088080808F6
:10109C0038000038202121221C00180808F8080804
:1010AC0018000000203F2000000008F8080000088D
:1010BC00F808001F202020201F000878880000C896
:1010CC003808000007380E010000F80800F8000886
:1010DC00F800033C0700073C030008186880806890
:1010EC00180820302C03032C30200838C800C838CE
:1010FC0008000000203F2000000010080808C83835
:10110C0008002038262120201800000000FE0202D2
:10111C0002000000007F40404000000C30C0000086
:10112C000000000000010638C00000020202FE00B0
:10113C000000004040407F0000000000040202025A
:10114C00040000000000000000000000000000008F
:10115C00000080808080808080800002020400007B
:10116C000000000000000000000000008080808073
:10117C0000000019242222223F2008F80080800061
:10118C000000003F112020110E0000000080808024
:10119C000000000E1120202011000000008080882B
:1011AC00F800000E112020103F200000808080806D
:1011BC000000001F222222221300008080F0888869
:1011CC0088180020203F20200000000080808080B4
:1011DC008000006B94949493600008F800808080E9
:1011EC000000203F210000203F2000809898000044
:1011FC0000000020203F2020000000000080989874
:10120C00000000C08080807F000008F80000808013
:10121C008000203F24022D302000000808F8000038
:10122C0000000020203F20200000808080808080F3
:10123C008000203F20003F20003F80800080808085
:10124C000000203F210000203F2000008080808093
:10125C000000001F202020201F00808000808000C4
:10126C00000080FFA12020110E0000000080808073
:10127C008000000E112020A0FF80808080008080E4
:10128C00800020203F212000010000008080808011
:10129C0080000033242424241900008080E0808006
:1012AC0000000000001F2020000080800000008053
:1012BC008000001F202020103F20808080000080B4
:1012CC00808000010E3008060100808000800080C4
:1012DC0080800F300C030C300F0000808000808069
:1012EC0080000020312E0E31200080808000008094
:1012FC00808080818E701806010000808080808044
:10130C0080000021302C2221300000000000807C65
:10131C00020200000000003F404000000000FF00FF
:10132C00000000000000FF0000000002027C8000B2
:10133C0000000040403F00000000000601010202D6
:10134C00040400000000000000000000F8B500BF1D
:10135C00F8BC08BC9E467047F8B500BFF8BC08BC8A
:04136C009E467047E2
:0413700075010008FB
:041374004D0100081F
:10137800020406080000000001020304010203043D
:041388000607080943
:0400000508000AE500
:00000001FF
