:020000040800F2
:10000000005000204D0800089108000891080008E1
:1000100091080008910800089108000800000000FD
:10002000000000000000000000000000910800082F
:1000300091080008000000009108000891080008DD
:10004000910800089108000891080008910800082C
:10005000910800089108000891080008910800081C
:10006000910800089108000891080008910800080C
:1000700091080008910800089108000891080008FC
:1000800091080008910800089108000891080008EC
:1000900091080008910800089108000891080008DC
:1000A00091080008910800089108000891080008CC
:1000B00091080008910800089108000891080008BC
:1000C00091080008910800089108000891080008AC
:1000D000910800089108000891080008910800089C
:1000E000910800089108000891080008000000002D
:1000F0000000000000000000000000000000000000
:0C01000000000000000000005FF808F1A3
:10010C000348044B834202D0034B03B1184770479A
:10011C007800002078000020000000000548064907
:10012C000B1AD90F01EBA301491002D0034B03B1F9
:10013C00184770477800002078000020000000006D
:10014C0010B5064C237843B9FFF7DAFF044B13B113
:10015C000448AFF300800123237010BD7800002009
:10016C00000000000C01000808B5044B1BB1044949
:10017C000448AFF30080BDE80840CFE70000000062
:10018C007C0000200C010008374B82B01A6842F04A
:10019C0001021A605968354A0A405A601A6822F0FE
:1001AC00847222F480321A601A6822F480221A6057
:1001BC005A6822F4FE025A604FF41F029A60002221
:1001CC00009201921A6842F480321A601A6802F4A2
:1001DC0000320192009A01320092019A1AB9009AE7
:1001EC00B2F5A06FF2D11A6812F4003218BF0122D6
:1001FC000192019A012A30D11D4A116841F0100177
:10020C001160116821F003011160116841F00201C5
:10021C0011605A685A605A685A605A6842F480628F
:10022C005A605A6822F47C125A605A6842F4E812F6
:10023C005A601A6842F080721A601A689201FCD5F2
:10024C005A6822F003025A605A6842F002025A605D
:10025C005A6802F00C02082AFAD14FF00062054BE2
:10026C009A6002B0704700BF001002400000FFF817
:10027C000020024000ED00E02DE9F041CB780F8822
:10028C00DA0648BF8A7803F00F0548BF15430A7891
:10029C00D2B100214FF0010C4FF00F0E02680CFA96
:1002AC0001F636EA07040BD18C000EFA04F822EAA8
:1002BC00080205FA04F4282B42EA040225D146610F
:1002CC0001310829EBD10260FF2F1CD900214FF01E
:1002DC00010C4FF00F0E426801F108040CFA04F403
:1002EC0034EA07060BD18E000EFA06F822EA080251
:1002FC0005FA06F6282B42EA06020AD144610131BE
:10030C000829E9D14260BDE8F081482B08BF06619D
:10031C00D6E7482B08BF0461F1E70AB101617047C9
:10032C00416170471B4A10B5536803F00C03082B4E
:10033C001FD0194B03605368184CC3F30313E15CD3
:10034C000368CB4043605168C1F30221615C23FA1E
:10035C0001F181605168C1F3C221615CCB40C36083
:10036C0052680F49C2F381328A5CB3FBF2F303612A
:10037C0010BD53685168C3F38343CC0303F10203EC
:10038C0002D408494B43D5E751688903F9D4024993
:10039C00F8E700BF0010024000127A0004000020B1
:1003AC000000002000093D00044B9A6911B1104374
:1003BC009861704722EA0000FAE700BF0010024083
:1003CC0030B50D460446038A8A899BB2C98823F44A
:1003DC0040530B4303828389A98823F4B05323F041
:1003EC000C031B041B0C0B43298987B00B43698935
:1003FC000B439BB28381838A9BB223F440731343D8
:10040C00838201A8FFF78EFFDDE9033214498C4289
:10041C0008BF13461922A18953432A680D044CBF07
:10042C00520092006421B3FBF2F3B3FBF1F001FB39
:10043C0010330201A08900044BBFDB001B013233D7
:10044C0032334BBFB3FBF1F3B3FBF1F303F0070310
:10045C0003F00F0313439BB2238107B030BD00BFE1
:10046C0000380140838921B19BB243F4005383814E
:10047C00704723F400531B041B0CF8E7C1F308016D
:10048C00818070470388194214BF012000207047F7
:10049C0000B59BB000F005F900F050F9412000F0D8
:1004AC007DF9114B04216846009300F087F90F4841
:1004BC0000F08FF903216F2000F096F9DE210C4833
:1004CC0000F04AFA40F24D120A4901A800F07CFAF9
:1004DC0001A800F07EF908484FF4DE7100F09DF998
:1004EC00064800F09AF9FEE74243444558260008B6
:1004FC00602600086A260008742600087E2600087C
:10050C0073B501210820FFF74FFF4FF4807641F2BD
:10051C0003434FF400750D4C01A92046ADF806308D
:10052C00ADF80460FFF7A8FE204601A9ADF8045011
:10053C00FFF7A2FE314620460122FFF7EEFE012214
:10054C0029462046FFF7E9FE02B070BD000C0140C1
:10055C0010B50D4C012220464FF40071FFF7DDFE63
:10056C00204601224FF48071FFF7D7FE204600226F
:10057C004FF40071FFF7D1FE2046BDE81040002279
:10058C004FF48071FFF7C9BE000C014010B50A4C46
:10059C00002220464FF40071FFF7BFFE20460122D7
:1005AC004FF48071FFF7B9FE2046BDE810400122E0
:1005BC004FF40071FFF7B1BE000C014070B5054659
:1005CC000024802646FA04F32B4214BF0122002299
:1005DC004FF400710F48FFF7A0FE01224FF4807119
:1005EC000C48FFF79AFE013400224FF48071094841
:1005FC00FFF793FE082CE5D101224FF480710548DA
:10060C00FFF78BFEBDE8704000224FF4807101486B
:10061C00FFF783BE000C014010B50446FFF798FFAE
:10062C007820FFF7CBFF0020FFF7C8FF2046FFF72D
:10063C00C5FFBDE81040FFF7A9BF10B50446FFF792
:10064C0087FF7820FFF7BAFF4020FFF7B7FF20465F
:10065C00FFF7B4FFBDE81040FFF798BF10B50C468C
:10066C0040F0B000FFF7D8FF200940F01000FFF772
:10067C00D3FF04F00F00BDE81040FFF7CDBF38B535
:10068C0000250021E8B2FFF7E9FF80240020013C9F
:10069C00FFF7D3FF14F0FF04F8D10135082DF0D18A
:1006AC0038BD08B5FFF72CFFAE20FFF7B5FFD520FE
:1006BC00FFF7B2FF8020FFF7AFFFA820FFF7ACFFDA
:1006CC003F20FFF7A9FFD320FFF7A6FF0020FFF77D
:1006DC00A3FF4020FFF7A0FFA120FFF79DFFC8203C
:1006EC00FFF79AFFDA20FFF797FF1220FFF794FF2E
:1006FC008120FFF791FFCF20FFF78EFFD920FFF766
:10070C008BFFF120FFF788FFDB20FFF785FF302000
:10071C00FFF782FFA420FFF77FFFA620FFF77CFFE7
:10072C008D20FFF779FF1420FFF776FFAF20FFF73E
:10073C0073FFBDE80840FFF7A2BF000010B5012110
:10074C0086B04FF48040FFF72FFE01210420FFF705
:10075C002BFE4FF40073ADF8043041F6030301A9EE
:10076C000C48ADF80630FFF787FD00234FF4165206
:10077C00CDE902234FF40022074C02A92046049233
:10078C00ADF81430FFF71CFE01212046FFF76AFE7E
:10079C0006B010BD0008014000380140014610B5FC
:1007AC000548FFF76BFE044C80212046FFF76AFEDC
:1007BC000028F9D010BD00BF0038014038B5044600
:1007CC004518AC4200D138BD14F8010BFFF7E6FF19
:1007DC00F7E738B505460024E3B2E85C013400B90C
:1007EC0038BDFFF7DBFFF7E770B505460A264C1E50
:1007FC00631C0FD170BD7343013AFCD2B5FBF3F30C
:10080C00B3FBF6F006FB10333033D8B2FFF7C6FF5C
:10081C00013CEDE722460123EEE70FB400B59BB097
:10082C001CAA52F8041B01A8009200F0EFF801A8D2
:10083C00FFF7CFFF1BB05DF804EB04B0704700006E
:10084C00002103E00A4B5B584350043109480A4B22
:10085C0042189A42F6D3094A02E0002342F8043BBC
:10086C00074B9A42F9D3FFF78FFCFFF711FE704745
:10087C0044270008000000207800002078000020A9
:10088C00A4000020FEE70000830730B548D0541EBA
:10089C00002A3FD00346CAB201E0013C3AD303F828
:1008AC00012B9D07F9D1032C2DD9CDB245EA052595
:1008BC000F2C45EA054536D9A4F1100222F00F0C95
:1008CC0003F1200EE6444FEA121C03F1100242E938
:1008DC00045542E9025510327245F8D10CF101026F
:1008EC0014F00C0F03EB021204F00F0C13D0ACF14C
:1008FC00040323F003030433134442F8045B9342D0
:10090C00FBD10CF003042CB1CAB21C4403F8012B2C
:10091C009C42FBD130BD64461346002CF4D1F9E760
:10092C0003461446BFE71A46A446E0E70EB410B5DA
:10093C00044683B008B183695BB106AB2046059AC7
:10094C00A168019300F080FC03B0BDE8104003B037
:10095C00704700F085F9F0E70FB410B50A4B82B080
:10096C001C680CB1A3695BB105AB2046049AA16865
:10097C00019300F069FC02B0BDE8104004B0704770
:10098C00204600F06DF9EFE7140000200CB430B5F0
:10099C000C466FF000459DB00A4A20AB059253F807
:1009AC00042B02A9CDE9013407950495069400F0B7
:1009BC00F7FA0022029B1A701DB0BDE8304002B05D
:1009CC00704700BF0802FFFF0EB430B504466FF04D
:1009DC0000459CB00B4A1FAB0B49059253F8042BF6
:1009EC00086802A9CDE9013407950495069400F036
:1009FC00D7FA0022029B1A701CB0BDE8304003B03D
:100A0C00704700BF0802FFFF140000208C4630B571
:100A1C0004466FF000451346084A9BB01068084A1C
:100A2C00694603926246059502950094049400F081
:100A3C00B7FA0022009B1A701BB030BD14000020C6
:100A4C000802FFFF30B50C466FF0004507499BB01C
:100A5C0003916946059502950094049400F0A0FA60
:100A6C000022009B1A701BB030BD00BF0802FFFFB4
:100A7C0000207047014900F033B900BFAD1C0008DD
:100A8C0000207047682270B54D1E02FB05F50E461E
:100A9C0005F1740100F048F9044640B100210C3016
:100AAC00C4E9016005F168022160FFF7EDFE204604
:100ABC0070BD00BF274B2DE9F0411E680746B36996
:100ACC0053B34FF004084836D6E90134013B04D542
:100ADC001EE05A1C04F168041AD0B4F90C50013B06
:100AEC00002DF6D11C4B08222946C4E90055C4E957
:100AFC000253C4E904556566A56104F15C00FFF777
:100B0C00C3FEC4E90D55C4E912552046BDE8F08179
:100B1C0035682DB12E46D7E7304600F01FF8D0E7E8
:100B2C004FF4D671384600F0FFF8044668B1056002
:100B3C0029460546C0F804800C304FF4D072A060F2
:100B4C00FFF7A2FE34602E46BEE70C2330603B60FC
:100B5C00DBE700BF842600080100FFFF0023334AB7
:100B6C002DE9F0471268C0E912339042036508BFC3
:100B7C0001232F4908BF836181620546FFF79AFF65
:100B8C00034628466B60FFF795FFA86028460024B3
:100B9C00FFF790FF04236E68DFF898A0DFF89890B9
:100BAC00DFF89880264FE8600822F3602146C6E9FA
:100BBC000044C6E904447466B460B46106F15C0098
:100BCC00FFF762FE1F4BC6E9086AC6E90A9837634D
:100BDC00AE680822F3602146C6E90044C6E9044425
:100BEC007466B460B46106F15C00FFF74DFE164B01
:100BFC00C6E9086AC6E90A983763EE682146F360CD
:100C0C000822C6E90044C6E904447466B460B461C1
:100C1C0006F15C00FFF738FE0123C6E9086AC6E955
:100C2C000B87C6F82890AB61BDE8F08784260008D6
:100C3C00810A0008FD18000825190008651900082C
:100C4C00851900080900010012000200024B03493B
:100C5C00186800F045B800BF84260008AD1C0008D9
:100C6C00836903B97AE77047704700BF704700BFCC
:100C7C00704700BF704700BF024B0349186800F073
:100C8C000FB800BF140000207D0A0008024B034976
:100C9C00186800F005B800BF140000208D0A000889
:100CAC002DE9F0410026884600F14807D7E90154A8
:100CBC00013D0ED4A389013D012B06D9B4F90E30A8
:100CCC00013302D02046C04706436B1C04F1680474
:100CDC00F0D13F68002FE9D13046BDE8F08100BF6C
:100CEC002DE9F8434FF000090746884600F1480605
:100CFC00D6E90154013D10D4A389013D012B08D93B
:100D0C00B4F90E30013304D021463846C04749EAC5
:100D1C0000096B1C04F16804EED13668002EE7D193
:100D2C004846BDE8F88300BFF8B5CD1C25F0030597
:100D3C0008350C2D38BF0C25002D064623DBA942A7
:100D4C0021D8264F01F06CFB3A6822B3144603E01D
:100D5C0063682246FBB11C4623685B1BF8D40B2B43
:100D6C0015D8636894420CBF3B605360304601F069
:100D7C0059FB04F10B00231D20F00700C21A01D00F
:100D8C001B1AA350F8BD0C2300203360F8BD236060
:100D9C001C442560EAE77968D1B12946304600F059
:100DAC0095FD431C01460CD0C41C24F00304A04246
:100DBC0005D03046611A00F089FD013001D0256064
:100DCC00D4E70C233046336001F02CFB0020F8BD37
:100DDC00304600F07BFD7860DFE700BF9400002018
:100DEC002DE9F0478F680C469F421D46164638D8B1
:100DFC008246888910F4906F0ED13D4608682A46C9
:100E0C00314601F091FA0020A2682368D21B2B44D2
:100E1C00A2602360BDE8F0874B69096903EB4308C6
:100E2C00236808EBD878A3EB01096B1C4FEA680820
:100E3C004B444345424684BF98464246430513D52E
:100E4C0011465046FFF770FF074608B34A46216922
:100E5C0001F0F4F9A38923F4906343F08003A38198
:100E6C0007E01F460868CAE7504601F043FB0746F7
:100E7C0050B107EB0900A8EB09032761C4F81480F3
:100E8C002F46A3602060BAE75046216901F0CCFAE6
:100E9C000C23CAF80030A3894FF0FF3043F0400315
:100EAC00A381B7E72DE9F04F9368914683B0002BEF
:100EBC006ED0176880460C4608688D68083744E089
:100ECC00B4F80CC01CF4906F2ED0D4E90413451A5E
:100EDC0003EB430303EBD373AA194FEA630A531CC6
:100EEC005345524684BF9A4652461CF4806F36D006
:100EFC0011464046FFF718FF00283AD02A462169D0
:100F0C00019001F09BF9A289019B22F4906242F0BE
:100F1C008002A2815819AAEB0505A560C4F814A09B
:100F2C003546B246236120605946524601F0FCF921
:100F3C00D9F80830A16820684D1B50449E1BA56051
:100F4C002060C9F808601EB3083757E902B6002EB6
:100F5C00FAD0B542AA46B3D93546B246E4E7404684
:100F6C0001F0C8FA03460028D4D14046216901F0AB
:100F7C005BFA0C2300224FF0FF30C8F80030A38935
:100F8C0043F04003A381C9E9012203B0BDE8F08F0F
:100F9C0000231846C9F8043003B0BDE8F08F00BF39
:100FAC002DE9F04F1C468B890F461D068046924654
:100FBC009DB003D50B69002B00F0F380002309933F
:100FCC00302320228DF82A309AF800300394012522
:100FDC007B4C8DF82920002B76D0D14603E019F8F4
:100FEC00013F002B79D0252BF9D1B9EB0A0B77D126
:100FFC0099F80020002A67D000234FF0FF3209F146
:10100C000109CDE90523049307938DF853301A9306
:10101C0004E0001B05FA00F018430490CA460522B0
:10102C00204619F8011B01F0C1F8049B0028F0D1EF
:10103C00D80644BF20228DF85320190748BF2B2215
:10104C009AF8001048BF8DF853202A2956D1039ADC
:10105C0011680432002903927EDB07919AF8011083
:10106C000AF1010A2E295BD0DFF858910322484679
:10107C0001F09CF848B14022049BA0EB090002FA55
:10108C0000F003430AF1010A04931AF8011B06222B
:10109C004D488DF8281001F089F8002862D04B4B90
:1010AC00002B52D003A900913A464046484B04A964
:1010BC00AFF300800646721C06D0099B334409939B
:1010CC009AF80030002B88D1BB895B064CBF4FF0DF
:1010DC00FF3009981DB0BDE8F08FB9EB0A0BF3D0C7
:1010EC005B46524639464046FFF77AFE0130EBD05C
:1010FC00099B99F800205B4409937BE7A1F130022E
:10110C00092AAFD8079B1AF8011F03EB830302EBE4
:10111C004303A1F13002092AF5D92E290793A3D153
:10112C009AF801102A2927D1039B0AF102001A68A8
:10113C000433002A0393B8BF4FF0FF339AF8021020
:10114C0005928246B8BF05938EE7039B073323F0C5
:10115C00070308330393B0E7494243F002030791B6
:10116C0004937BE703A900913A464046184B04A927
:10117C0000F056FA06469EE70023A1F13002092A38
:10118C000AF1010A05933FF66FAF1AF8011F03EB42
:10119C00830302EB4303A1F13002092AF5D905932D
:1011AC0062E74021FFF7C0FD3860386110B1402381
:1011BC007B6103E70C234FF0FF30C8F8003089E760
:1011CC00E8260008F0260008F426000800000000BD
:1011DC00ED0D00089368013B002B936005DAD2F803
:1011EC0018C0634507DB0A2905D01368581C10602A
:1011FC0008461970704700F0C3BB00BF9BB1F8B52F
:10120C00134406460F46541E5D1E01E0AC4208D046
:10121C003A46304614F8011FFFF7DCFF431CF5D1AA
:10122C00F8BD0020F8BD0020704700BF936810B5D2
:10123C00144613B91846536010BD00F09BFD0023F3
:10124C00C4E9013310BD00BF2DE9F04F0E469246A4
:10125C001C4607469FB018B18369002B00F0A8808C
:10126C00954B9E4200F0AA80944B9E4200F0B580B4
:10127C00934B9E4208BFFE68B389180740F1A380C8
:10128C003369002B00F09F80002320220B93302326
:10129C009AF80010059401258A4C8DF831208DF8B0
:1012AC00323000297DD0D1460B4604E019F8013FBD
:1012BC00002B00F09480252BF8D1B9EB0A0B40F0F1
:1012CC00918099F80030002B6BD000234FF0FF3247
:1012DC0009F10109CDE90723069309938DF85B30D9
:1012EC001C9304E0001B05FA00F018430690CA4654
:1012FC000522204619F8011B00F058FF069B002818
:10130C00F0D1D90644BF20228DF85B201A0748BFC4
:10131C002B229AF8001048BF8DF85B202A2972D135
:10132C00059A1168043200290592C0F2A080099137
:10133C009AF801100AF1010A2E2976D0DFF888916B
:10134C000322484600F032FF48B14022069BA0EB36
:10135C00090002FA00F003430AF1010A06931AF895
:10136C00011B062259488DF8301000F01FFF002891
:10137C0000F08380564B002B6CD005A900913246AF
:10138C003846544B06A9AFF300800390039B0133FE
:10139C0007D00B9B039A9AF8001013440B93002967
:1013AC0081D1B3895B0615D40B981FB0BDE8F08FC3
:1013BC00FFF756FC404B9E427FF456AF7E68B389D4
:1013CC0018073FF55DAF3146384600F051FB002859
:1013DC003FF45AAF4FF0FF30E7E7BE684CE7B9EB8C
:1013EC000A0BDED0D046CAF1010A03E0934538D986
:1013FC0018F8011F32463846FFF7ECFE01300AEBB5
:10140C000802F3D1CDE7A1F13002092A94D8099B47
:10141C001AF8011F03EB830302EB4303A1F1300223
:10142C00092AF5D92E29099388D19AF801102A296D
:10143C002DD1059B0AF102001A680433002A05938A
:10144C00B8BF4FF0FF339AF8021007928246B8BF2C
:10145C00079373E7059B073323F0070308330593C2
:10146C0097E70B9A99F800305A440B922BE74942B4
:10147C0043F00203099106935AE705A900913246FD
:10148C003846144B06A900F0CBF803907EE70023F6
:10149C00A1F13002092A0AF1010A07933FF64EAF77
:1014AC001AF8011F03EB830302EB4303A1F1300293
:1014BC00092AF5D9079341E7C8260008A826000891
:1014CC0088260008E8260008F0260008F426000804
:1014DC0000000000091200088C4600B58646134631
:1014EC00034A714610685DF804EB6246FFF7ACBE28
:1014FC00140000202DE9F04791461E460A698B68BE
:10150C000C469A42B8BF1A46C9F8002091F84330ED
:10151C000546DDF8208013B10132C9F8002022689D
:10152C0091065DD5D9F800300233C9F80030226835
:10153C0012F0060F11461ED1E168CB1A002BD8BF52
:10154C00114618DD002704F1190A06E0D9F800301D
:10155C00E268A2EB030CBC450CDD0123524631467C
:10156C002846C047013007F10107EFD14FF0FF309B
:10157C00BDE8F087216894F84330003B18BF012385
:10158C008A060AD53021E21882F8431094F84510E7
:10159C005A1C2244023382F843103146284604F187
:1015AC004302C0470130E1D0236803F00603042B4B
:1015BC001DD0A3682269934225DD00279B1A1F4486
:1015CC0004F11A09002401E0BC421CDA01234A464A
:1015DC0031462846C047013004F10104F4D1C5E777
:1015EC0012F0060F12D0003B18BF0123D5E7D9F833
:1015FC000030E1682269C91AA36821EAE1779342B5
:10160C00DCDC0029DCDC0020BDE8F087E168D9F8DF
:10161C000030CB1A002BD8BF114693DCABE700BFD0
:10162C002DE9F04317460A7E85B00C4606469846CF
:10163C000C9D01F1430C002A33D0A2F15803D9B20E
:10164C00202967D8202B65D8DFE813F0DD00640073
:10165C00640064006400640064006400640064005E
:10166C006400A3006E0064006400640064006E00FB
:10167C00640064006400640021007F00BF0064000B
:10168C006400AE0064007F0064006400E400236822
:10169C001A0640F102812B686269191D29601B68CA
:1016AC001A600023E14623613B4621463046CDF8C3
:1016BC00008003AAFFF71EFF013020D04A463946AE
:1016CC0030462369C047013019D02368E0689B0776
:1016DC00039919D5431A002B16DD002504F11909BD
:1016EC0004E0E0680399431AAB420DDD01234A463E
:1016FC0039463046C047013005F10105F1D14FF0B4
:10170C00FF3005B0BDE8F0838842B8BF084605B08D
:10171C00BDE8F083012384F8422004F142092361DF
:10172C00002384F84330BFE72368190602D45A0615
:10173C0000F1BF8029680A68043129601146002A2B
:10174C006ADB0A25DFF87CE110E02368180640F11B
:10175C009A802B68191D296019686F2A0CBF0825FF
:10176C000A25DFF860E1002384F843306268002A20
:10177C00A2607DDB236823F004032360002959D188
:10178C00002A77D1E146082D63D0ACEB0903236125
:10179C008AE701222B6804F14209196804332B6093
:1017AC0084F842102261BBE72B6800211A1D2A60C5
:1017BC00D3F800906268484600F0F8FC00287FD00F
:1017CC00A0EB090060602061AAE7236843F02003C6
:1017DC0023607822DFF8F0E084F845202A68111D98
:1017EC002960190642D45D0640D51188D80744BF3C
:1017FC0043F020032360002943D12368102523F0F4
:10180C0020032360AFE75823DFF8B8E084F84530B5
:10181C002368E3E72368DCE72D2284F84320626821
:10182C004942002AA26002DB23F0040323600A254C
:10183C00DFF890E0E146B1FBF5F30A4605FB131027
:10184C0019461EF80030AA4209F8013DF3D2082DC2
:10185C009BD12368D90798D5626823699A4294DC96
:10186C00302309F1FF3989F800308EE71168BDE7A4
:10187C000029DFD19EF8003004F1420984F842308F
:10188C0081E710256FE713F0400F2B6803F104017B
:10189C0029600CBF196819885FE713F0400F2B689B
:1018AC00626903F1040129601B6814BF1A801A6075
:1018BC00F7E62A68B2F9001004322A600A463EE7BD
:1018CC00606880E7FC26000810270008002238B565
:1018DC00064D044608462A6000F0A2FE431C00D0C8
:1018EC0038BD2B68002BFBD0236038BD9C0000203A
:1018FC0010B50C46B1F90E1000F024FE002803DBE5
:10190C00636D0344636510BDA38923F48053A381E5
:10191C0010BD00BF002070472DE9F0410C46B1F915
:10192C000C101F46CB05054616460BD421F48051EE
:10193C00A1813B4632462846B4F90E10BDE8F04171
:10194C0000F080B8B4F90E100223002200F08AFBDC
:10195C00B4F90C10EAE700BF10B50C46B1F90E1043
:10196C0000F080FBA389421C0EBF23F4805343F488
:10197C0080536065A38110BDB1F90E1000F0FAB868
:10198C00F8B506460D46144608B1836943B3254B9A
:10199C009C422AD0244B9C4229D0244B9C4208BF09
:1019AC00F468A269A389A2601A0722D5236903B33C
:1019BC0022686169D31AEDB299422F4629DD0133B1
:1019CC00A1680139A160511C2160157062699A42AD
:1019DC0016D0A389DB0701D50A2D11D03846F8BDE6
:1019EC00FFF73EF90F4B9C42D4D17468D9E7B46829
:1019FC00D7E72146304600F03BF838B92369D7E7E2
:101A0C002146304600F04CF90028E7D04FF0FF3764
:101A1C00E4E72146304600F043F90028F6D10123D3
:101A2C002268CDE7C8260008A826000888260008EA
:101A3C0003460A46024908681946FFF7A1BF00BFD2
:101A4C001400002038B50C46114600228446074D80
:101A5C0020462A601A46644600F0F0FD431C00D074
:101A6C0038BD2B68002BFBD0236038BD9C000020B8
:101A7C003C4B70B51D6806460C460DB1AB69E3B125
:101A8C00394B9C421FD0394B9C424DD0384B9C4219
:101A9C0008BFEC68B4F90C3018079AB219D5216953
:101AAC0011B312F001002FD000256069A5604042EF
:101ABC00A06100292ED0002070BD2846FFF7D0F879
:101ACC00294B9C42DFD16C68B4F90C3018079AB2E0
:101ADC00E5D4D1063ED5520728D4216943F008033A
:101AEC00A3819AB20029DCD102F42070B0F5007FFA
:101AFC00D7D02146304600F0CBFAB4F90C3021692E
:101B0C009AB212F00100CFD1950758BF6069A0605E
:101B1C000029D0D1120658BF0846CDD543F040035A
:101B2C004FF0FF30A38170BDAC68B3E7616B51B16E
:101B3C0004F14402914204D0304600F075FCB4F933
:101B4C000C30002262630022216923F02403C4E9D3
:101B5C000012C3E7092243F0400332604FF0FF301C
:101B6C00A38170BD14000020C8260008A826000818
:101B7C0088260008002238B5064D044608462A601F
:101B8C0000F026FD431C00D038BD2B68002BFBD089
:101B9C00236038BD9C000020F8B58B890C461907D2
:101BAC0007463BD46268002A55DDE66A002E50D009
:101BBC0000223D683A6013F4805250D1012338461C
:101BCC00216AB047421C5CD0A389E66A5B0705D545
:101BDC006368C01A636B0BB1236CC01A0246216A8E
:101BEC0000233846B047411C3BD13B68002B38D012
:101BFC001D2B01D0162B4BD100232269C4E90023E5
:101C0C00616B3D6029B304F14403994202D038461C
:101C1C0000F00AFC002318466363F8BD2669C6B1C0
:101C2C009A0718BF0023256808BF63692660AD1B9F
:101C3C00A3600CE02B463246D4F828C03846216A03
:101C4C00E047B0F1000CA5EB0C05664412DD002D4D
:101C5C00F0DC0020F8BD226C002AA6DCF9E7606DF0
:101C6C00B4E70022236962602360A389DB04C7D533
:101C7C006065C5E7A3894FF0FF3043F04003A381B3
:101C8C00F8BD3B68002B9FD01D2B06D0162B04D023
:101C9C00A38943F04003A381F8BD00203D60F8BD4B
:101CAC0038B50B69BBB10C46054608B18369B3B1B5
:101CBC000D4B9C4211D00D4B9C4213D00C4B9C42B3
:101CCC0008BFEC68B4F90C302BB121462846BDE8AE
:101CDC003840FFF761BF002038BD6C68F2E7FEF7B3
:101CEC00BFFFE5E7AC68EDE7C8260008A8260008AA
:101CFC008826000838B540B303690446E3B1174B96
:101D0C001D680DB1AB69CBB1154B9C420FD0154B77
:101D1C009C4221D0144B9C4208BFEC68B4F90C30A7
:101D2C0053B121462846BDE83840FFF735BF6C68F3
:101D3C00B4F90C30002BF4D1002038BD2846FEF746
:101D4C008FFF074B9C42E2D1F1E7084B084918681A
:101D5C00BDE83840FEF7C4BFAC68DFE714000020D4
:101D6C00C8260008A8260008882600088426000833
:101D7C00AD1C00089368002B00F0B7802DE9F04FE4
:101D8C00B1F90C300C4619078046174683B098B24F
:101D9C0025D523691BB310F002033D682DD04FF0FD
:101DAC00000B5E46DFF8B8A2002E00F08B80564583
:101DBC0033465A4628BF53464046216AD4F828C0B9
:101DCC00E047002840F38780BB6883441B1A361A0F
:101DDC00BB60002BE8D1002003B0BDE8F08F21469A
:101DEC004046FFF745FE002840F03681B4F90C3030
:101DFC003D6898B210F00203D1D110F0010976D1F0
:101E0C004E46002E5AD08205D4F808B040F1B58069
:101E1C00B3455A4600F2CD8010F4906F00F0CB80A1
:101E2C0023682169A3EB010B636903EB430A0AEBFB
:101E3C00DA7A0BF101034FEA6A0A334453455246EE
:101E4C0084BF9A465246430540F1EA80114640460B
:101E5C00FEF76AFF002800F0F9805A4621690190CC
:101E6C0000F0ECF9A289019B22F4906242F080020E
:101E7C00A28103EB0B0023613246AAEB0B03B346A2
:101E8C00C4F814A0A3602060B24600264946019213
:101E9C0000F04AFAA3682168019AA3EB0B030A44E9
:101EAC00A3602260B868D144A0EB0A00B860002897
:101EBC0091D0B4F90C0080B2002EA4D1D5E90096D3
:101ECC0008359EE7D5E900B608356DE72146404652
:101EDC00FFF7E6FE80B3B4F90C304FF0FF3043F05F
:101EEC004003A38103B0BDE8F08F002070471E466D
:101EFC00AA46994618461D4656B3002832D04A4683
:101F0C0020682169B24228BF32468842636904D9ED
:101F1C00A16803EB010B5A4574DC934265DC2A463D
:101F2C004046216AD4F828C0E047B0F1000BD2DD5E
:101F3C00B9EB0B09CAD00120BB685D44A3EB0B03C2
:101F4C00A6EB0B06BB60002B3FF445AF002ED4D1A3
:101F5C000AF1080353F8046C9A4653F8085C0833EA
:101F6C00002EF7D032460A21284600F01FF900282F
:101F7C0069D00130A0EB0509C1E7206823699842BC
:101F8C001BD86369B34218D86FF0004CB44528BF16
:101F9C00B4469CFBF3FC4A4603FB0CF34046216A17
:101FAC00D4F828C0E047B0F1000A94DDA6EB0A068D
:101FBC0078E7B3463246206866E7B345DA4628BF71
:101FCC00B2464946524600F0AFF9A3682268A3EB2B
:101FDC000A035244A3602260002BE7D121464046FD
:101FEC00FFF75EFE0028E1D075E729469346019283
:101FFC0000F09AF9A368019A9B1AA36023681A440B
:10200C00226095E729465A4600F08EF9236821464E
:10201C005B4440462360FFF743FE002888D05AE714
:10202C00404600F067FA034600287FF422AF404692
:10203C00216900F0F9F90C22B4F90C30C8F8002031
:10204C0023F0800349E7721C914659E70C22B4F93E
:10205C000C30C8F8002040E74FF0FF30BCE600BF62
:10206C0000FCFF7F38B50C46114600228446074D14
:10207C0020462A601A46644600F0C2FA431C00D07F
:10208C0038BD2B68002BFBD0236038BD9C00002092
:10209C00F0B58B890C46990797B007D5012204F14E
:1020AC004703C4E90432236017B0F0BDB4F90E1035
:1020BC00054600292DDB6A4600F05AFA002827DB7A
:1020CC00019E4FF4806706F47046A6F50056B6FAEA
:1020DC0086F6394628467609FEF726FE30B3A389E4
:1020EC001A4A43F08003AA62C4E90407A381206062
:1020FC00002ED9D02846B4F90E1000F04DFA002865
:10210C00D2D0A38923F0030343F00103A381CBE7CF
:10211C00A38913F0800F14BF40274FF48067284623
:10212C0039460026FEF700FE0028D8D1B4F90C3051
:10213C009A05B9D4012123F0030304F1470243F0BB
:10214C000203C4E90421A3812260ADE7810A0008DF
:10215C0070B50C46B1F90E10164600291D4696B006
:10216C0013DB6A4600F004FA00280EDB01994FF4E9
:10217C00806301F47041A1F50051B1FA81F10020A6
:10218C0049092960336016B070BD0022B4F90C30D7
:10219C002A601B0604D540230020336016B070BDA6
:1021AC004FF480630020336016B070BD5FFA81FC81
:1021BC00810710D00346511E2AB90AE09A07184627
:1021CC000AD0013905D3184613F8012B6245F5D115
:1021DC00704700207047114603290CD80029F8D00D
:1021EC000346014401E08B42F3D0184613F8012B4F
:1021FC006245F8D1ECE7024610B54CEA0C2444EAEF
:10220C0004441046036804326340A3F1013E2EEAF5
:10221C00030313F0803F04D1043903291046F0D88E
:10222C0051B10346014401E08B4205D0184613F826
:10223C00012B6245F8D110BD002010BD844641EA47
:10224C00000313F0030349D1403A23D30B68036016
:10225C004B6843608B688360CB68C3600B69036118
:10226C004B6943618B698361CB69C3610B6A036200
:10227C004B6A43628B6A8362CB6AC3620B6B0363E8
:10228C004B6B43638B6B8363CB6BC36340304031CD
:10229C00403ADBD230320BD30B6803604B6843609F
:1022AC008B688360CB68C36010301031103AF3D266
:1022BC000C3205D351F8043B40F8043B043AF9D2F4
:1022CC00043208D0D2071CBF11F8013B00F8013BC7
:1022DC0001D30B8803806046704700BF082A13D3D4
:1022EC008B07B1D010F00303AED0C3F10403D21AA4
:1022FC00DB071CBF11F8013B00F8013BA4D331F8FC
:10230C00023B20F8023B9FE7043AD9D3013A11F87B
:10231C00013B00F8013BF9D20B7803704B7843700A
:10232C008B7883706046704788420DD98B18834236
:10233C000AD900EB020CBAB1624613F801CD9942EE
:10234C0002F801CDF9D170470F2A0ED8034602F1DD
:10235C00FF3C4AB10CF1010C013B8C4411F8012BF0
:10236C00614503F8012FF9D1704740EA01039B073F
:10237C004FD1A2F1100370B501F1200C23F00F0521
:10238C0001F1100E00F11004AC441B095EF8105C56
:10239C000EF1100E44F8105C5EF81C5C103444F81E
:1023AC001C5C5EF8185C44F8185C5EF8145CE6453E
:1023BC0044F8145CEAD1013312F00C0F01EB031159
:1023CC0002F00F0400EB031327D08E46043C24F0DC
:1023DC0003064FEA940C1E441C1F5EF8045B44F881
:1023EC00045FB442F9D10CF1010402F0030203EBD7
:1023FC00840301EB840102F1FF3C4AB10CF1010CA6
:10240C00013B8C4411F8012B614503F8012FF9D1E4
:10241C0070BD034602F1FF3C9CE72246EBE700BF90
:10242C00704700BF704700BF002952D038B551F833
:10243C00043C0C1F002BB8BFE4180546FFF7F0FF57
:10244C002B4A1368002B45D0A3420CD92168601885
:10245C00834228D0636028461460BDE83840FFF7FB
:10246C00E1BFA3420FD81A465B68002BF9D1116863
:10247C00501884421DD034D3636054602846BDE8A4
:10248C003840FFF7CFBF11685018A04215D028D89C
:10249C00216860188342EFD118685B680144C4E975
:1024AC0000135460EAE718685B680144C4E9001340
:1024BC00D1E7236819441160E0E720680144501803
:1024CC0083421160DAD1D3E900030144C2E900135D
:1024DC00D4E77047284663601460BDE83840FFF7C6
:1024EC00A1BF0C2328462B60BDE83840FFF79ABFEC
:1024FC0094000020F8B51446F9B1CAB106460D4651
:10250C0000F05CF8A04202D32F463846F8BD2146B5
:10251C003046FEF709FC07460028F6D0224629462D
:10252C00FFF78CFE30462946FFF77EFF3846F8BD94
:10253C002746FFF779FF3846F8BD1146BDE8F8404D
:10254C00FEF7F2BB38B50C46114600228446074D07
:10255C0020462A601A46644600F05AF8431C00D004
:10256C0038BD2B68002BFBD0236038BD9C000020AD
:10257C0070B50026074D0446084611462E6000F043
:10258C002FF8431C00D070BD2B68002BFBD02360B0
:10259C0070BD00BF9C000020002238B5064D0446DB
:1025AC0008462A6000F024F8431C00D038BD2B6884
:1025BC00002BFBD0236038BD9C00002051F8040C8C
:1025CC000028A0F10400BCBF0B58C018704700BF16
:1025DC005822024B4FF0FF301A6070479C000020CD
:1025EC005822024B4FF0FF301A6070479C000020BD
:1025FC005822024B00201A60704700BF9C0000203C
:10260C005822024B4FF0FF301A6070479C0000209C
:10261C005822024B4FF0FF301A6070479C0000208C
:10262C00044A05491368002B08BF0B461844106078
:10263C0018467047A0000020A80000205822024B2A
:10264C004FF0FF301A6070479C0000200D0A4E7549
:10265C006D313D000D0A4E756D323D2564000D0A3D
:10266C004E756D333D2564000D0A4E756D343D2558
:10267C0064000D0A0000000018000020000000009B
:10268C00000000000000000000000000000000003E
:10269C00000000000000000000000000000000002E
:1026AC00000000000000000000000000000000001E
:1026BC00000000000000000000000000000000000E
:1026CC0000000000000000000000000000000000FE
:1026DC00000000000000000000000000232D302B43
:1026EC0020000000686C4C0065666745464700009A
:1026FC00303132333435363738394142434445462C
:10270C0000000000303132333435363738396162ED
:10271C006364656600000000F8B500BFF8BC08BC37
:10272C009E467047F8B500BFF8BC08BC9E46704783
:04273C00750100081B
:042740004D0100083F
:10274400020406080000000001020304010203045D
:10275400060708091800002000000000C826000829
:10276400A8260008882600080000000000000000D9
:102774000000000000000000000000000000000055
:102784000000000000000000000000000000000045
:102794000000000000000000000000000000000035
:1027A4000000000000000000000000000000000025
:0827B40000000000000000001D
:040000050800084D9A
:00000001FF
